{
  "contractName": "DoctorRegistration",
  "abi": [
    {
      "inputs": [],
      "stateMutability": "nonpayable",
      "type": "constructor"
    },
    {
      "anonymous": false,
      "inputs": [
        {
          "indexed": false,
          "internalType": "string",
          "name": "hhNumber",
          "type": "string"
        },
        {
          "indexed": false,
          "internalType": "string",
          "name": "doctorName",
          "type": "string"
        },
        {
          "indexed": false,
          "internalType": "address",
          "name": "walletAddress",
          "type": "address"
        }
      ],
      "name": "DoctorRegistered",
      "type": "event"
    },
    {
      "anonymous": false,
      "inputs": [
        {
          "indexed": false,
          "internalType": "string",
          "name": "doctorNumber",
          "type": "string"
        },
        {
          "indexed": false,
          "internalType": "string",
          "name": "patientNumber",
          "type": "string"
        }
      ],
      "name": "PermissionGranted",
      "type": "event"
    },
    {
      "anonymous": false,
      "inputs": [
        {
          "indexed": false,
          "internalType": "string",
          "name": "doctorNumber",
          "type": "string"
        },
        {
          "indexed": false,
          "internalType": "string",
          "name": "patientNumber",
          "type": "string"
        }
      ],
      "name": "PermissionRevoked",
      "type": "event"
    },
    {
      "inputs": [],
      "name": "admin",
      "outputs": [
        {
          "internalType": "address",
          "name": "",
          "type": "address"
        }
      ],
      "stateMutability": "view",
      "type": "function",
      "constant": true
    },
    {
      "inputs": [
        {
          "internalType": "string",
          "name": "",
          "type": "string"
        },
        {
          "internalType": "string",
          "name": "",
          "type": "string"
        }
      ],
      "name": "doctorPermissions",
      "outputs": [
        {
          "internalType": "bool",
          "name": "",
          "type": "bool"
        }
      ],
      "stateMutability": "view",
      "type": "function",
      "constant": true
    },
    {
      "inputs": [],
      "name": "patientContract",
      "outputs": [
        {
          "internalType": "address",
          "name": "",
          "type": "address"
        }
      ],
      "stateMutability": "view",
      "type": "function",
      "constant": true
    },
    {
      "inputs": [
        {
          "internalType": "address",
          "name": "_addr",
          "type": "address"
        }
      ],
      "name": "setPatientContract",
      "outputs": [],
      "stateMutability": "nonpayable",
      "type": "function"
    },
    {
      "inputs": [],
      "name": "getAllDoctors",
      "outputs": [
        {
          "internalType": "string[]",
          "name": "",
          "type": "string[]"
        }
      ],
      "stateMutability": "view",
      "type": "function",
      "constant": true
    },
    {
      "inputs": [
        {
          "internalType": "string",
          "name": "_doctorName",
          "type": "string"
        },
        {
          "internalType": "string",
          "name": "_hospitalName",
          "type": "string"
        },
        {
          "internalType": "string",
          "name": "_dateOfBirth",
          "type": "string"
        },
        {
          "internalType": "string",
          "name": "_gender",
          "type": "string"
        },
        {
          "internalType": "string",
          "name": "_email",
          "type": "string"
        },
        {
          "internalType": "string",
          "name": "_hhNumber",
          "type": "string"
        },
        {
          "internalType": "string",
          "name": "_specialization",
          "type": "string"
        },
        {
          "internalType": "string",
          "name": "_department",
          "type": "string"
        },
        {
          "internalType": "string",
          "name": "_designation",
          "type": "string"
        },
        {
          "internalType": "string",
          "name": "_workExperience",
          "type": "string"
        },
        {
          "internalType": "string",
          "name": "_password",
          "type": "string"
        }
      ],
      "name": "registerDoctor",
      "outputs": [],
      "stateMutability": "nonpayable",
      "type": "function"
    },
    {
      "inputs": [
        {
          "internalType": "string",
          "name": "_hhNumber",
          "type": "string"
        }
      ],
      "name": "isRegisteredDoctor",
      "outputs": [
        {
          "internalType": "bool",
          "name": "",
          "type": "bool"
        }
      ],
      "stateMutability": "view",
      "type": "function",
      "constant": true
    },
    {
      "inputs": [
        {
          "internalType": "string",
          "name": "_hhNumber",
          "type": "string"
        }
      ],
      "name": "getDoctorDetails",
      "outputs": [
        {
          "internalType": "address",
          "name": "",
          "type": "address"
        },
        {
          "internalType": "string",
          "name": "",
          "type": "string"
        },
        {
          "internalType": "string",
          "name": "",
          "type": "string"
        },
        {
          "internalType": "string",
          "name": "",
          "type": "string"
        },
        {
          "internalType": "string",
          "name": "",
          "type": "string"
        },
        {
          "internalType": "string",
          "name": "",
          "type": "string"
        },
        {
          "internalType": "string",
          "name": "",
          "type": "string"
        },
        {
          "internalType": "string",
          "name": "",
          "type": "string"
        },
        {
          "internalType": "string",
          "name": "",
          "type": "string"
        },
        {
          "internalType": "string",
          "name": "",
          "type": "string"
        }
      ],
      "stateMutability": "view",
      "type": "function",
      "constant": true
    },
    {
      "inputs": [
        {
          "internalType": "string",
          "name": "_hhNumber",
          "type": "string"
        },
        {
          "internalType": "string",
          "name": "_password",
          "type": "string"
        }
      ],
      "name": "validatePassword",
      "outputs": [
        {
          "internalType": "bool",
          "name": "",
          "type": "bool"
        }
      ],
      "stateMutability": "view",
      "type": "function",
      "constant": true
    },
    {
      "inputs": [
        {
          "internalType": "string",
          "name": "_patientNumber",
          "type": "string"
        },
        {
          "internalType": "string",
          "name": "_doctorNumber",
          "type": "string"
        },
        {
          "internalType": "string",
          "name": "_patientName",
          "type": "string"
        }
      ],
      "name": "grantPermission",
      "outputs": [],
      "stateMutability": "nonpayable",
      "type": "function"
    },
    {
      "inputs": [
        {
          "internalType": "string",
          "name": "_patientNumber",
          "type": "string"
        },
        {
          "internalType": "string",
          "name": "_doctorNumber",
          "type": "string"
        },
        {
          "internalType": "string",
          "name": "_patientName",
          "type": "string"
        }
      ],
      "name": "externalGrantFromPatient",
      "outputs": [],
      "stateMutability": "nonpayable",
      "type": "function"
    },
    {
      "inputs": [
        {
          "internalType": "string",
          "name": "_patientNumber",
          "type": "string"
        },
        {
          "internalType": "string",
          "name": "_doctorNumber",
          "type": "string"
        }
      ],
      "name": "isPermissionGranted",
      "outputs": [
        {
          "internalType": "bool",
          "name": "",
          "type": "bool"
        }
      ],
      "stateMutability": "view",
      "type": "function",
      "constant": true
    },
    {
      "inputs": [
        {
          "internalType": "string",
          "name": "_patientNumber",
          "type": "string"
        },
        {
          "internalType": "string",
          "name": "_doctorNumber",
          "type": "string"
        }
      ],
      "name": "revokePermission",
      "outputs": [],
      "stateMutability": "nonpayable",
      "type": "function"
    },
    {
      "inputs": [
        {
          "internalType": "string",
          "name": "_patientNumber",
          "type": "string"
        }
      ],
      "name": "removePatient",
      "outputs": [],
      "stateMutability": "nonpayable",
      "type": "function"
    },
    {
      "inputs": [
        {
          "internalType": "string",
          "name": "_doctorNumber",
          "type": "string"
        }
      ],
      "name": "getPatientList",
      "outputs": [
        {
          "components": [
            {
              "internalType": "string",
              "name": "patient_number",
              "type": "string"
            },
            {
              "internalType": "string",
              "name": "patient_name",
              "type": "string"
            }
          ],
          "internalType": "struct DoctorRegistration.PatientList[]",
          "name": "",
          "type": "tuple[]"
        }
      ],
      "stateMutability": "view",
      "type": "function",
      "constant": true
    },
    {
      "inputs": [
        {
          "internalType": "address",
          "name": "_addr",
          "type": "address"
        }
      ],
      "name": "getDoctorNumberByAddress",
      "outputs": [
        {
          "internalType": "string",
          "name": "",
          "type": "string"
        }
      ],
      "stateMutability": "view",
      "type": "function",
      "constant": true
    }
  ],
  "bytecode": "0x608060405234801561001057600080fd5b50336000806101000a81548173ffffffffffffffffffffffffffffffffffffffff021916908373ffffffffffffffffffffffffffffffffffffffff1602179055506133dc806100606000396000f3fe608060405234801561001057600080fd5b50600436106101005760003560e01c80639d430b3511610097578063dc279f0011610066578063dc279f00146102ea578063f0d9509014610306578063f6e8e18f14610324578063f851a4401461034257610100565b80639d430b351461023e578063a46bef151461026e578063ac5f9fd01461029e578063d120c10c146102ba57610100565b80635df67040116100d35780635df67040146101a65780637babdb26146101c257806383deaac6146101f257806391c12f761461020e57610100565b80631cd1bd58146101055780633e76976714610121578063443347331461015a57806356cf1fc41461018a575b600080fd5b61011f600480360381019061011a91906120c1565b610360565b005b61013b600480360381019061013691906122e9565b610788565b6040516101519a999897969594939291906123f2565b60405180910390f35b610174600480360381019061016f91906124cd565b610f66565b6040516101819190612560565b60405180910390f35b6101a4600480360381019061019f91906122e9565b610fc1565b005b6101c060048036038101906101bb919061257b565b6110df565b005b6101dc60048036038101906101d791906124cd565b6112f5565b6040516101e99190612560565b60405180910390f35b61020c6004803603810190610207919061257b565b61141a565b005b610228600480360381019061022391906122e9565b611612565b6040516102359190612772565b60405180910390f35b610258600480360381019061025391906127c0565b6117b3565b60405161026591906127ed565b60405180910390f35b610288600480360381019061028391906122e9565b611884565b6040516102959190612560565b60405180910390f35b6102b860048036038101906102b391906124cd565b6118fb565b005b6102d460048036038101906102cf91906124cd565b611c35565b6040516102e19190612560565b60405180910390f35b61030460048036038101906102ff91906127c0565b611c87565b005b61030e611d59565b60405161031b91906128d1565b60405180910390f35b61032c611ec0565b60405161033991906128f3565b60405180910390f35b61034a611ee6565b60405161035791906128f3565b60405180910390f35b600073ffffffffffffffffffffffffffffffffffffffff16600287604051610388919061294a565b908152602001604051809103902060009054906101000a900473ffffffffffffffffffffffffffffffffffffffff1673ffffffffffffffffffffffffffffffffffffffff161461040d576040517f08c379a0000000000000000000000000000000000000000000000000000000008152600401610404906129ad565b60405180910390fd5b6000600360003373ffffffffffffffffffffffffffffffffffffffff1673ffffffffffffffffffffffffffffffffffffffff1681526020019081526020016000208054610459906129fc565b90501461049b576040517f08c379a000000000000000000000000000000000000000000000000000000000815260040161049290612a79565b60405180910390fd5b6040518061018001604052803373ffffffffffffffffffffffffffffffffffffffff1681526020018c81526020018b81526020018a815260200189815260200188815260200187815260200186815260200185815260200184815260200183815260200182815250600487604051610513919061294a565b908152602001604051809103902060008201518160000160006101000a81548173ffffffffffffffffffffffffffffffffffffffff021916908373ffffffffffffffffffffffffffffffffffffffff160217905550602082015181600101908161057d9190612c4f565b5060408201518160020190816105939190612c4f565b5060608201518160030190816105a99190612c4f565b5060808201518160040190816105bf9190612c4f565b5060a08201518160050190816105d59190612c4f565b5060c08201518160060190816105eb9190612c4f565b5060e08201518160070190816106019190612c4f565b506101008201518160080190816106189190612c4f565b5061012082015181600901908161062f9190612c4f565b5061014082015181600a0190816106469190612c4f565b5061016082015181600b01908161065d9190612c4f565b509050506001869080600181540180825580915050600190039060005260206000200160009091909190915090816106959190612c4f565b50336002876040516106a7919061294a565b908152602001604051809103902060006101000a81548173ffffffffffffffffffffffffffffffffffffffff021916908373ffffffffffffffffffffffffffffffffffffffff16021790555085600360003373ffffffffffffffffffffffffffffffffffffffff1673ffffffffffffffffffffffffffffffffffffffff168152602001908152602001600020908161073f9190612c4f565b507f8d3f9c8a09dcd94bc9c847110caac40824996b777a45809b38b82b9aa3f71ec8868c3360405161077393929190612d21565b60405180910390a15050505050505050505050565b60006060806060806060806060806060600073ffffffffffffffffffffffffffffffffffffffff1660028c6040516107c0919061294a565b908152602001604051809103902060009054906101000a900473ffffffffffffffffffffffffffffffffffffffff1673ffffffffffffffffffffffffffffffffffffffff1603610845576040517f08c379a000000000000000000000000000000000000000000000000000000000815260040161083c90612db2565b60405180910390fd5b600060048c604051610857919061294a565b9081526020016040518091039020604051806101800160405290816000820160009054906101000a900473ffffffffffffffffffffffffffffffffffffffff1673ffffffffffffffffffffffffffffffffffffffff1673ffffffffffffffffffffffffffffffffffffffff1681526020016001820180546108d7906129fc565b80601f0160208091040260200160405190810160405280929190818152602001828054610903906129fc565b80156109505780601f1061092557610100808354040283529160200191610950565b820191906000526020600020905b81548152906001019060200180831161093357829003601f168201915b50505050508152602001600282018054610969906129fc565b80601f0160208091040260200160405190810160405280929190818152602001828054610995906129fc565b80156109e25780601f106109b7576101008083540402835291602001916109e2565b820191906000526020600020905b8154815290600101906020018083116109c557829003601f168201915b505050505081526020016003820180546109fb906129fc565b80601f0160208091040260200160405190810160405280929190818152602001828054610a27906129fc565b8015610a745780601f10610a4957610100808354040283529160200191610a74565b820191906000526020600020905b815481529060010190602001808311610a5757829003601f168201915b50505050508152602001600482018054610a8d906129fc565b80601f0160208091040260200160405190810160405280929190818152602001828054610ab9906129fc565b8015610b065780601f10610adb57610100808354040283529160200191610b06565b820191906000526020600020905b815481529060010190602001808311610ae957829003601f168201915b50505050508152602001600582018054610b1f906129fc565b80601f0160208091040260200160405190810160405280929190818152602001828054610b4b906129fc565b8015610b985780601f10610b6d57610100808354040283529160200191610b98565b820191906000526020600020905b815481529060010190602001808311610b7b57829003601f168201915b50505050508152602001600682018054610bb1906129fc565b80601f0160208091040260200160405190810160405280929190818152602001828054610bdd906129fc565b8015610c2a5780601f10610bff57610100808354040283529160200191610c2a565b820191906000526020600020905b815481529060010190602001808311610c0d57829003601f168201915b50505050508152602001600782018054610c43906129fc565b80601f0160208091040260200160405190810160405280929190818152602001828054610c6f906129fc565b8015610cbc5780601f10610c9157610100808354040283529160200191610cbc565b820191906000526020600020905b815481529060010190602001808311610c9f57829003601f168201915b50505050508152602001600882018054610cd5906129fc565b80601f0160208091040260200160405190810160405280929190818152602001828054610d01906129fc565b8015610d4e5780601f10610d2357610100808354040283529160200191610d4e565b820191906000526020600020905b815481529060010190602001808311610d3157829003601f168201915b50505050508152602001600982018054610d67906129fc565b80601f0160208091040260200160405190810160405280929190818152602001828054610d93906129fc565b8015610de05780601f10610db557610100808354040283529160200191610de0565b820191906000526020600020905b815481529060010190602001808311610dc357829003601f168201915b50505050508152602001600a82018054610df9906129fc565b80601f0160208091040260200160405190810160405280929190818152602001828054610e25906129fc565b8015610e725780601f10610e4757610100808354040283529160200191610e72565b820191906000526020600020905b815481529060010190602001808311610e5557829003601f168201915b50505050508152602001600b82018054610e8b906129fc565b80601f0160208091040260200160405190810160405280929190818152602001828054610eb7906129fc565b8015610f045780601f10610ed957610100808354040283529160200191610f04565b820191906000526020600020905b815481529060010190602001808311610ee757829003601f168201915b5050505050815250509050806000015181602001518260400151836060015184608001518560a001518660e001518761010001518861012001518961014001519a509a509a509a509a509a509a509a509a509a50509193959799509193959799565b600682805160208101820180518482526020830160208501208183528095505050505050818051602081018201805184825260208301602085012081835280955050505050506000915091509054906101000a900460ff1681565b6000600360003373ffffffffffffffffffffffffffffffffffffffff1673ffffffffffffffffffffffffffffffffffffffff168152602001908152602001600020805461100d906129fc565b80601f0160208091040260200160405190810160405280929190818152602001828054611039906129fc565b80156110865780601f1061105b57610100808354040283529160200191611086565b820191906000526020600020905b81548152906001019060200180831161106957829003601f168201915b5050505050905060008151116110d1576040517f08c379a00000000000000000000000000000000000000000000000000000000081526004016110c890612e44565b60405180910390fd5b6110db82826118fb565b5050565b813373ffffffffffffffffffffffffffffffffffffffff16600282604051611107919061294a565b908152602001604051809103902060009054906101000a900473ffffffffffffffffffffffffffffffffffffffff1673ffffffffffffffffffffffffffffffffffffffff161461118c576040517f08c379a000000000000000000000000000000000000000000000000000000000815260040161118390612eb0565b60405180910390fd5b60068460405161119c919061294a565b9081526020016040518091039020836040516111b8919061294a565b908152602001604051809103902060009054906101000a900460ff166112ef576005836040516111e8919061294a565b9081526020016040518091039020604051806040016040528086815260200184815250908060018154018082558091505060019003906000526020600020906002020160009091909190915060008201518160000190816112499190612c4f565b50602082015181600101908161125f9190612c4f565b5050506001600685604051611274919061294a565b908152602001604051809103902084604051611290919061294a565b908152602001604051809103902060006101000a81548160ff0219169083151502179055507f995f2970a2ea0d66cc2150b5c93e3c413df023b5b88534d66259c9c3c6dac86a83856040516112e6929190612ed0565b60405180910390a15b50505050565b60008073ffffffffffffffffffffffffffffffffffffffff1660028460405161131e919061294a565b908152602001604051809103902060009054906101000a900473ffffffffffffffffffffffffffffffffffffffff1673ffffffffffffffffffffffffffffffffffffffff16036113a3576040517f08c379a000000000000000000000000000000000000000000000000000000000815260040161139a90612db2565b60405180910390fd5b6004836040516113b3919061294a565b9081526020016040518091039020600b016040516020016113d49190612f8a565b60405160208183030381529060405280519060200120826040516020016113fb919061294a565b6040516020818303038152906040528051906020012014905092915050565b600760009054906101000a900473ffffffffffffffffffffffffffffffffffffffff1673ffffffffffffffffffffffffffffffffffffffff163373ffffffffffffffffffffffffffffffffffffffff16146114aa576040517f08c379a00000000000000000000000000000000000000000000000000000000081526004016114a190612fed565b60405180910390fd5b6006836040516114ba919061294a565b9081526020016040518091039020826040516114d6919061294a565b908152602001604051809103902060009054906101000a900460ff1661160d57600582604051611506919061294a565b9081526020016040518091039020604051806040016040528085815260200183815250908060018154018082558091505060019003906000526020600020906002020160009091909190915060008201518160000190816115679190612c4f565b50602082015181600101908161157d9190612c4f565b5050506001600684604051611592919061294a565b9081526020016040518091039020836040516115ae919061294a565b908152602001604051809103902060006101000a81548160ff0219169083151502179055507f995f2970a2ea0d66cc2150b5c93e3c413df023b5b88534d66259c9c3c6dac86a8284604051611604929190612ed0565b60405180910390a15b505050565b6060600582604051611624919061294a565b9081526020016040518091039020805480602002602001604051908101604052809291908181526020016000905b828210156117a85783829060005260206000209060020201604051806040016040529081600082018054611685906129fc565b80601f01602080910402602001604051908101604052809291908181526020018280546116b1906129fc565b80156116fe5780601f106116d3576101008083540402835291602001916116fe565b820191906000526020600020905b8154815290600101906020018083116116e157829003601f168201915b50505050508152602001600182018054611717906129fc565b80601f0160208091040260200160405190810160405280929190818152602001828054611743906129fc565b80156117905780601f1061176557610100808354040283529160200191611790565b820191906000526020600020905b81548152906001019060200180831161177357829003601f168201915b50505050508152505081526020019060010190611652565b505050509050919050565b6060600360008373ffffffffffffffffffffffffffffffffffffffff1673ffffffffffffffffffffffffffffffffffffffff16815260200190815260200160002080546117ff906129fc565b80601f016020809104026020016040519081016040528092919081815260200182805461182b906129fc565b80156118785780601f1061184d57610100808354040283529160200191611878565b820191906000526020600020905b81548152906001019060200180831161185b57829003601f168201915b50505050509050919050565b60008073ffffffffffffffffffffffffffffffffffffffff166002836040516118ad919061294a565b908152602001604051809103902060009054906101000a900473ffffffffffffffffffffffffffffffffffffffff1673ffffffffffffffffffffffffffffffffffffffff1614159050919050565b803373ffffffffffffffffffffffffffffffffffffffff16600282604051611923919061294a565b908152602001604051809103902060009054906101000a900473ffffffffffffffffffffffffffffffffffffffff1673ffffffffffffffffffffffffffffffffffffffff16146119a8576040517f08c379a000000000000000000000000000000000000000000000000000000000815260040161199f90612eb0565b60405180910390fd5b6006836040516119b8919061294a565b9081526020016040518091039020826040516119d4919061294a565b908152602001604051809103902060009054906101000a900460ff16611a2f576040517f08c379a0000000000000000000000000000000000000000000000000000000008152600401611a2690613059565b60405180910390fd5b6000600684604051611a41919061294a565b908152602001604051809103902083604051611a5d919061294a565b908152602001604051809103902060006101000a81548160ff0219169083151502179055506000600583604051611a94919061294a565b9081526020016040518091039020905060008180549050905060005b81811015611c2c578580519060200120838281548110611ad357611ad2613079565b5b9060005260206000209060020201600001604051611af1919061314b565b604051809103902003611c1957600182611b0b9190613191565b811015611b8e5782600183611b209190613191565b81548110611b3157611b30613079565b5b9060005260206000209060020201838281548110611b5257611b51613079565b5b906000526020600020906002020160008201816000019081611b7491906131db565b5060018201816001019081611b8991906131db565b509050505b82805480611b9f57611b9e6132c3565b5b600190038181906000526020600020906002020160008082016000611bc49190611f0a565b600182016000611bd49190611f0a565b505090557f213e0e506c4dc293f81607cd7c386e8054c30488dec51469ff3fddcc5f3ad70c8587604051611c09929190612ed0565b60405180910390a1505050611c30565b8080611c24906132f2565b915050611ab0565b5050505b505050565b6000600683604051611c47919061294a565b908152602001604051809103902082604051611c63919061294a565b908152602001604051809103902060009054906101000a900460ff16905092915050565b60008054906101000a900473ffffffffffffffffffffffffffffffffffffffff1673ffffffffffffffffffffffffffffffffffffffff163373ffffffffffffffffffffffffffffffffffffffff1614611d15576040517f08c379a0000000000000000000000000000000000000000000000000000000008152600401611d0c90613386565b60405180910390fd5b80600760006101000a81548173ffffffffffffffffffffffffffffffffffffffff021916908373ffffffffffffffffffffffffffffffffffffffff16021790555050565b606060008054906101000a900473ffffffffffffffffffffffffffffffffffffffff1673ffffffffffffffffffffffffffffffffffffffff163373ffffffffffffffffffffffffffffffffffffffff1614611de9576040517f08c379a0000000000000000000000000000000000000000000000000000000008152600401611de090613386565b60405180910390fd5b6001805480602002602001604051908101604052809291908181526020016000905b82821015611eb7578382906000526020600020018054611e2a906129fc565b80601f0160208091040260200160405190810160405280929190818152602001828054611e56906129fc565b8015611ea35780601f10611e7857610100808354040283529160200191611ea3565b820191906000526020600020905b815481529060010190602001808311611e8657829003601f168201915b505050505081526020019060010190611e0b565b50505050905090565b600760009054906101000a900473ffffffffffffffffffffffffffffffffffffffff1681565b60008054906101000a900473ffffffffffffffffffffffffffffffffffffffff1681565b508054611f16906129fc565b6000825580601f10611f285750611f47565b601f016020900490600052602060002090810190611f469190611f4a565b5b50565b5b80821115611f63576000816000905550600101611f4b565b5090565b6000604051905090565b600080fd5b600080fd5b600080fd5b600080fd5b6000601f19601f8301169050919050565b7f4e487b7100000000000000000000000000000000000000000000000000000000600052604160045260246000fd5b611fce82611f85565b810181811067ffffffffffffffff82111715611fed57611fec611f96565b5b80604052505050565b6000612000611f67565b905061200c8282611fc5565b919050565b600067ffffffffffffffff82111561202c5761202b611f96565b5b61203582611f85565b9050602081019050919050565b82818337600083830152505050565b600061206461205f84612011565b611ff6565b9050828152602081018484840111156120805761207f611f80565b5b61208b848285612042565b509392505050565b600082601f8301126120a8576120a7611f7b565b5b81356120b8848260208601612051565b91505092915050565b60008060008060008060008060008060006101608c8e0312156120e7576120e6611f71565b5b60008c013567ffffffffffffffff81111561210557612104611f76565b5b6121118e828f01612093565b9b505060208c013567ffffffffffffffff81111561213257612131611f76565b5b61213e8e828f01612093565b9a505060408c013567ffffffffffffffff81111561215f5761215e611f76565b5b61216b8e828f01612093565b99505060608c013567ffffffffffffffff81111561218c5761218b611f76565b5b6121988e828f01612093565b98505060808c013567ffffffffffffffff8111156121b9576121b8611f76565b5b6121c58e828f01612093565b97505060a08c013567ffffffffffffffff8111156121e6576121e5611f76565b5b6121f28e828f01612093565b96505060c08c013567ffffffffffffffff81111561221357612212611f76565b5b61221f8e828f01612093565b95505060e08c013567ffffffffffffffff8111156122405761223f611f76565b5b61224c8e828f01612093565b9450506101008c013567ffffffffffffffff81111561226e5761226d611f76565b5b61227a8e828f01612093565b9350506101208c013567ffffffffffffffff81111561229c5761229b611f76565b5b6122a88e828f01612093565b9250506101408c013567ffffffffffffffff8111156122ca576122c9611f76565b5b6122d68e828f01612093565b9150509295989b509295989b9093969950565b6000602082840312156122ff576122fe611f71565b5b600082013567ffffffffffffffff81111561231d5761231c611f76565b5b61232984828501612093565b91505092915050565b600073ffffffffffffffffffffffffffffffffffffffff82169050919050565b600061235d82612332565b9050919050565b61236d81612352565b82525050565b600081519050919050565b600082825260208201905092915050565b60005b838110156123ad578082015181840152602081019050612392565b60008484015250505050565b60006123c482612373565b6123ce818561237e565b93506123de81856020860161238f565b6123e781611f85565b840191505092915050565b600061014082019050612408600083018d612364565b818103602083015261241a818c6123b9565b9050818103604083015261242e818b6123b9565b90508181036060830152612442818a6123b9565b9050818103608083015261245681896123b9565b905081810360a083015261246a81886123b9565b905081810360c083015261247e81876123b9565b905081810360e083015261249281866123b9565b90508181036101008301526124a781856123b9565b90508181036101208301526124bc81846123b9565b90509b9a5050505050505050505050565b600080604083850312156124e4576124e3611f71565b5b600083013567ffffffffffffffff81111561250257612501611f76565b5b61250e85828601612093565b925050602083013567ffffffffffffffff81111561252f5761252e611f76565b5b61253b85828601612093565b9150509250929050565b60008115159050919050565b61255a81612545565b82525050565b60006020820190506125756000830184612551565b92915050565b60008060006060848603121561259457612593611f71565b5b600084013567ffffffffffffffff8111156125b2576125b1611f76565b5b6125be86828701612093565b935050602084013567ffffffffffffffff8111156125df576125de611f76565b5b6125eb86828701612093565b925050604084013567ffffffffffffffff81111561260c5761260b611f76565b5b61261886828701612093565b9150509250925092565b600081519050919050565b600082825260208201905092915050565b6000819050602082019050919050565b600082825260208201905092915050565b600061266a82612373565b612674818561264e565b935061268481856020860161238f565b61268d81611f85565b840191505092915050565b600060408301600083015184820360008601526126b5828261265f565b915050602083015184820360208601526126cf828261265f565b9150508091505092915050565b60006126e88383612698565b905092915050565b6000602082019050919050565b600061270882612622565b612712818561262d565b9350836020820285016127248561263e565b8060005b85811015612760578484038952815161274185826126dc565b945061274c836126f0565b925060208a01995050600181019050612728565b50829750879550505050505092915050565b6000602082019050818103600083015261278c81846126fd565b905092915050565b61279d81612352565b81146127a857600080fd5b50565b6000813590506127ba81612794565b92915050565b6000602082840312156127d6576127d5611f71565b5b60006127e4848285016127ab565b91505092915050565b6000602082019050818103600083015261280781846123b9565b905092915050565b600081519050919050565b600082825260208201905092915050565b6000819050602082019050919050565b6000612847838361265f565b905092915050565b6000602082019050919050565b60006128678261280f565b612871818561281a565b9350836020820285016128838561282b565b8060005b858110156128bf57848403895281516128a0858261283b565b94506128ab8361284f565b925060208a01995050600181019050612887565b50829750879550505050505092915050565b600060208201905081810360008301526128eb818461285c565b905092915050565b60006020820190506129086000830184612364565b92915050565b600081905092915050565b600061292482612373565b61292e818561290e565b935061293e81856020860161238f565b80840191505092915050565b60006129568284612919565b915081905092915050565b7f446f63746f7220616c7265616479207265676973746572656400000000000000600082015250565b600061299760198361237e565b91506129a282612961565b602082019050919050565b600060208201905081810360008301526129c68161298a565b9050919050565b7f4e487b7100000000000000000000000000000000000000000000000000000000600052602260045260246000fd5b60006002820490506001821680612a1457607f821691505b602082108103612a2757612a266129cd565b5b50919050565b7f4164647265737320616c72656164792072656769737465726564000000000000600082015250565b6000612a63601a8361237e565b9150612a6e82612a2d565b602082019050919050565b60006020820190508181036000830152612a9281612a56565b9050919050565b60008190508160005260206000209050919050565b60006020601f8301049050919050565b600082821b905092915050565b600060088302612afb7fffffffffffffffffffffffffffffffffffffffffffffffffffffffffffffffff82612abe565b612b058683612abe565b95508019841693508086168417925050509392505050565b6000819050919050565b6000819050919050565b6000612b4c612b47612b4284612b1d565b612b27565b612b1d565b9050919050565b6000819050919050565b612b6683612b31565b612b7a612b7282612b53565b848454612acb565b825550505050565b600090565b612b8f612b82565b612b9a818484612b5d565b505050565b5b81811015612bbe57612bb3600082612b87565b600181019050612ba0565b5050565b601f821115612c0357612bd481612a99565b612bdd84612aae565b81016020851015612bec578190505b612c00612bf885612aae565b830182612b9f565b50505b505050565b600082821c905092915050565b6000612c2660001984600802612c08565b1980831691505092915050565b6000612c3f8383612c15565b9150826002028217905092915050565b612c5882612373565b67ffffffffffffffff811115612c7157612c70611f96565b5b612c7b82546129fc565b612c86828285612bc2565b600060209050601f831160018114612cb95760008415612ca7578287015190505b612cb18582612c33565b865550612d19565b601f198416612cc786612a99565b60005b82811015612cef57848901518255600182019150602085019450602081019050612cca565b86831015612d0c5784890151612d08601f891682612c15565b8355505b6001600288020188555050505b505050505050565b60006060820190508181036000830152612d3b81866123b9565b90508181036020830152612d4f81856123b9565b9050612d5e6040830184612364565b949350505050565b7f446f63746f72206e6f7420726567697374657265640000000000000000000000600082015250565b6000612d9c60158361237e565b9150612da782612d66565b602082019050919050565b60006020820190508181036000830152612dcb81612d8f565b9050919050565b7f43616c6c6572206973206e6f742061207265676973746572656420646f63746f60008201527f7200000000000000000000000000000000000000000000000000000000000000602082015250565b6000612e2e60218361237e565b9150612e3982612dd2565b604082019050919050565b60006020820190508181036000830152612e5d81612e21565b9050919050565b7f556e617574686f72697a65643a204e6f742074686520646f63746f7200000000600082015250565b6000612e9a601c8361237e565b9150612ea582612e64565b602082019050919050565b60006020820190508181036000830152612ec981612e8d565b9050919050565b60006040820190508181036000830152612eea81856123b9565b90508181036020830152612efe81846123b9565b90509392505050565b60008154612f14816129fc565b612f1e818661290e565b94506001821660008114612f395760018114612f4e57612f81565b60ff1983168652811515820286019350612f81565b612f5785612a99565b60005b83811015612f7957815481890152600182019150602081019050612f5a565b838801955050505b50505092915050565b6000612f968284612f07565b915081905092915050565b7f556e617574686f72697a65642063616c6c657200000000000000000000000000600082015250565b6000612fd760138361237e565b9150612fe282612fa1565b602082019050919050565b6000602082019050818103600083015261300681612fca565b9050919050565b7f5065726d697373696f6e206e6f74206772616e74656400000000000000000000600082015250565b600061304360168361237e565b915061304e8261300d565b602082019050919050565b6000602082019050818103600083015261307281613036565b9050919050565b7f4e487b7100000000000000000000000000000000000000000000000000000000600052603260045260246000fd5b600081905092915050565b60008190508160005260206000209050919050565b600081546130d5816129fc565b6130df81866130a8565b945060018216600081146130fa576001811461310f57613142565b60ff1983168652811515820286019350613142565b613118856130b3565b60005b8381101561313a5781548189015260018201915060208101905061311b565b838801955050505b50505092915050565b600061315782846130c8565b915081905092915050565b7f4e487b7100000000000000000000000000000000000000000000000000000000600052601160045260246000fd5b600061319c82612b1d565b91506131a783612b1d565b92508282039050818111156131bf576131be613162565b5b92915050565b6000815490506131d4816129fc565b9050919050565b8181036131e95750506132c1565b6131f2826131c5565b67ffffffffffffffff81111561320b5761320a611f96565b5b61321582546129fc565b613220828285612bc2565b6000601f83116001811461324f576000841561323d578287015490505b6132478582612c33565b8655506132ba565b601f19841661325d87612a99565b965061326886612a99565b60005b828110156132905784890154825560018201915060018501945060208101905061326b565b868310156132ad57848901546132a9601f891682612c15565b8355505b6001600288020188555050505b5050505050505b565b7f4e487b7100000000000000000000000000000000000000000000000000000000600052603160045260246000fd5b60006132fd82612b1d565b91507fffffffffffffffffffffffffffffffffffffffffffffffffffffffffffffffff820361332f5761332e613162565b5b600182019050919050565b7f4f6e6c792061646d696e2063616e2063616c6c20746869730000000000000000600082015250565b600061337060188361237e565b915061337b8261333a565b602082019050919050565b6000602082019050818103600083015261339f81613363565b905091905056fea264697066735822122027cea251ebb61aa6bcc4aeb8630b3bdfab702bc67ae55b43957689f871c93ebc64736f6c63430008130033",
  "immutableReferences": {},
  "source": "//DoctorRegistration.sol\r\n\r\n// SPDX-License-Identifier: MIT\r\npragma solidity ^0.8.19;\r\n\r\ncontract DoctorRegistration {\r\n    struct Doctor {\r\n        address walletAddress;\r\n        string doctorName;\r\n        string hospitalName;\r\n        string dateOfBirth;\r\n        string gender;\r\n        string email;\r\n        string hhNumber;\r\n        string specialization;\r\n        string department;\r\n        string designation;\r\n        string workExperience;\r\n        string password;\r\n    }\r\n\r\n    struct PatientList {\r\n        string patient_number;\r\n        string patient_name;\r\n    }\r\n    \r\n    address public admin;\r\n    string[] private doctorList;\r\n    \r\n    mapping(string => address) private doctorAddresses;\r\n    mapping(address => string) private addressToDoctorNumber;\r\n    mapping(string => Doctor) private doctors;\r\n    mapping(string => PatientList[]) private Dpermission;\r\n    mapping(string => mapping(string => bool)) public doctorPermissions;\r\n\r\n    address public patientContract;\r\n\r\n    event DoctorRegistered(string hhNumber, string doctorName, address walletAddress);\r\n    event PermissionGranted(string doctorNumber, string patientNumber);\r\n    event PermissionRevoked(string doctorNumber, string patientNumber);\r\n\r\n    modifier onlyAdmin() {\r\n        require(msg.sender == admin, \"Only admin can call this\");\r\n        _;\r\n    }\r\n\r\n    modifier onlyDoctor(string memory _doctorNumber) {\r\n        require(doctorAddresses[_doctorNumber] == msg.sender, \"Unauthorized: Not the doctor\");\r\n        _;\r\n    }\r\n\r\n    modifier onlyPatientContract() {\r\n        require(msg.sender == patientContract, \"Unauthorized caller\");\r\n        _;\r\n    }\r\n\r\n    constructor() {\r\n        admin = msg.sender;\r\n    }\r\n\r\n    function setPatientContract(address _addr) external onlyAdmin {\r\n        patientContract = _addr;\r\n    }\r\n\r\n    function getAllDoctors() external view onlyAdmin returns (string[] memory) {\r\n        return doctorList;\r\n    }\r\n\r\n    function registerDoctor(\r\n        string memory _doctorName,\r\n        string memory _hospitalName,\r\n        string memory _dateOfBirth,\r\n        string memory _gender,\r\n        string memory _email,\r\n        string memory _hhNumber,\r\n        string memory _specialization,\r\n        string memory _department,\r\n        string memory _designation,\r\n        string memory _workExperience,\r\n        string memory _password\r\n    ) external {\r\n        require(doctorAddresses[_hhNumber] == address(0), \"Doctor already registered\");\r\n        require(bytes(addressToDoctorNumber[msg.sender]).length == 0, \"Address already registered\");\r\n\r\n        doctors[_hhNumber] = Doctor({\r\n            walletAddress: msg.sender,\r\n            doctorName: _doctorName,\r\n            hospitalName: _hospitalName,\r\n            dateOfBirth: _dateOfBirth,\r\n            gender: _gender,\r\n            email: _email,\r\n            hhNumber: _hhNumber,\r\n            specialization: _specialization,\r\n            department: _department,\r\n            designation: _designation,\r\n            workExperience: _workExperience,\r\n            password: _password\r\n        });\r\n        \r\n        doctorList.push(_hhNumber);\r\n        doctorAddresses[_hhNumber] = msg.sender;\r\n        addressToDoctorNumber[msg.sender] = _hhNumber;\r\n        emit DoctorRegistered(_hhNumber, _doctorName, msg.sender);\r\n    }\r\n\r\n    function isRegisteredDoctor(string memory _hhNumber) external view returns (bool) {\r\n        return doctorAddresses[_hhNumber] != address(0);\r\n    }\r\n\r\n    function getDoctorDetails(string memory _hhNumber) external view returns (\r\n        address,\r\n        string memory,\r\n        string memory,\r\n        string memory,\r\n        string memory,\r\n        string memory,\r\n        string memory,\r\n        string memory,\r\n        string memory,\r\n        string memory\r\n    ) {\r\n        require(doctorAddresses[_hhNumber] != address(0), \"Doctor not registered\");\r\n        Doctor memory doctor = doctors[_hhNumber];\r\n        return (\r\n            doctor.walletAddress,\r\n            doctor.doctorName,\r\n            doctor.hospitalName,\r\n            doctor.dateOfBirth,\r\n            doctor.gender,\r\n            doctor.email,\r\n            doctor.specialization,\r\n            doctor.department,\r\n            doctor.designation,\r\n            doctor.workExperience\r\n        );\r\n    }\r\n\r\n    function validatePassword(string memory _hhNumber, string memory _password) external view returns (bool) {\r\n        require(doctorAddresses[_hhNumber] != address(0), \"Doctor not registered\");\r\n        return keccak256(abi.encodePacked(_password)) == keccak256(abi.encodePacked(doctors[_hhNumber].password));\r\n    }\r\n\r\n    function grantPermission(\r\n        string memory _patientNumber,\r\n        string memory _doctorNumber,\r\n        string memory _patientName\r\n    ) external onlyDoctor(_doctorNumber) {\r\n        if (!doctorPermissions[_patientNumber][_doctorNumber]) {\r\n            Dpermission[_doctorNumber].push(PatientList(_patientNumber, _patientName));\r\n            doctorPermissions[_patientNumber][_doctorNumber] = true;\r\n            emit PermissionGranted(_doctorNumber, _patientNumber);\r\n        }\r\n    }\r\n\r\n    function externalGrantFromPatient(\r\n        string memory _patientNumber,\r\n        string memory _doctorNumber,\r\n        string memory _patientName\r\n    ) external onlyPatientContract {\r\n        if (!doctorPermissions[_patientNumber][_doctorNumber]) {\r\n            Dpermission[_doctorNumber].push(PatientList(_patientNumber, _patientName));\r\n            doctorPermissions[_patientNumber][_doctorNumber] = true;\r\n            emit PermissionGranted(_doctorNumber, _patientNumber);\r\n        }\r\n    }\r\n\r\n    function isPermissionGranted(string memory _patientNumber, string memory _doctorNumber) external view returns (bool) {\r\n        return doctorPermissions[_patientNumber][_doctorNumber];\r\n    }\r\n\r\n    function revokePermission(string memory _patientNumber, string memory _doctorNumber) public onlyDoctor(_doctorNumber) {\r\n        require(doctorPermissions[_patientNumber][_doctorNumber], \"Permission not granted\");\r\n        \r\n        doctorPermissions[_patientNumber][_doctorNumber] = false;\r\n\r\n        PatientList[] storage patients = Dpermission[_doctorNumber];\r\n        uint256 length = patients.length;\r\n        \r\n        for (uint256 i = 0; i < length; i++) {\r\n            if (keccak256(bytes(patients[i].patient_number)) == keccak256(bytes(_patientNumber))) {\r\n                if (i < length - 1) {\r\n                    patients[i] = patients[length - 1];\r\n                }\r\n                patients.pop();\r\n                emit PermissionRevoked(_doctorNumber, _patientNumber);\r\n                return;\r\n            }\r\n        }\r\n    }\r\n\r\n    function removePatient(string memory _patientNumber) external {\r\n        string memory doctorNumber = addressToDoctorNumber[msg.sender];\r\n        require(bytes(doctorNumber).length > 0, \"Caller is not a registered doctor\");\r\n        revokePermission(_patientNumber, doctorNumber);\r\n    }\r\n\r\n    function getPatientList(string memory _doctorNumber) public view returns (PatientList[] memory) {\r\n        return Dpermission[_doctorNumber];\r\n    }\r\n\r\n    function getDoctorNumberByAddress(address _addr) external view returns (string memory) {\r\n        return addressToDoctorNumber[_addr];\r\n    }\r\n}",
  "sourcePath": "C:\\Users\\Asus\\Medical_Management_Blockchain_6th\\src\\contracts\\DoctorRegistration.sol",
  "compiler": {
    "name": "solc",
    "version": "0.8.19+commit.7dd6d404.Emscripten.clang"
  },
  "schemaVersion": "3.4.16",
  "updatedAt": "2025-05-19T19:17:44.898Z",
  "networkType": "ethereum",
  "devdoc": {
    "kind": "dev",
    "methods": {},
    "version": 1
  },
  "userdoc": {
    "kind": "user",
    "methods": {},
    "version": 1
  }
}