{
  "contractName": "DoctorRegistration",
  "abi": [
    {
      "inputs": [],
      "stateMutability": "nonpayable",
      "type": "constructor"
    },
    {
      "anonymous": false,
      "inputs": [
        {
          "indexed": false,
          "internalType": "string",
          "name": "hhNumber",
          "type": "string"
        },
        {
          "indexed": false,
          "internalType": "string",
          "name": "doctorName",
          "type": "string"
        },
        {
          "indexed": false,
          "internalType": "address",
          "name": "walletAddress",
          "type": "address"
        }
      ],
      "name": "DoctorRegistered",
      "type": "event"
    },
    {
      "anonymous": false,
      "inputs": [
        {
          "indexed": false,
          "internalType": "string",
          "name": "doctorNumber",
          "type": "string"
        },
        {
          "indexed": false,
          "internalType": "string",
          "name": "patientNumber",
          "type": "string"
        }
      ],
      "name": "PermissionGranted",
      "type": "event"
    },
    {
      "anonymous": false,
      "inputs": [
        {
          "indexed": false,
          "internalType": "string",
          "name": "doctorNumber",
          "type": "string"
        },
        {
          "indexed": false,
          "internalType": "string",
          "name": "patientNumber",
          "type": "string"
        }
      ],
      "name": "PermissionRevoked",
      "type": "event"
    },
    {
      "inputs": [],
      "name": "admin",
      "outputs": [
        {
          "internalType": "address",
          "name": "",
          "type": "address"
        }
      ],
      "stateMutability": "view",
      "type": "function",
      "constant": true
    },
    {
      "inputs": [
        {
          "internalType": "string",
          "name": "",
          "type": "string"
        },
        {
          "internalType": "string",
          "name": "",
          "type": "string"
        }
      ],
      "name": "doctorPermissions",
      "outputs": [
        {
          "internalType": "bool",
          "name": "",
          "type": "bool"
        }
      ],
      "stateMutability": "view",
      "type": "function",
      "constant": true
    },
    {
      "inputs": [],
      "name": "patientContract",
      "outputs": [
        {
          "internalType": "address",
          "name": "",
          "type": "address"
        }
      ],
      "stateMutability": "view",
      "type": "function",
      "constant": true
    },
    {
      "inputs": [
        {
          "internalType": "address",
          "name": "_addr",
          "type": "address"
        }
      ],
      "name": "setPatientContract",
      "outputs": [],
      "stateMutability": "nonpayable",
      "type": "function"
    },
    {
      "inputs": [],
      "name": "getAllDoctors",
      "outputs": [
        {
          "internalType": "string[]",
          "name": "",
          "type": "string[]"
        }
      ],
      "stateMutability": "view",
      "type": "function",
      "constant": true
    },
    {
      "inputs": [
        {
          "internalType": "string",
          "name": "_doctorName",
          "type": "string"
        },
        {
          "internalType": "string",
          "name": "_hospitalName",
          "type": "string"
        },
        {
          "internalType": "string",
          "name": "_dateOfBirth",
          "type": "string"
        },
        {
          "internalType": "string",
          "name": "_gender",
          "type": "string"
        },
        {
          "internalType": "string",
          "name": "_email",
          "type": "string"
        },
        {
          "internalType": "string",
          "name": "_hhNumber",
          "type": "string"
        },
        {
          "internalType": "string",
          "name": "_specialization",
          "type": "string"
        },
        {
          "internalType": "string",
          "name": "_department",
          "type": "string"
        },
        {
          "internalType": "string",
          "name": "_designation",
          "type": "string"
        },
        {
          "internalType": "string",
          "name": "_workExperience",
          "type": "string"
        },
        {
          "internalType": "string",
          "name": "_password",
          "type": "string"
        }
      ],
      "name": "registerDoctor",
      "outputs": [],
      "stateMutability": "nonpayable",
      "type": "function"
    },
    {
      "inputs": [],
      "name": "getPublicDoctorList",
      "outputs": [
        {
          "internalType": "string[]",
          "name": "",
          "type": "string[]"
        }
      ],
      "stateMutability": "view",
      "type": "function",
      "constant": true
    },
    {
      "inputs": [
        {
          "internalType": "string",
          "name": "_hhNumber",
          "type": "string"
        }
      ],
      "name": "isRegisteredDoctor",
      "outputs": [
        {
          "internalType": "bool",
          "name": "",
          "type": "bool"
        }
      ],
      "stateMutability": "view",
      "type": "function",
      "constant": true
    },
    {
      "inputs": [
        {
          "internalType": "string",
          "name": "_hhNumber",
          "type": "string"
        }
      ],
      "name": "getDoctorDetails",
      "outputs": [
        {
          "internalType": "address",
          "name": "",
          "type": "address"
        },
        {
          "internalType": "string",
          "name": "",
          "type": "string"
        },
        {
          "internalType": "string",
          "name": "",
          "type": "string"
        },
        {
          "internalType": "string",
          "name": "",
          "type": "string"
        },
        {
          "internalType": "string",
          "name": "",
          "type": "string"
        },
        {
          "internalType": "string",
          "name": "",
          "type": "string"
        },
        {
          "internalType": "string",
          "name": "",
          "type": "string"
        },
        {
          "internalType": "string",
          "name": "",
          "type": "string"
        },
        {
          "internalType": "string",
          "name": "",
          "type": "string"
        },
        {
          "internalType": "string",
          "name": "",
          "type": "string"
        }
      ],
      "stateMutability": "view",
      "type": "function",
      "constant": true
    },
    {
      "inputs": [
        {
          "internalType": "string",
          "name": "_hhNumber",
          "type": "string"
        },
        {
          "internalType": "string",
          "name": "_password",
          "type": "string"
        }
      ],
      "name": "validatePassword",
      "outputs": [
        {
          "internalType": "bool",
          "name": "",
          "type": "bool"
        }
      ],
      "stateMutability": "view",
      "type": "function",
      "constant": true
    },
    {
      "inputs": [
        {
          "internalType": "string",
          "name": "_patientNumber",
          "type": "string"
        },
        {
          "internalType": "string",
          "name": "_doctorNumber",
          "type": "string"
        },
        {
          "internalType": "string",
          "name": "_patientName",
          "type": "string"
        }
      ],
      "name": "grantPermission",
      "outputs": [],
      "stateMutability": "nonpayable",
      "type": "function"
    },
    {
      "inputs": [
        {
          "internalType": "string",
          "name": "_patientNumber",
          "type": "string"
        },
        {
          "internalType": "string",
          "name": "_doctorNumber",
          "type": "string"
        },
        {
          "internalType": "string",
          "name": "_patientName",
          "type": "string"
        }
      ],
      "name": "externalGrantFromPatient",
      "outputs": [],
      "stateMutability": "nonpayable",
      "type": "function"
    },
    {
      "inputs": [
        {
          "internalType": "string",
          "name": "_patientNumber",
          "type": "string"
        },
        {
          "internalType": "string",
          "name": "_doctorNumber",
          "type": "string"
        }
      ],
      "name": "isPermissionGranted",
      "outputs": [
        {
          "internalType": "bool",
          "name": "",
          "type": "bool"
        }
      ],
      "stateMutability": "view",
      "type": "function",
      "constant": true
    },
    {
      "inputs": [
        {
          "internalType": "string",
          "name": "_patientNumber",
          "type": "string"
        },
        {
          "internalType": "string",
          "name": "_doctorNumber",
          "type": "string"
        }
      ],
      "name": "revokePermission",
      "outputs": [],
      "stateMutability": "nonpayable",
      "type": "function"
    },
    {
      "inputs": [
        {
          "internalType": "string",
          "name": "_patientNumber",
          "type": "string"
        }
      ],
      "name": "removePatient",
      "outputs": [],
      "stateMutability": "nonpayable",
      "type": "function"
    },
    {
      "inputs": [
        {
          "internalType": "string",
          "name": "_doctorNumber",
          "type": "string"
        }
      ],
      "name": "getPatientList",
      "outputs": [
        {
          "components": [
            {
              "internalType": "string",
              "name": "patient_number",
              "type": "string"
            },
            {
              "internalType": "string",
              "name": "patient_name",
              "type": "string"
            }
          ],
          "internalType": "struct DoctorRegistration.PatientList[]",
          "name": "",
          "type": "tuple[]"
        }
      ],
      "stateMutability": "view",
      "type": "function",
      "constant": true
    },
    {
      "inputs": [
        {
          "internalType": "address",
          "name": "_addr",
          "type": "address"
        }
      ],
      "name": "getDoctorNumberByAddress",
      "outputs": [
        {
          "internalType": "string",
          "name": "",
          "type": "string"
        }
      ],
      "stateMutability": "view",
      "type": "function",
      "constant": true
    }
  ],
  "bytecode": "0x608060405234801561001057600080fd5b50336000806101000a81548173ffffffffffffffffffffffffffffffffffffffff021916908373ffffffffffffffffffffffffffffffffffffffff1602179055506134de806100606000396000f3fe608060405234801561001057600080fd5b506004361061010b5760003560e01c80639d430b35116100a2578063dc279f0011610071578063dc279f00146102f5578063f0d9509014610311578063f46e049e1461032f578063f6e8e18f1461034d578063f851a4401461036b5761010b565b80639d430b3514610249578063a46bef1514610279578063ac5f9fd0146102a9578063d120c10c146102c55761010b565b80635df67040116100de5780635df67040146101b15780637babdb26146101cd57806383deaac6146101fd57806391c12f76146102195761010b565b80631cd1bd58146101105780633e7697671461012c578063443347331461016557806356cf1fc414610195575b600080fd5b61012a600480360381019061012591906121c3565b610389565b005b610146600480360381019061014191906123eb565b6107b1565b60405161015c9a999897969594939291906124f4565b60405180910390f35b61017f600480360381019061017a91906125cf565b610f8f565b60405161018c9190612662565b60405180910390f35b6101af60048036038101906101aa91906123eb565b610fea565b005b6101cb60048036038101906101c6919061267d565b611108565b005b6101e760048036038101906101e291906125cf565b61131e565b6040516101f49190612662565b60405180910390f35b6102176004803603810190610212919061267d565b611443565b005b610233600480360381019061022e91906123eb565b61163b565b6040516102409190612874565b60405180910390f35b610263600480360381019061025e91906128c2565b6117dc565b60405161027091906128ef565b60405180910390f35b610293600480360381019061028e91906123eb565b6118ad565b6040516102a09190612662565b60405180910390f35b6102c360048036038101906102be91906125cf565b611924565b005b6102df60048036038101906102da91906125cf565b611c5e565b6040516102ec9190612662565b60405180910390f35b61030f600480360381019061030a91906128c2565b611cb0565b005b610319611d82565b60405161032691906129d3565b60405180910390f35b610337611ee9565b60405161034491906129d3565b60405180910390f35b610355611fc2565b60405161036291906129f5565b60405180910390f35b610373611fe8565b60405161038091906129f5565b60405180910390f35b600073ffffffffffffffffffffffffffffffffffffffff166002876040516103b19190612a4c565b908152602001604051809103902060009054906101000a900473ffffffffffffffffffffffffffffffffffffffff1673ffffffffffffffffffffffffffffffffffffffff1614610436576040517f08c379a000000000000000000000000000000000000000000000000000000000815260040161042d90612aaf565b60405180910390fd5b6000600360003373ffffffffffffffffffffffffffffffffffffffff1673ffffffffffffffffffffffffffffffffffffffff168152602001908152602001600020805461048290612afe565b9050146104c4576040517f08c379a00000000000000000000000000000000000000000000000000000000081526004016104bb90612b7b565b60405180910390fd5b6040518061018001604052803373ffffffffffffffffffffffffffffffffffffffff1681526020018c81526020018b81526020018a81526020018981526020018881526020018781526020018681526020018581526020018481526020018381526020018281525060048760405161053c9190612a4c565b908152602001604051809103902060008201518160000160006101000a81548173ffffffffffffffffffffffffffffffffffffffff021916908373ffffffffffffffffffffffffffffffffffffffff16021790555060208201518160010190816105a69190612d51565b5060408201518160020190816105bc9190612d51565b5060608201518160030190816105d29190612d51565b5060808201518160040190816105e89190612d51565b5060a08201518160050190816105fe9190612d51565b5060c08201518160060190816106149190612d51565b5060e082015181600701908161062a9190612d51565b506101008201518160080190816106419190612d51565b506101208201518160090190816106589190612d51565b5061014082015181600a01908161066f9190612d51565b5061016082015181600b0190816106869190612d51565b509050506001869080600181540180825580915050600190039060005260206000200160009091909190915090816106be9190612d51565b50336002876040516106d09190612a4c565b908152602001604051809103902060006101000a81548173ffffffffffffffffffffffffffffffffffffffff021916908373ffffffffffffffffffffffffffffffffffffffff16021790555085600360003373ffffffffffffffffffffffffffffffffffffffff1673ffffffffffffffffffffffffffffffffffffffff16815260200190815260200160002090816107689190612d51565b507f8d3f9c8a09dcd94bc9c847110caac40824996b777a45809b38b82b9aa3f71ec8868c3360405161079c93929190612e23565b60405180910390a15050505050505050505050565b60006060806060806060806060806060600073ffffffffffffffffffffffffffffffffffffffff1660028c6040516107e99190612a4c565b908152602001604051809103902060009054906101000a900473ffffffffffffffffffffffffffffffffffffffff1673ffffffffffffffffffffffffffffffffffffffff160361086e576040517f08c379a000000000000000000000000000000000000000000000000000000000815260040161086590612eb4565b60405180910390fd5b600060048c6040516108809190612a4c565b9081526020016040518091039020604051806101800160405290816000820160009054906101000a900473ffffffffffffffffffffffffffffffffffffffff1673ffffffffffffffffffffffffffffffffffffffff1673ffffffffffffffffffffffffffffffffffffffff16815260200160018201805461090090612afe565b80601f016020809104026020016040519081016040528092919081815260200182805461092c90612afe565b80156109795780601f1061094e57610100808354040283529160200191610979565b820191906000526020600020905b81548152906001019060200180831161095c57829003601f168201915b5050505050815260200160028201805461099290612afe565b80601f01602080910402602001604051908101604052809291908181526020018280546109be90612afe565b8015610a0b5780601f106109e057610100808354040283529160200191610a0b565b820191906000526020600020905b8154815290600101906020018083116109ee57829003601f168201915b50505050508152602001600382018054610a2490612afe565b80601f0160208091040260200160405190810160405280929190818152602001828054610a5090612afe565b8015610a9d5780601f10610a7257610100808354040283529160200191610a9d565b820191906000526020600020905b815481529060010190602001808311610a8057829003601f168201915b50505050508152602001600482018054610ab690612afe565b80601f0160208091040260200160405190810160405280929190818152602001828054610ae290612afe565b8015610b2f5780601f10610b0457610100808354040283529160200191610b2f565b820191906000526020600020905b815481529060010190602001808311610b1257829003601f168201915b50505050508152602001600582018054610b4890612afe565b80601f0160208091040260200160405190810160405280929190818152602001828054610b7490612afe565b8015610bc15780601f10610b9657610100808354040283529160200191610bc1565b820191906000526020600020905b815481529060010190602001808311610ba457829003601f168201915b50505050508152602001600682018054610bda90612afe565b80601f0160208091040260200160405190810160405280929190818152602001828054610c0690612afe565b8015610c535780601f10610c2857610100808354040283529160200191610c53565b820191906000526020600020905b815481529060010190602001808311610c3657829003601f168201915b50505050508152602001600782018054610c6c90612afe565b80601f0160208091040260200160405190810160405280929190818152602001828054610c9890612afe565b8015610ce55780601f10610cba57610100808354040283529160200191610ce5565b820191906000526020600020905b815481529060010190602001808311610cc857829003601f168201915b50505050508152602001600882018054610cfe90612afe565b80601f0160208091040260200160405190810160405280929190818152602001828054610d2a90612afe565b8015610d775780601f10610d4c57610100808354040283529160200191610d77565b820191906000526020600020905b815481529060010190602001808311610d5a57829003601f168201915b50505050508152602001600982018054610d9090612afe565b80601f0160208091040260200160405190810160405280929190818152602001828054610dbc90612afe565b8015610e095780601f10610dde57610100808354040283529160200191610e09565b820191906000526020600020905b815481529060010190602001808311610dec57829003601f168201915b50505050508152602001600a82018054610e2290612afe565b80601f0160208091040260200160405190810160405280929190818152602001828054610e4e90612afe565b8015610e9b5780601f10610e7057610100808354040283529160200191610e9b565b820191906000526020600020905b815481529060010190602001808311610e7e57829003601f168201915b50505050508152602001600b82018054610eb490612afe565b80601f0160208091040260200160405190810160405280929190818152602001828054610ee090612afe565b8015610f2d5780601f10610f0257610100808354040283529160200191610f2d565b820191906000526020600020905b815481529060010190602001808311610f1057829003601f168201915b5050505050815250509050806000015181602001518260400151836060015184608001518560a001518660e001518761010001518861012001518961014001519a509a509a509a509a509a509a509a509a509a50509193959799509193959799565b600682805160208101820180518482526020830160208501208183528095505050505050818051602081018201805184825260208301602085012081835280955050505050506000915091509054906101000a900460ff1681565b6000600360003373ffffffffffffffffffffffffffffffffffffffff1673ffffffffffffffffffffffffffffffffffffffff168152602001908152602001600020805461103690612afe565b80601f016020809104026020016040519081016040528092919081815260200182805461106290612afe565b80156110af5780601f10611084576101008083540402835291602001916110af565b820191906000526020600020905b81548152906001019060200180831161109257829003601f168201915b5050505050905060008151116110fa576040517f08c379a00000000000000000000000000000000000000000000000000000000081526004016110f190612f46565b60405180910390fd5b6111048282611924565b5050565b813373ffffffffffffffffffffffffffffffffffffffff166002826040516111309190612a4c565b908152602001604051809103902060009054906101000a900473ffffffffffffffffffffffffffffffffffffffff1673ffffffffffffffffffffffffffffffffffffffff16146111b5576040517f08c379a00000000000000000000000000000000000000000000000000000000081526004016111ac90612fb2565b60405180910390fd5b6006846040516111c59190612a4c565b9081526020016040518091039020836040516111e19190612a4c565b908152602001604051809103902060009054906101000a900460ff16611318576005836040516112119190612a4c565b9081526020016040518091039020604051806040016040528086815260200184815250908060018154018082558091505060019003906000526020600020906002020160009091909190915060008201518160000190816112729190612d51565b5060208201518160010190816112889190612d51565b505050600160068560405161129d9190612a4c565b9081526020016040518091039020846040516112b99190612a4c565b908152602001604051809103902060006101000a81548160ff0219169083151502179055507f995f2970a2ea0d66cc2150b5c93e3c413df023b5b88534d66259c9c3c6dac86a838560405161130f929190612fd2565b60405180910390a15b50505050565b60008073ffffffffffffffffffffffffffffffffffffffff166002846040516113479190612a4c565b908152602001604051809103902060009054906101000a900473ffffffffffffffffffffffffffffffffffffffff1673ffffffffffffffffffffffffffffffffffffffff16036113cc576040517f08c379a00000000000000000000000000000000000000000000000000000000081526004016113c390612eb4565b60405180910390fd5b6004836040516113dc9190612a4c565b9081526020016040518091039020600b016040516020016113fd919061308c565b60405160208183030381529060405280519060200120826040516020016114249190612a4c565b6040516020818303038152906040528051906020012014905092915050565b600760009054906101000a900473ffffffffffffffffffffffffffffffffffffffff1673ffffffffffffffffffffffffffffffffffffffff163373ffffffffffffffffffffffffffffffffffffffff16146114d3576040517f08c379a00000000000000000000000000000000000000000000000000000000081526004016114ca906130ef565b60405180910390fd5b6006836040516114e39190612a4c565b9081526020016040518091039020826040516114ff9190612a4c565b908152602001604051809103902060009054906101000a900460ff166116365760058260405161152f9190612a4c565b9081526020016040518091039020604051806040016040528085815260200183815250908060018154018082558091505060019003906000526020600020906002020160009091909190915060008201518160000190816115909190612d51565b5060208201518160010190816115a69190612d51565b50505060016006846040516115bb9190612a4c565b9081526020016040518091039020836040516115d79190612a4c565b908152602001604051809103902060006101000a81548160ff0219169083151502179055507f995f2970a2ea0d66cc2150b5c93e3c413df023b5b88534d66259c9c3c6dac86a828460405161162d929190612fd2565b60405180910390a15b505050565b606060058260405161164d9190612a4c565b9081526020016040518091039020805480602002602001604051908101604052809291908181526020016000905b828210156117d157838290600052602060002090600202016040518060400160405290816000820180546116ae90612afe565b80601f01602080910402602001604051908101604052809291908181526020018280546116da90612afe565b80156117275780601f106116fc57610100808354040283529160200191611727565b820191906000526020600020905b81548152906001019060200180831161170a57829003601f168201915b5050505050815260200160018201805461174090612afe565b80601f016020809104026020016040519081016040528092919081815260200182805461176c90612afe565b80156117b95780601f1061178e576101008083540402835291602001916117b9565b820191906000526020600020905b81548152906001019060200180831161179c57829003601f168201915b5050505050815250508152602001906001019061167b565b505050509050919050565b6060600360008373ffffffffffffffffffffffffffffffffffffffff1673ffffffffffffffffffffffffffffffffffffffff168152602001908152602001600020805461182890612afe565b80601f016020809104026020016040519081016040528092919081815260200182805461185490612afe565b80156118a15780601f10611876576101008083540402835291602001916118a1565b820191906000526020600020905b81548152906001019060200180831161188457829003601f168201915b50505050509050919050565b60008073ffffffffffffffffffffffffffffffffffffffff166002836040516118d69190612a4c565b908152602001604051809103902060009054906101000a900473ffffffffffffffffffffffffffffffffffffffff1673ffffffffffffffffffffffffffffffffffffffff1614159050919050565b803373ffffffffffffffffffffffffffffffffffffffff1660028260405161194c9190612a4c565b908152602001604051809103902060009054906101000a900473ffffffffffffffffffffffffffffffffffffffff1673ffffffffffffffffffffffffffffffffffffffff16146119d1576040517f08c379a00000000000000000000000000000000000000000000000000000000081526004016119c890612fb2565b60405180910390fd5b6006836040516119e19190612a4c565b9081526020016040518091039020826040516119fd9190612a4c565b908152602001604051809103902060009054906101000a900460ff16611a58576040517f08c379a0000000000000000000000000000000000000000000000000000000008152600401611a4f9061315b565b60405180910390fd5b6000600684604051611a6a9190612a4c565b908152602001604051809103902083604051611a869190612a4c565b908152602001604051809103902060006101000a81548160ff0219169083151502179055506000600583604051611abd9190612a4c565b9081526020016040518091039020905060008180549050905060005b81811015611c55578580519060200120838281548110611afc57611afb61317b565b5b9060005260206000209060020201600001604051611b1a919061324d565b604051809103902003611c4257600182611b349190613293565b811015611bb75782600183611b499190613293565b81548110611b5a57611b5961317b565b5b9060005260206000209060020201838281548110611b7b57611b7a61317b565b5b906000526020600020906002020160008201816000019081611b9d91906132dd565b5060018201816001019081611bb291906132dd565b509050505b82805480611bc857611bc76133c5565b5b600190038181906000526020600020906002020160008082016000611bed919061200c565b600182016000611bfd919061200c565b505090557f213e0e506c4dc293f81607cd7c386e8054c30488dec51469ff3fddcc5f3ad70c8587604051611c32929190612fd2565b60405180910390a1505050611c59565b8080611c4d906133f4565b915050611ad9565b5050505b505050565b6000600683604051611c709190612a4c565b908152602001604051809103902082604051611c8c9190612a4c565b908152602001604051809103902060009054906101000a900460ff16905092915050565b60008054906101000a900473ffffffffffffffffffffffffffffffffffffffff1673ffffffffffffffffffffffffffffffffffffffff163373ffffffffffffffffffffffffffffffffffffffff1614611d3e576040517f08c379a0000000000000000000000000000000000000000000000000000000008152600401611d3590613488565b60405180910390fd5b80600760006101000a81548173ffffffffffffffffffffffffffffffffffffffff021916908373ffffffffffffffffffffffffffffffffffffffff16021790555050565b606060008054906101000a900473ffffffffffffffffffffffffffffffffffffffff1673ffffffffffffffffffffffffffffffffffffffff163373ffffffffffffffffffffffffffffffffffffffff1614611e12576040517f08c379a0000000000000000000000000000000000000000000000000000000008152600401611e0990613488565b60405180910390fd5b6001805480602002602001604051908101604052809291908181526020016000905b82821015611ee0578382906000526020600020018054611e5390612afe565b80601f0160208091040260200160405190810160405280929190818152602001828054611e7f90612afe565b8015611ecc5780601f10611ea157610100808354040283529160200191611ecc565b820191906000526020600020905b815481529060010190602001808311611eaf57829003601f168201915b505050505081526020019060010190611e34565b50505050905090565b60606001805480602002602001604051908101604052809291908181526020016000905b82821015611fb9578382906000526020600020018054611f2c90612afe565b80601f0160208091040260200160405190810160405280929190818152602001828054611f5890612afe565b8015611fa55780601f10611f7a57610100808354040283529160200191611fa5565b820191906000526020600020905b815481529060010190602001808311611f8857829003601f168201915b505050505081526020019060010190611f0d565b50505050905090565b600760009054906101000a900473ffffffffffffffffffffffffffffffffffffffff1681565b60008054906101000a900473ffffffffffffffffffffffffffffffffffffffff1681565b50805461201890612afe565b6000825580601f1061202a5750612049565b601f016020900490600052602060002090810190612048919061204c565b5b50565b5b8082111561206557600081600090555060010161204d565b5090565b6000604051905090565b600080fd5b600080fd5b600080fd5b600080fd5b6000601f19601f8301169050919050565b7f4e487b7100000000000000000000000000000000000000000000000000000000600052604160045260246000fd5b6120d082612087565b810181811067ffffffffffffffff821117156120ef576120ee612098565b5b80604052505050565b6000612102612069565b905061210e82826120c7565b919050565b600067ffffffffffffffff82111561212e5761212d612098565b5b61213782612087565b9050602081019050919050565b82818337600083830152505050565b600061216661216184612113565b6120f8565b90508281526020810184848401111561218257612181612082565b5b61218d848285612144565b509392505050565b600082601f8301126121aa576121a961207d565b5b81356121ba848260208601612153565b91505092915050565b60008060008060008060008060008060006101608c8e0312156121e9576121e8612073565b5b60008c013567ffffffffffffffff81111561220757612206612078565b5b6122138e828f01612195565b9b505060208c013567ffffffffffffffff81111561223457612233612078565b5b6122408e828f01612195565b9a505060408c013567ffffffffffffffff81111561226157612260612078565b5b61226d8e828f01612195565b99505060608c013567ffffffffffffffff81111561228e5761228d612078565b5b61229a8e828f01612195565b98505060808c013567ffffffffffffffff8111156122bb576122ba612078565b5b6122c78e828f01612195565b97505060a08c013567ffffffffffffffff8111156122e8576122e7612078565b5b6122f48e828f01612195565b96505060c08c013567ffffffffffffffff81111561231557612314612078565b5b6123218e828f01612195565b95505060e08c013567ffffffffffffffff81111561234257612341612078565b5b61234e8e828f01612195565b9450506101008c013567ffffffffffffffff8111156123705761236f612078565b5b61237c8e828f01612195565b9350506101208c013567ffffffffffffffff81111561239e5761239d612078565b5b6123aa8e828f01612195565b9250506101408c013567ffffffffffffffff8111156123cc576123cb612078565b5b6123d88e828f01612195565b9150509295989b509295989b9093969950565b60006020828403121561240157612400612073565b5b600082013567ffffffffffffffff81111561241f5761241e612078565b5b61242b84828501612195565b91505092915050565b600073ffffffffffffffffffffffffffffffffffffffff82169050919050565b600061245f82612434565b9050919050565b61246f81612454565b82525050565b600081519050919050565b600082825260208201905092915050565b60005b838110156124af578082015181840152602081019050612494565b60008484015250505050565b60006124c682612475565b6124d08185612480565b93506124e0818560208601612491565b6124e981612087565b840191505092915050565b60006101408201905061250a600083018d612466565b818103602083015261251c818c6124bb565b90508181036040830152612530818b6124bb565b90508181036060830152612544818a6124bb565b9050818103608083015261255881896124bb565b905081810360a083015261256c81886124bb565b905081810360c083015261258081876124bb565b905081810360e083015261259481866124bb565b90508181036101008301526125a981856124bb565b90508181036101208301526125be81846124bb565b90509b9a5050505050505050505050565b600080604083850312156125e6576125e5612073565b5b600083013567ffffffffffffffff81111561260457612603612078565b5b61261085828601612195565b925050602083013567ffffffffffffffff81111561263157612630612078565b5b61263d85828601612195565b9150509250929050565b60008115159050919050565b61265c81612647565b82525050565b60006020820190506126776000830184612653565b92915050565b60008060006060848603121561269657612695612073565b5b600084013567ffffffffffffffff8111156126b4576126b3612078565b5b6126c086828701612195565b935050602084013567ffffffffffffffff8111156126e1576126e0612078565b5b6126ed86828701612195565b925050604084013567ffffffffffffffff81111561270e5761270d612078565b5b61271a86828701612195565b9150509250925092565b600081519050919050565b600082825260208201905092915050565b6000819050602082019050919050565b600082825260208201905092915050565b600061276c82612475565b6127768185612750565b9350612786818560208601612491565b61278f81612087565b840191505092915050565b600060408301600083015184820360008601526127b78282612761565b915050602083015184820360208601526127d18282612761565b9150508091505092915050565b60006127ea838361279a565b905092915050565b6000602082019050919050565b600061280a82612724565b612814818561272f565b93508360208202850161282685612740565b8060005b85811015612862578484038952815161284385826127de565b945061284e836127f2565b925060208a0199505060018101905061282a565b50829750879550505050505092915050565b6000602082019050818103600083015261288e81846127ff565b905092915050565b61289f81612454565b81146128aa57600080fd5b50565b6000813590506128bc81612896565b92915050565b6000602082840312156128d8576128d7612073565b5b60006128e6848285016128ad565b91505092915050565b6000602082019050818103600083015261290981846124bb565b905092915050565b600081519050919050565b600082825260208201905092915050565b6000819050602082019050919050565b60006129498383612761565b905092915050565b6000602082019050919050565b600061296982612911565b612973818561291c565b9350836020820285016129858561292d565b8060005b858110156129c157848403895281516129a2858261293d565b94506129ad83612951565b925060208a01995050600181019050612989565b50829750879550505050505092915050565b600060208201905081810360008301526129ed818461295e565b905092915050565b6000602082019050612a0a6000830184612466565b92915050565b600081905092915050565b6000612a2682612475565b612a308185612a10565b9350612a40818560208601612491565b80840191505092915050565b6000612a588284612a1b565b915081905092915050565b7f446f63746f7220616c7265616479207265676973746572656400000000000000600082015250565b6000612a99601983612480565b9150612aa482612a63565b602082019050919050565b60006020820190508181036000830152612ac881612a8c565b9050919050565b7f4e487b7100000000000000000000000000000000000000000000000000000000600052602260045260246000fd5b60006002820490506001821680612b1657607f821691505b602082108103612b2957612b28612acf565b5b50919050565b7f4164647265737320616c72656164792072656769737465726564000000000000600082015250565b6000612b65601a83612480565b9150612b7082612b2f565b602082019050919050565b60006020820190508181036000830152612b9481612b58565b9050919050565b60008190508160005260206000209050919050565b60006020601f8301049050919050565b600082821b905092915050565b600060088302612bfd7fffffffffffffffffffffffffffffffffffffffffffffffffffffffffffffffff82612bc0565b612c078683612bc0565b95508019841693508086168417925050509392505050565b6000819050919050565b6000819050919050565b6000612c4e612c49612c4484612c1f565b612c29565b612c1f565b9050919050565b6000819050919050565b612c6883612c33565b612c7c612c7482612c55565b848454612bcd565b825550505050565b600090565b612c91612c84565b612c9c818484612c5f565b505050565b5b81811015612cc057612cb5600082612c89565b600181019050612ca2565b5050565b601f821115612d0557612cd681612b9b565b612cdf84612bb0565b81016020851015612cee578190505b612d02612cfa85612bb0565b830182612ca1565b50505b505050565b600082821c905092915050565b6000612d2860001984600802612d0a565b1980831691505092915050565b6000612d418383612d17565b9150826002028217905092915050565b612d5a82612475565b67ffffffffffffffff811115612d7357612d72612098565b5b612d7d8254612afe565b612d88828285612cc4565b600060209050601f831160018114612dbb5760008415612da9578287015190505b612db38582612d35565b865550612e1b565b601f198416612dc986612b9b565b60005b82811015612df157848901518255600182019150602085019450602081019050612dcc565b86831015612e0e5784890151612e0a601f891682612d17565b8355505b6001600288020188555050505b505050505050565b60006060820190508181036000830152612e3d81866124bb565b90508181036020830152612e5181856124bb565b9050612e606040830184612466565b949350505050565b7f446f63746f72206e6f7420726567697374657265640000000000000000000000600082015250565b6000612e9e601583612480565b9150612ea982612e68565b602082019050919050565b60006020820190508181036000830152612ecd81612e91565b9050919050565b7f43616c6c6572206973206e6f742061207265676973746572656420646f63746f60008201527f7200000000000000000000000000000000000000000000000000000000000000602082015250565b6000612f30602183612480565b9150612f3b82612ed4565b604082019050919050565b60006020820190508181036000830152612f5f81612f23565b9050919050565b7f556e617574686f72697a65643a204e6f742074686520646f63746f7200000000600082015250565b6000612f9c601c83612480565b9150612fa782612f66565b602082019050919050565b60006020820190508181036000830152612fcb81612f8f565b9050919050565b60006040820190508181036000830152612fec81856124bb565b9050818103602083015261300081846124bb565b90509392505050565b6000815461301681612afe565b6130208186612a10565b9450600182166000811461303b576001811461305057613083565b60ff1983168652811515820286019350613083565b61305985612b9b565b60005b8381101561307b5781548189015260018201915060208101905061305c565b838801955050505b50505092915050565b60006130988284613009565b915081905092915050565b7f556e617574686f72697a65642063616c6c657200000000000000000000000000600082015250565b60006130d9601383612480565b91506130e4826130a3565b602082019050919050565b60006020820190508181036000830152613108816130cc565b9050919050565b7f5065726d697373696f6e206e6f74206772616e74656400000000000000000000600082015250565b6000613145601683612480565b91506131508261310f565b602082019050919050565b6000602082019050818103600083015261317481613138565b9050919050565b7f4e487b7100000000000000000000000000000000000000000000000000000000600052603260045260246000fd5b600081905092915050565b60008190508160005260206000209050919050565b600081546131d781612afe565b6131e181866131aa565b945060018216600081146131fc576001811461321157613244565b60ff1983168652811515820286019350613244565b61321a856131b5565b60005b8381101561323c5781548189015260018201915060208101905061321d565b838801955050505b50505092915050565b600061325982846131ca565b915081905092915050565b7f4e487b7100000000000000000000000000000000000000000000000000000000600052601160045260246000fd5b600061329e82612c1f565b91506132a983612c1f565b92508282039050818111156132c1576132c0613264565b5b92915050565b6000815490506132d681612afe565b9050919050565b8181036132eb5750506133c3565b6132f4826132c7565b67ffffffffffffffff81111561330d5761330c612098565b5b6133178254612afe565b613322828285612cc4565b6000601f831160018114613351576000841561333f578287015490505b6133498582612d35565b8655506133bc565b601f19841661335f87612b9b565b965061336a86612b9b565b60005b828110156133925784890154825560018201915060018501945060208101905061336d565b868310156133af57848901546133ab601f891682612d17565b8355505b6001600288020188555050505b5050505050505b565b7f4e487b7100000000000000000000000000000000000000000000000000000000600052603160045260246000fd5b60006133ff82612c1f565b91507fffffffffffffffffffffffffffffffffffffffffffffffffffffffffffffffff820361343157613430613264565b5b600182019050919050565b7f4f6e6c792061646d696e2063616e2063616c6c20746869730000000000000000600082015250565b6000613472601883612480565b915061347d8261343c565b602082019050919050565b600060208201905081810360008301526134a181613465565b905091905056fea2646970667358221220f8eb5703fe69cb0d07d97fdc4f10f7aa57d12a6ccce0f5dc03d8cc29282521a264736f6c63430008130033",
  "immutableReferences": {},
  "source": "//DoctorRegistration.sol\r\n\r\n// SPDX-License-Identifier: MIT\r\npragma solidity ^0.8.19;\r\n\r\ncontract DoctorRegistration {\r\n    struct Doctor {\r\n        address walletAddress;\r\n        string doctorName;\r\n        string hospitalName;\r\n        string dateOfBirth;\r\n        string gender;\r\n        string email;\r\n        string hhNumber;\r\n        string specialization;\r\n        string department;\r\n        string designation;\r\n        string workExperience;\r\n        string password;\r\n    }\r\n\r\n    struct PatientList {\r\n        string patient_number;\r\n        string patient_name;\r\n    }\r\n    \r\n    address public admin;\r\n    string[] private doctorList;\r\n    \r\n    mapping(string => address) private doctorAddresses;\r\n    mapping(address => string) private addressToDoctorNumber;\r\n    mapping(string => Doctor) private doctors;\r\n    mapping(string => PatientList[]) private Dpermission;\r\n    mapping(string => mapping(string => bool)) public doctorPermissions;\r\n\r\n    address public patientContract;\r\n\r\n    event DoctorRegistered(string hhNumber, string doctorName, address walletAddress);\r\n    event PermissionGranted(string doctorNumber, string patientNumber);\r\n    event PermissionRevoked(string doctorNumber, string patientNumber);\r\n\r\n    modifier onlyAdmin() {\r\n        require(msg.sender == admin, \"Only admin can call this\");\r\n        _;\r\n    }\r\n\r\n    modifier onlyDoctor(string memory _doctorNumber) {\r\n        require(doctorAddresses[_doctorNumber] == msg.sender, \"Unauthorized: Not the doctor\");\r\n        _;\r\n    }\r\n\r\n    modifier onlyPatientContract() {\r\n        require(msg.sender == patientContract, \"Unauthorized caller\");\r\n        _;\r\n    }\r\n\r\n    constructor() {\r\n        admin = msg.sender;\r\n    }\r\n\r\n    function setPatientContract(address _addr) external onlyAdmin {\r\n        patientContract = _addr;\r\n    }\r\n\r\n    function getAllDoctors() external view onlyAdmin returns (string[] memory) {\r\n        return doctorList;\r\n    }\r\n\r\n    function registerDoctor(\r\n        string memory _doctorName,\r\n        string memory _hospitalName,\r\n        string memory _dateOfBirth,\r\n        string memory _gender,\r\n        string memory _email,\r\n        string memory _hhNumber,\r\n        string memory _specialization,\r\n        string memory _department,\r\n        string memory _designation,\r\n        string memory _workExperience,\r\n        string memory _password\r\n    ) external {\r\n        require(doctorAddresses[_hhNumber] == address(0), \"Doctor already registered\");\r\n        require(bytes(addressToDoctorNumber[msg.sender]).length == 0, \"Address already registered\");\r\n\r\n        doctors[_hhNumber] = Doctor({\r\n            walletAddress: msg.sender,\r\n            doctorName: _doctorName,\r\n            hospitalName: _hospitalName,\r\n            dateOfBirth: _dateOfBirth,\r\n            gender: _gender,\r\n            email: _email,\r\n            hhNumber: _hhNumber,\r\n            specialization: _specialization,\r\n            department: _department,\r\n            designation: _designation,\r\n            workExperience: _workExperience,\r\n            password: _password\r\n        });\r\n        \r\n        doctorList.push(_hhNumber);\r\n        doctorAddresses[_hhNumber] = msg.sender;\r\n        addressToDoctorNumber[msg.sender] = _hhNumber;\r\n        emit DoctorRegistered(_hhNumber, _doctorName, msg.sender);\r\n    }\r\n    function getPublicDoctorList() external view returns (string[] memory) {\r\n    return doctorList;\r\n}\r\n\r\n    function isRegisteredDoctor(string memory _hhNumber) external view returns (bool) {\r\n        return doctorAddresses[_hhNumber] != address(0);\r\n    }\r\n\r\n    function getDoctorDetails(string memory _hhNumber) external view returns (\r\n        address,\r\n        string memory,\r\n        string memory,\r\n        string memory,\r\n        string memory,\r\n        string memory,\r\n        string memory,\r\n        string memory,\r\n        string memory,\r\n        string memory\r\n    ) {\r\n        require(doctorAddresses[_hhNumber] != address(0), \"Doctor not registered\");\r\n        Doctor memory doctor = doctors[_hhNumber];\r\n        return (\r\n            doctor.walletAddress,\r\n            doctor.doctorName,\r\n            doctor.hospitalName,\r\n            doctor.dateOfBirth,\r\n            doctor.gender,\r\n            doctor.email,\r\n            doctor.specialization,\r\n            doctor.department,\r\n            doctor.designation,\r\n            doctor.workExperience\r\n        );\r\n    }\r\n\r\n    function validatePassword(string memory _hhNumber, string memory _password) external view returns (bool) {\r\n        require(doctorAddresses[_hhNumber] != address(0), \"Doctor not registered\");\r\n        return keccak256(abi.encodePacked(_password)) == keccak256(abi.encodePacked(doctors[_hhNumber].password));\r\n    }\r\n\r\n    function grantPermission(\r\n        string memory _patientNumber,\r\n        string memory _doctorNumber,\r\n        string memory _patientName\r\n    ) external onlyDoctor(_doctorNumber) {\r\n        if (!doctorPermissions[_patientNumber][_doctorNumber]) {\r\n            Dpermission[_doctorNumber].push(PatientList(_patientNumber, _patientName));\r\n            doctorPermissions[_patientNumber][_doctorNumber] = true;\r\n            emit PermissionGranted(_doctorNumber, _patientNumber);\r\n        }\r\n    }\r\n\r\n    function externalGrantFromPatient(\r\n        string memory _patientNumber,\r\n        string memory _doctorNumber,\r\n        string memory _patientName\r\n    ) external onlyPatientContract {\r\n        if (!doctorPermissions[_patientNumber][_doctorNumber]) {\r\n            Dpermission[_doctorNumber].push(PatientList(_patientNumber, _patientName));\r\n            doctorPermissions[_patientNumber][_doctorNumber] = true;\r\n            emit PermissionGranted(_doctorNumber, _patientNumber);\r\n        }\r\n    }\r\n\r\n    function isPermissionGranted(string memory _patientNumber, string memory _doctorNumber) external view returns (bool) {\r\n        return doctorPermissions[_patientNumber][_doctorNumber];\r\n    }\r\n\r\n    function revokePermission(string memory _patientNumber, string memory _doctorNumber) public onlyDoctor(_doctorNumber) {\r\n        require(doctorPermissions[_patientNumber][_doctorNumber], \"Permission not granted\");\r\n        \r\n        doctorPermissions[_patientNumber][_doctorNumber] = false;\r\n\r\n        PatientList[] storage patients = Dpermission[_doctorNumber];\r\n        uint256 length = patients.length;\r\n        \r\n        for (uint256 i = 0; i < length; i++) {\r\n            if (keccak256(bytes(patients[i].patient_number)) == keccak256(bytes(_patientNumber))) {\r\n                if (i < length - 1) {\r\n                    patients[i] = patients[length - 1];\r\n                }\r\n                patients.pop();\r\n                emit PermissionRevoked(_doctorNumber, _patientNumber);\r\n                return;\r\n            }\r\n        }\r\n    }\r\n\r\n    function removePatient(string memory _patientNumber) external {\r\n        string memory doctorNumber = addressToDoctorNumber[msg.sender];\r\n        require(bytes(doctorNumber).length > 0, \"Caller is not a registered doctor\");\r\n        revokePermission(_patientNumber, doctorNumber);\r\n    }\r\n\r\n    function getPatientList(string memory _doctorNumber) public view returns (PatientList[] memory) {\r\n        return Dpermission[_doctorNumber];\r\n    }\r\n\r\n    function getDoctorNumberByAddress(address _addr) external view returns (string memory) {\r\n        return addressToDoctorNumber[_addr];\r\n    }\r\n    \r\n\r\n}",
  "sourcePath": "C:\\Users\\Asus\\Medical_Management_Blockchain_6th\\src\\contracts\\DoctorRegistration.sol",
  "compiler": {
    "name": "solc",
    "version": "0.8.19+commit.7dd6d404.Emscripten.clang"
  },
  "schemaVersion": "3.4.16",
  "updatedAt": "2025-05-28T17:42:58.763Z",
  "networkType": "ethereum",
  "devdoc": {
    "kind": "dev",
    "methods": {},
    "version": 1
  },
  "userdoc": {
    "kind": "user",
    "methods": {},
    "version": 1
  }
}