{
  "contractName": "DoctorRegistration",
  "abi": [
    {
      "anonymous": false,
      "inputs": [
        {
          "indexed": false,
          "internalType": "string",
          "name": "hhNumber",
          "type": "string"
        },
        {
          "indexed": false,
          "internalType": "string",
          "name": "doctorName",
          "type": "string"
        },
        {
          "indexed": false,
          "internalType": "address",
          "name": "walletAddress",
          "type": "address"
        }
      ],
      "name": "DoctorRegistered",
      "type": "event"
    },
    {
      "anonymous": false,
      "inputs": [
        {
          "indexed": false,
          "internalType": "string",
          "name": "doctorNumber",
          "type": "string"
        },
        {
          "indexed": false,
          "internalType": "string",
          "name": "patientNumber",
          "type": "string"
        }
      ],
      "name": "PermissionGranted",
      "type": "event"
    },
    {
      "anonymous": false,
      "inputs": [
        {
          "indexed": false,
          "internalType": "string",
          "name": "doctorNumber",
          "type": "string"
        },
        {
          "indexed": false,
          "internalType": "string",
          "name": "patientNumber",
          "type": "string"
        }
      ],
      "name": "PermissionRevoked",
      "type": "event"
    },
    {
      "inputs": [
        {
          "internalType": "string",
          "name": "",
          "type": "string"
        },
        {
          "internalType": "string",
          "name": "",
          "type": "string"
        }
      ],
      "name": "doctorPermissions",
      "outputs": [
        {
          "internalType": "bool",
          "name": "",
          "type": "bool"
        }
      ],
      "stateMutability": "view",
      "type": "function",
      "constant": true
    },
    {
      "inputs": [],
      "name": "patientContract",
      "outputs": [
        {
          "internalType": "address",
          "name": "",
          "type": "address"
        }
      ],
      "stateMutability": "view",
      "type": "function",
      "constant": true
    },
    {
      "inputs": [
        {
          "internalType": "address",
          "name": "_addr",
          "type": "address"
        }
      ],
      "name": "setPatientContract",
      "outputs": [],
      "stateMutability": "nonpayable",
      "type": "function"
    },
    {
      "inputs": [
        {
          "internalType": "string",
          "name": "_doctorName",
          "type": "string"
        },
        {
          "internalType": "string",
          "name": "_hospitalName",
          "type": "string"
        },
        {
          "internalType": "string",
          "name": "_dateOfBirth",
          "type": "string"
        },
        {
          "internalType": "string",
          "name": "_gender",
          "type": "string"
        },
        {
          "internalType": "string",
          "name": "_email",
          "type": "string"
        },
        {
          "internalType": "string",
          "name": "_hhNumber",
          "type": "string"
        },
        {
          "internalType": "string",
          "name": "_specialization",
          "type": "string"
        },
        {
          "internalType": "string",
          "name": "_department",
          "type": "string"
        },
        {
          "internalType": "string",
          "name": "_designation",
          "type": "string"
        },
        {
          "internalType": "string",
          "name": "_workExperience",
          "type": "string"
        },
        {
          "internalType": "string",
          "name": "_password",
          "type": "string"
        }
      ],
      "name": "registerDoctor",
      "outputs": [],
      "stateMutability": "nonpayable",
      "type": "function"
    },
    {
      "inputs": [
        {
          "internalType": "string",
          "name": "_hhNumber",
          "type": "string"
        }
      ],
      "name": "isRegisteredDoctor",
      "outputs": [
        {
          "internalType": "bool",
          "name": "",
          "type": "bool"
        }
      ],
      "stateMutability": "view",
      "type": "function",
      "constant": true
    },
    {
      "inputs": [
        {
          "internalType": "string",
          "name": "_hhNumber",
          "type": "string"
        }
      ],
      "name": "getDoctorDetails",
      "outputs": [
        {
          "internalType": "address",
          "name": "",
          "type": "address"
        },
        {
          "internalType": "string",
          "name": "",
          "type": "string"
        },
        {
          "internalType": "string",
          "name": "",
          "type": "string"
        },
        {
          "internalType": "string",
          "name": "",
          "type": "string"
        },
        {
          "internalType": "string",
          "name": "",
          "type": "string"
        },
        {
          "internalType": "string",
          "name": "",
          "type": "string"
        },
        {
          "internalType": "string",
          "name": "",
          "type": "string"
        },
        {
          "internalType": "string",
          "name": "",
          "type": "string"
        },
        {
          "internalType": "string",
          "name": "",
          "type": "string"
        },
        {
          "internalType": "string",
          "name": "",
          "type": "string"
        }
      ],
      "stateMutability": "view",
      "type": "function",
      "constant": true
    },
    {
      "inputs": [
        {
          "internalType": "string",
          "name": "_hhNumber",
          "type": "string"
        },
        {
          "internalType": "string",
          "name": "_password",
          "type": "string"
        }
      ],
      "name": "validatePassword",
      "outputs": [
        {
          "internalType": "bool",
          "name": "",
          "type": "bool"
        }
      ],
      "stateMutability": "view",
      "type": "function",
      "constant": true
    },
    {
      "inputs": [
        {
          "internalType": "string",
          "name": "_patientNumber",
          "type": "string"
        },
        {
          "internalType": "string",
          "name": "_doctorNumber",
          "type": "string"
        },
        {
          "internalType": "string",
          "name": "_patientName",
          "type": "string"
        }
      ],
      "name": "grantPermission",
      "outputs": [],
      "stateMutability": "nonpayable",
      "type": "function"
    },
    {
      "inputs": [
        {
          "internalType": "string",
          "name": "_patientNumber",
          "type": "string"
        },
        {
          "internalType": "string",
          "name": "_doctorNumber",
          "type": "string"
        },
        {
          "internalType": "string",
          "name": "_patientName",
          "type": "string"
        }
      ],
      "name": "externalGrantFromPatient",
      "outputs": [],
      "stateMutability": "nonpayable",
      "type": "function"
    },
    {
      "inputs": [
        {
          "internalType": "string",
          "name": "_patientNumber",
          "type": "string"
        },
        {
          "internalType": "string",
          "name": "_doctorNumber",
          "type": "string"
        }
      ],
      "name": "isPermissionGranted",
      "outputs": [
        {
          "internalType": "bool",
          "name": "",
          "type": "bool"
        }
      ],
      "stateMutability": "view",
      "type": "function",
      "constant": true
    },
    {
      "inputs": [
        {
          "internalType": "string",
          "name": "_patientNumber",
          "type": "string"
        },
        {
          "internalType": "string",
          "name": "_doctorNumber",
          "type": "string"
        }
      ],
      "name": "revokePermission",
      "outputs": [],
      "stateMutability": "nonpayable",
      "type": "function"
    },
    {
      "inputs": [
        {
          "internalType": "string",
          "name": "_patientNumber",
          "type": "string"
        }
      ],
      "name": "removePatient",
      "outputs": [],
      "stateMutability": "nonpayable",
      "type": "function"
    },
    {
      "inputs": [
        {
          "internalType": "string",
          "name": "_doctorNumber",
          "type": "string"
        }
      ],
      "name": "getPatientList",
      "outputs": [
        {
          "components": [
            {
              "internalType": "string",
              "name": "patient_number",
              "type": "string"
            },
            {
              "internalType": "string",
              "name": "patient_name",
              "type": "string"
            }
          ],
          "internalType": "struct DoctorRegistration.PatientList[]",
          "name": "",
          "type": "tuple[]"
        }
      ],
      "stateMutability": "view",
      "type": "function",
      "constant": true
    },
    {
      "inputs": [
        {
          "internalType": "address",
          "name": "_addr",
          "type": "address"
        }
      ],
      "name": "getDoctorNumberByAddress",
      "outputs": [
        {
          "internalType": "string",
          "name": "",
          "type": "string"
        }
      ],
      "stateMutability": "view",
      "type": "function",
      "constant": true
    }
  ],
  "bytecode": "0x608060405234801561001057600080fd5b50612fec806100206000396000f3fe608060405234801561001057600080fd5b50600436106100ea5760003560e01c806391c12f761161008c578063ac5f9fd011610066578063ac5f9fd014610288578063d120c10c146102a4578063dc279f00146102d4578063f6e8e18f146102f0576100ea565b806391c12f76146101f85780639d430b3514610228578063a46bef1514610258576100ea565b806356cf1fc4116100c857806356cf1fc4146101745780635df67040146101905780637babdb26146101ac57806383deaac6146101dc576100ea565b80631cd1bd58146100ef5780633e7697671461010b5780634433473314610144575b600080fd5b61010960048036038101906101049190611e21565b61030e565b005b61012560048036038101906101209190612049565b610701565b60405161013b9a99989796959493929190612152565b60405180910390f35b61015e6004803603810190610159919061222d565b610edf565b60405161016b91906122c0565b60405180910390f35b61018e60048036038101906101899190612049565b610f3a565b005b6101aa60048036038101906101a591906122db565b611058565b005b6101c660048036038101906101c1919061222d565b61126e565b6040516101d391906122c0565b60405180910390f35b6101f660048036038101906101f191906122db565b611393565b005b610212600480360381019061020d9190612049565b61158b565b60405161021f91906124d2565b60405180910390f35b610242600480360381019061023d9190612520565b61172c565b60405161024f919061254d565b60405180910390f35b610272600480360381019061026d9190612049565b6117fd565b60405161027f91906122c0565b60405180910390f35b6102a2600480360381019061029d919061222d565b611874565b005b6102be60048036038101906102b9919061222d565b611bae565b6040516102cb91906122c0565b60405180910390f35b6102ee60048036038101906102e99190612520565b611c00565b005b6102f8611c44565b604051610305919061256f565b60405180910390f35b600073ffffffffffffffffffffffffffffffffffffffff1660008760405161033691906125c6565b908152602001604051809103902060009054906101000a900473ffffffffffffffffffffffffffffffffffffffff1673ffffffffffffffffffffffffffffffffffffffff16146103bb576040517f08c379a00000000000000000000000000000000000000000000000000000000081526004016103b290612629565b60405180910390fd5b6000600160003373ffffffffffffffffffffffffffffffffffffffff1673ffffffffffffffffffffffffffffffffffffffff168152602001908152602001600020805461040790612678565b905014610449576040517f08c379a0000000000000000000000000000000000000000000000000000000008152600401610440906126f5565b60405180910390fd5b6040518061018001604052803373ffffffffffffffffffffffffffffffffffffffff1681526020018c81526020018b81526020018a8152602001898152602001888152602001878152602001868152602001858152602001848152602001838152602001828152506002876040516104c191906125c6565b908152602001604051809103902060008201518160000160006101000a81548173ffffffffffffffffffffffffffffffffffffffff021916908373ffffffffffffffffffffffffffffffffffffffff160217905550602082015181600101908161052b91906128cb565b50604082015181600201908161054191906128cb565b50606082015181600301908161055791906128cb565b50608082015181600401908161056d91906128cb565b5060a082015181600501908161058391906128cb565b5060c082015181600601908161059991906128cb565b5060e08201518160070190816105af91906128cb565b506101008201518160080190816105c691906128cb565b506101208201518160090190816105dd91906128cb565b5061014082015181600a0190816105f491906128cb565b5061016082015181600b01908161060b91906128cb565b509050503360008760405161062091906125c6565b908152602001604051809103902060006101000a81548173ffffffffffffffffffffffffffffffffffffffff021916908373ffffffffffffffffffffffffffffffffffffffff16021790555085600160003373ffffffffffffffffffffffffffffffffffffffff1673ffffffffffffffffffffffffffffffffffffffff16815260200190815260200160002090816106b891906128cb565b507f8d3f9c8a09dcd94bc9c847110caac40824996b777a45809b38b82b9aa3f71ec8868c336040516106ec9392919061299d565b60405180910390a15050505050505050505050565b60006060806060806060806060806060600073ffffffffffffffffffffffffffffffffffffffff1660008c60405161073991906125c6565b908152602001604051809103902060009054906101000a900473ffffffffffffffffffffffffffffffffffffffff1673ffffffffffffffffffffffffffffffffffffffff16036107be576040517f08c379a00000000000000000000000000000000000000000000000000000000081526004016107b590612a2e565b60405180910390fd5b600060028c6040516107d091906125c6565b9081526020016040518091039020604051806101800160405290816000820160009054906101000a900473ffffffffffffffffffffffffffffffffffffffff1673ffffffffffffffffffffffffffffffffffffffff1673ffffffffffffffffffffffffffffffffffffffff16815260200160018201805461085090612678565b80601f016020809104026020016040519081016040528092919081815260200182805461087c90612678565b80156108c95780601f1061089e576101008083540402835291602001916108c9565b820191906000526020600020905b8154815290600101906020018083116108ac57829003601f168201915b505050505081526020016002820180546108e290612678565b80601f016020809104026020016040519081016040528092919081815260200182805461090e90612678565b801561095b5780601f106109305761010080835404028352916020019161095b565b820191906000526020600020905b81548152906001019060200180831161093e57829003601f168201915b5050505050815260200160038201805461097490612678565b80601f01602080910402602001604051908101604052809291908181526020018280546109a090612678565b80156109ed5780601f106109c2576101008083540402835291602001916109ed565b820191906000526020600020905b8154815290600101906020018083116109d057829003601f168201915b50505050508152602001600482018054610a0690612678565b80601f0160208091040260200160405190810160405280929190818152602001828054610a3290612678565b8015610a7f5780601f10610a5457610100808354040283529160200191610a7f565b820191906000526020600020905b815481529060010190602001808311610a6257829003601f168201915b50505050508152602001600582018054610a9890612678565b80601f0160208091040260200160405190810160405280929190818152602001828054610ac490612678565b8015610b115780601f10610ae657610100808354040283529160200191610b11565b820191906000526020600020905b815481529060010190602001808311610af457829003601f168201915b50505050508152602001600682018054610b2a90612678565b80601f0160208091040260200160405190810160405280929190818152602001828054610b5690612678565b8015610ba35780601f10610b7857610100808354040283529160200191610ba3565b820191906000526020600020905b815481529060010190602001808311610b8657829003601f168201915b50505050508152602001600782018054610bbc90612678565b80601f0160208091040260200160405190810160405280929190818152602001828054610be890612678565b8015610c355780601f10610c0a57610100808354040283529160200191610c35565b820191906000526020600020905b815481529060010190602001808311610c1857829003601f168201915b50505050508152602001600882018054610c4e90612678565b80601f0160208091040260200160405190810160405280929190818152602001828054610c7a90612678565b8015610cc75780601f10610c9c57610100808354040283529160200191610cc7565b820191906000526020600020905b815481529060010190602001808311610caa57829003601f168201915b50505050508152602001600982018054610ce090612678565b80601f0160208091040260200160405190810160405280929190818152602001828054610d0c90612678565b8015610d595780601f10610d2e57610100808354040283529160200191610d59565b820191906000526020600020905b815481529060010190602001808311610d3c57829003601f168201915b50505050508152602001600a82018054610d7290612678565b80601f0160208091040260200160405190810160405280929190818152602001828054610d9e90612678565b8015610deb5780601f10610dc057610100808354040283529160200191610deb565b820191906000526020600020905b815481529060010190602001808311610dce57829003601f168201915b50505050508152602001600b82018054610e0490612678565b80601f0160208091040260200160405190810160405280929190818152602001828054610e3090612678565b8015610e7d5780601f10610e5257610100808354040283529160200191610e7d565b820191906000526020600020905b815481529060010190602001808311610e6057829003601f168201915b5050505050815250509050806000015181602001518260400151836060015184608001518560a001518660e001518761010001518861012001518961014001519a509a509a509a509a509a509a509a509a509a50509193959799509193959799565b600482805160208101820180518482526020830160208501208183528095505050505050818051602081018201805184825260208301602085012081835280955050505050506000915091509054906101000a900460ff1681565b6000600160003373ffffffffffffffffffffffffffffffffffffffff1673ffffffffffffffffffffffffffffffffffffffff1681526020019081526020016000208054610f8690612678565b80601f0160208091040260200160405190810160405280929190818152602001828054610fb290612678565b8015610fff5780601f10610fd457610100808354040283529160200191610fff565b820191906000526020600020905b815481529060010190602001808311610fe257829003601f168201915b50505050509050600081511161104a576040517f08c379a000000000000000000000000000000000000000000000000000000000815260040161104190612ac0565b60405180910390fd5b6110548282611874565b5050565b813373ffffffffffffffffffffffffffffffffffffffff1660008260405161108091906125c6565b908152602001604051809103902060009054906101000a900473ffffffffffffffffffffffffffffffffffffffff1673ffffffffffffffffffffffffffffffffffffffff1614611105576040517f08c379a00000000000000000000000000000000000000000000000000000000081526004016110fc90612b2c565b60405180910390fd5b60048460405161111591906125c6565b90815260200160405180910390208360405161113191906125c6565b908152602001604051809103902060009054906101000a900460ff166112685760038360405161116191906125c6565b9081526020016040518091039020604051806040016040528086815260200184815250908060018154018082558091505060019003906000526020600020906002020160009091909190915060008201518160000190816111c291906128cb565b5060208201518160010190816111d891906128cb565b50505060016004856040516111ed91906125c6565b90815260200160405180910390208460405161120991906125c6565b908152602001604051809103902060006101000a81548160ff0219169083151502179055507f995f2970a2ea0d66cc2150b5c93e3c413df023b5b88534d66259c9c3c6dac86a838560405161125f929190612b4c565b60405180910390a15b50505050565b60008073ffffffffffffffffffffffffffffffffffffffff1660008460405161129791906125c6565b908152602001604051809103902060009054906101000a900473ffffffffffffffffffffffffffffffffffffffff1673ffffffffffffffffffffffffffffffffffffffff160361131c576040517f08c379a000000000000000000000000000000000000000000000000000000000815260040161131390612a2e565b60405180910390fd5b60028360405161132c91906125c6565b9081526020016040518091039020600b0160405160200161134d9190612c06565b604051602081830303815290604052805190602001208260405160200161137491906125c6565b6040516020818303038152906040528051906020012014905092915050565b600560009054906101000a900473ffffffffffffffffffffffffffffffffffffffff1673ffffffffffffffffffffffffffffffffffffffff163373ffffffffffffffffffffffffffffffffffffffff1614611423576040517f08c379a000000000000000000000000000000000000000000000000000000000815260040161141a90612c69565b60405180910390fd5b60048360405161143391906125c6565b90815260200160405180910390208260405161144f91906125c6565b908152602001604051809103902060009054906101000a900460ff166115865760038260405161147f91906125c6565b9081526020016040518091039020604051806040016040528085815260200183815250908060018154018082558091505060019003906000526020600020906002020160009091909190915060008201518160000190816114e091906128cb565b5060208201518160010190816114f691906128cb565b505050600160048460405161150b91906125c6565b90815260200160405180910390208360405161152791906125c6565b908152602001604051809103902060006101000a81548160ff0219169083151502179055507f995f2970a2ea0d66cc2150b5c93e3c413df023b5b88534d66259c9c3c6dac86a828460405161157d929190612b4c565b60405180910390a15b505050565b606060038260405161159d91906125c6565b9081526020016040518091039020805480602002602001604051908101604052809291908181526020016000905b8282101561172157838290600052602060002090600202016040518060400160405290816000820180546115fe90612678565b80601f016020809104026020016040519081016040528092919081815260200182805461162a90612678565b80156116775780601f1061164c57610100808354040283529160200191611677565b820191906000526020600020905b81548152906001019060200180831161165a57829003601f168201915b5050505050815260200160018201805461169090612678565b80601f01602080910402602001604051908101604052809291908181526020018280546116bc90612678565b80156117095780601f106116de57610100808354040283529160200191611709565b820191906000526020600020905b8154815290600101906020018083116116ec57829003601f168201915b505050505081525050815260200190600101906115cb565b505050509050919050565b6060600160008373ffffffffffffffffffffffffffffffffffffffff1673ffffffffffffffffffffffffffffffffffffffff168152602001908152602001600020805461177890612678565b80601f01602080910402602001604051908101604052809291908181526020018280546117a490612678565b80156117f15780601f106117c6576101008083540402835291602001916117f1565b820191906000526020600020905b8154815290600101906020018083116117d457829003601f168201915b50505050509050919050565b60008073ffffffffffffffffffffffffffffffffffffffff1660008360405161182691906125c6565b908152602001604051809103902060009054906101000a900473ffffffffffffffffffffffffffffffffffffffff1673ffffffffffffffffffffffffffffffffffffffff1614159050919050565b803373ffffffffffffffffffffffffffffffffffffffff1660008260405161189c91906125c6565b908152602001604051809103902060009054906101000a900473ffffffffffffffffffffffffffffffffffffffff1673ffffffffffffffffffffffffffffffffffffffff1614611921576040517f08c379a000000000000000000000000000000000000000000000000000000000815260040161191890612b2c565b60405180910390fd5b60048360405161193191906125c6565b90815260200160405180910390208260405161194d91906125c6565b908152602001604051809103902060009054906101000a900460ff166119a8576040517f08c379a000000000000000000000000000000000000000000000000000000000815260040161199f90612cd5565b60405180910390fd5b60006004846040516119ba91906125c6565b9081526020016040518091039020836040516119d691906125c6565b908152602001604051809103902060006101000a81548160ff0219169083151502179055506000600383604051611a0d91906125c6565b9081526020016040518091039020905060008180549050905060005b81811015611ba5578580519060200120838281548110611a4c57611a4b612cf5565b5b9060005260206000209060020201600001604051611a6a9190612dc7565b604051809103902003611b9257600182611a849190612e0d565b811015611b075782600183611a999190612e0d565b81548110611aaa57611aa9612cf5565b5b9060005260206000209060020201838281548110611acb57611aca612cf5565b5b906000526020600020906002020160008201816000019081611aed9190612e57565b5060018201816001019081611b029190612e57565b509050505b82805480611b1857611b17612f3f565b5b600190038181906000526020600020906002020160008082016000611b3d9190611c6a565b600182016000611b4d9190611c6a565b505090557f213e0e506c4dc293f81607cd7c386e8054c30488dec51469ff3fddcc5f3ad70c8587604051611b82929190612b4c565b60405180910390a1505050611ba9565b8080611b9d90612f6e565b915050611a29565b5050505b505050565b6000600483604051611bc091906125c6565b908152602001604051809103902082604051611bdc91906125c6565b908152602001604051809103902060009054906101000a900460ff16905092915050565b80600560006101000a81548173ffffffffffffffffffffffffffffffffffffffff021916908373ffffffffffffffffffffffffffffffffffffffff16021790555050565b600560009054906101000a900473ffffffffffffffffffffffffffffffffffffffff1681565b508054611c7690612678565b6000825580601f10611c885750611ca7565b601f016020900490600052602060002090810190611ca69190611caa565b5b50565b5b80821115611cc3576000816000905550600101611cab565b5090565b6000604051905090565b600080fd5b600080fd5b600080fd5b600080fd5b6000601f19601f8301169050919050565b7f4e487b7100000000000000000000000000000000000000000000000000000000600052604160045260246000fd5b611d2e82611ce5565b810181811067ffffffffffffffff82111715611d4d57611d4c611cf6565b5b80604052505050565b6000611d60611cc7565b9050611d6c8282611d25565b919050565b600067ffffffffffffffff821115611d8c57611d8b611cf6565b5b611d9582611ce5565b9050602081019050919050565b82818337600083830152505050565b6000611dc4611dbf84611d71565b611d56565b905082815260208101848484011115611de057611ddf611ce0565b5b611deb848285611da2565b509392505050565b600082601f830112611e0857611e07611cdb565b5b8135611e18848260208601611db1565b91505092915050565b60008060008060008060008060008060006101608c8e031215611e4757611e46611cd1565b5b60008c013567ffffffffffffffff811115611e6557611e64611cd6565b5b611e718e828f01611df3565b9b505060208c013567ffffffffffffffff811115611e9257611e91611cd6565b5b611e9e8e828f01611df3565b9a505060408c013567ffffffffffffffff811115611ebf57611ebe611cd6565b5b611ecb8e828f01611df3565b99505060608c013567ffffffffffffffff811115611eec57611eeb611cd6565b5b611ef88e828f01611df3565b98505060808c013567ffffffffffffffff811115611f1957611f18611cd6565b5b611f258e828f01611df3565b97505060a08c013567ffffffffffffffff811115611f4657611f45611cd6565b5b611f528e828f01611df3565b96505060c08c013567ffffffffffffffff811115611f7357611f72611cd6565b5b611f7f8e828f01611df3565b95505060e08c013567ffffffffffffffff811115611fa057611f9f611cd6565b5b611fac8e828f01611df3565b9450506101008c013567ffffffffffffffff811115611fce57611fcd611cd6565b5b611fda8e828f01611df3565b9350506101208c013567ffffffffffffffff811115611ffc57611ffb611cd6565b5b6120088e828f01611df3565b9250506101408c013567ffffffffffffffff81111561202a57612029611cd6565b5b6120368e828f01611df3565b9150509295989b509295989b9093969950565b60006020828403121561205f5761205e611cd1565b5b600082013567ffffffffffffffff81111561207d5761207c611cd6565b5b61208984828501611df3565b91505092915050565b600073ffffffffffffffffffffffffffffffffffffffff82169050919050565b60006120bd82612092565b9050919050565b6120cd816120b2565b82525050565b600081519050919050565b600082825260208201905092915050565b60005b8381101561210d5780820151818401526020810190506120f2565b60008484015250505050565b6000612124826120d3565b61212e81856120de565b935061213e8185602086016120ef565b61214781611ce5565b840191505092915050565b600061014082019050612168600083018d6120c4565b818103602083015261217a818c612119565b9050818103604083015261218e818b612119565b905081810360608301526121a2818a612119565b905081810360808301526121b68189612119565b905081810360a08301526121ca8188612119565b905081810360c08301526121de8187612119565b905081810360e08301526121f28186612119565b90508181036101008301526122078185612119565b905081810361012083015261221c8184612119565b90509b9a5050505050505050505050565b6000806040838503121561224457612243611cd1565b5b600083013567ffffffffffffffff81111561226257612261611cd6565b5b61226e85828601611df3565b925050602083013567ffffffffffffffff81111561228f5761228e611cd6565b5b61229b85828601611df3565b9150509250929050565b60008115159050919050565b6122ba816122a5565b82525050565b60006020820190506122d560008301846122b1565b92915050565b6000806000606084860312156122f4576122f3611cd1565b5b600084013567ffffffffffffffff81111561231257612311611cd6565b5b61231e86828701611df3565b935050602084013567ffffffffffffffff81111561233f5761233e611cd6565b5b61234b86828701611df3565b925050604084013567ffffffffffffffff81111561236c5761236b611cd6565b5b61237886828701611df3565b9150509250925092565b600081519050919050565b600082825260208201905092915050565b6000819050602082019050919050565b600082825260208201905092915050565b60006123ca826120d3565b6123d481856123ae565b93506123e48185602086016120ef565b6123ed81611ce5565b840191505092915050565b6000604083016000830151848203600086015261241582826123bf565b9150506020830151848203602086015261242f82826123bf565b9150508091505092915050565b600061244883836123f8565b905092915050565b6000602082019050919050565b600061246882612382565b612472818561238d565b9350836020820285016124848561239e565b8060005b858110156124c057848403895281516124a1858261243c565b94506124ac83612450565b925060208a01995050600181019050612488565b50829750879550505050505092915050565b600060208201905081810360008301526124ec818461245d565b905092915050565b6124fd816120b2565b811461250857600080fd5b50565b60008135905061251a816124f4565b92915050565b60006020828403121561253657612535611cd1565b5b60006125448482850161250b565b91505092915050565b600060208201905081810360008301526125678184612119565b905092915050565b600060208201905061258460008301846120c4565b92915050565b600081905092915050565b60006125a0826120d3565b6125aa818561258a565b93506125ba8185602086016120ef565b80840191505092915050565b60006125d28284612595565b915081905092915050565b7f446f63746f7220616c7265616479207265676973746572656400000000000000600082015250565b60006126136019836120de565b915061261e826125dd565b602082019050919050565b6000602082019050818103600083015261264281612606565b9050919050565b7f4e487b7100000000000000000000000000000000000000000000000000000000600052602260045260246000fd5b6000600282049050600182168061269057607f821691505b6020821081036126a3576126a2612649565b5b50919050565b7f4164647265737320616c72656164792072656769737465726564000000000000600082015250565b60006126df601a836120de565b91506126ea826126a9565b602082019050919050565b6000602082019050818103600083015261270e816126d2565b9050919050565b60008190508160005260206000209050919050565b60006020601f8301049050919050565b600082821b905092915050565b6000600883026127777fffffffffffffffffffffffffffffffffffffffffffffffffffffffffffffffff8261273a565b612781868361273a565b95508019841693508086168417925050509392505050565b6000819050919050565b6000819050919050565b60006127c86127c36127be84612799565b6127a3565b612799565b9050919050565b6000819050919050565b6127e2836127ad565b6127f66127ee826127cf565b848454612747565b825550505050565b600090565b61280b6127fe565b6128168184846127d9565b505050565b5b8181101561283a5761282f600082612803565b60018101905061281c565b5050565b601f82111561287f5761285081612715565b6128598461272a565b81016020851015612868578190505b61287c6128748561272a565b83018261281b565b50505b505050565b600082821c905092915050565b60006128a260001984600802612884565b1980831691505092915050565b60006128bb8383612891565b9150826002028217905092915050565b6128d4826120d3565b67ffffffffffffffff8111156128ed576128ec611cf6565b5b6128f78254612678565b61290282828561283e565b600060209050601f8311600181146129355760008415612923578287015190505b61292d85826128af565b865550612995565b601f19841661294386612715565b60005b8281101561296b57848901518255600182019150602085019450602081019050612946565b868310156129885784890151612984601f891682612891565b8355505b6001600288020188555050505b505050505050565b600060608201905081810360008301526129b78186612119565b905081810360208301526129cb8185612119565b90506129da60408301846120c4565b949350505050565b7f446f63746f72206e6f7420726567697374657265640000000000000000000000600082015250565b6000612a186015836120de565b9150612a23826129e2565b602082019050919050565b60006020820190508181036000830152612a4781612a0b565b9050919050565b7f43616c6c6572206973206e6f742061207265676973746572656420646f63746f60008201527f7200000000000000000000000000000000000000000000000000000000000000602082015250565b6000612aaa6021836120de565b9150612ab582612a4e565b604082019050919050565b60006020820190508181036000830152612ad981612a9d565b9050919050565b7f556e617574686f72697a65643a204e6f742074686520646f63746f7200000000600082015250565b6000612b16601c836120de565b9150612b2182612ae0565b602082019050919050565b60006020820190508181036000830152612b4581612b09565b9050919050565b60006040820190508181036000830152612b668185612119565b90508181036020830152612b7a8184612119565b90509392505050565b60008154612b9081612678565b612b9a818661258a565b94506001821660008114612bb55760018114612bca57612bfd565b60ff1983168652811515820286019350612bfd565b612bd385612715565b60005b83811015612bf557815481890152600182019150602081019050612bd6565b838801955050505b50505092915050565b6000612c128284612b83565b915081905092915050565b7f556e617574686f72697a65642063616c6c657200000000000000000000000000600082015250565b6000612c536013836120de565b9150612c5e82612c1d565b602082019050919050565b60006020820190508181036000830152612c8281612c46565b9050919050565b7f5065726d697373696f6e206e6f74206772616e74656400000000000000000000600082015250565b6000612cbf6016836120de565b9150612cca82612c89565b602082019050919050565b60006020820190508181036000830152612cee81612cb2565b9050919050565b7f4e487b7100000000000000000000000000000000000000000000000000000000600052603260045260246000fd5b600081905092915050565b60008190508160005260206000209050919050565b60008154612d5181612678565b612d5b8186612d24565b94506001821660008114612d765760018114612d8b57612dbe565b60ff1983168652811515820286019350612dbe565b612d9485612d2f565b60005b83811015612db657815481890152600182019150602081019050612d97565b838801955050505b50505092915050565b6000612dd38284612d44565b915081905092915050565b7f4e487b7100000000000000000000000000000000000000000000000000000000600052601160045260246000fd5b6000612e1882612799565b9150612e2383612799565b9250828203905081811115612e3b57612e3a612dde565b5b92915050565b600081549050612e5081612678565b9050919050565b818103612e65575050612f3d565b612e6e82612e41565b67ffffffffffffffff811115612e8757612e86611cf6565b5b612e918254612678565b612e9c82828561283e565b6000601f831160018114612ecb5760008415612eb9578287015490505b612ec385826128af565b865550612f36565b601f198416612ed987612715565b9650612ee486612715565b60005b82811015612f0c57848901548255600182019150600185019450602081019050612ee7565b86831015612f295784890154612f25601f891682612891565b8355505b6001600288020188555050505b5050505050505b565b7f4e487b7100000000000000000000000000000000000000000000000000000000600052603160045260246000fd5b6000612f7982612799565b91507fffffffffffffffffffffffffffffffffffffffffffffffffffffffffffffffff8203612fab57612faa612dde565b5b60018201905091905056fea2646970667358221220d2cea457d3a77693a75736ada88b8f06cd1c41a51ea8644fbc8988dd6b53454364736f6c63430008130033",
  "immutableReferences": {},
  "source": "// SPDX-License-Identifier: MIT\r\npragma solidity ^0.8.19;\r\n\r\ncontract DoctorRegistration {\r\n    struct Doctor {\r\n        address walletAddress;\r\n        string doctorName;\r\n        string hospitalName;\r\n        string dateOfBirth;\r\n        string gender;\r\n        string email;\r\n        string hhNumber;\r\n        string specialization;\r\n        string department;\r\n        string designation;\r\n        string workExperience;\r\n        string password;\r\n    }\r\n\r\n    struct PatientList {\r\n        string patient_number;\r\n        string patient_name;\r\n    }\r\n\r\n    mapping(string => address) private doctorAddresses;\r\n    mapping(address => string) private addressToDoctorNumber;\r\n    mapping(string => Doctor) private doctors;\r\n    mapping(string => PatientList[]) private Dpermission;\r\n    mapping(string => mapping(string => bool)) public doctorPermissions;\r\n\r\n    address public patientContract;\r\n\r\n    event DoctorRegistered(string hhNumber, string doctorName, address walletAddress);\r\n    event PermissionGranted(string doctorNumber, string patientNumber);\r\n    event PermissionRevoked(string doctorNumber, string patientNumber);\r\n\r\n    modifier onlyDoctor(string memory _doctorNumber) {\r\n        require(doctorAddresses[_doctorNumber] == msg.sender, \"Unauthorized: Not the doctor\");\r\n        _;\r\n    }\r\n\r\n    modifier onlyPatientContract() {\r\n        require(msg.sender == patientContract, \"Unauthorized caller\");\r\n        _;\r\n    }\r\n\r\n    function setPatientContract(address _addr) external {\r\n        patientContract = _addr;\r\n    }\r\n\r\n    function registerDoctor(\r\n        string memory _doctorName,\r\n        string memory _hospitalName,\r\n        string memory _dateOfBirth,\r\n        string memory _gender,\r\n        string memory _email,\r\n        string memory _hhNumber,\r\n        string memory _specialization,\r\n        string memory _department,\r\n        string memory _designation,\r\n        string memory _workExperience,\r\n        string memory _password\r\n    ) external {\r\n        require(doctorAddresses[_hhNumber] == address(0), \"Doctor already registered\");\r\n        require(bytes(addressToDoctorNumber[msg.sender]).length == 0, \"Address already registered\");\r\n\r\n        doctors[_hhNumber] = Doctor({\r\n            walletAddress: msg.sender,\r\n            doctorName: _doctorName,\r\n            hospitalName: _hospitalName,\r\n            dateOfBirth: _dateOfBirth,\r\n            gender: _gender,\r\n            email: _email,\r\n            hhNumber: _hhNumber,\r\n            specialization: _specialization,\r\n            department: _department,\r\n            designation: _designation,\r\n            workExperience: _workExperience,\r\n            password: _password\r\n        });\r\n\r\n        doctorAddresses[_hhNumber] = msg.sender;\r\n        addressToDoctorNumber[msg.sender] = _hhNumber;\r\n        emit DoctorRegistered(_hhNumber, _doctorName, msg.sender);\r\n    }\r\n\r\n    function isRegisteredDoctor(string memory _hhNumber) external view returns (bool) {\r\n        return doctorAddresses[_hhNumber] != address(0);\r\n    }\r\n\r\n    function getDoctorDetails(string memory _hhNumber) external view returns (\r\n        address,\r\n        string memory,\r\n        string memory,\r\n        string memory,\r\n        string memory,\r\n        string memory,\r\n        string memory,\r\n        string memory,\r\n        string memory,\r\n        string memory\r\n    ) {\r\n        require(doctorAddresses[_hhNumber] != address(0), \"Doctor not registered\");\r\n        Doctor memory doctor = doctors[_hhNumber];\r\n        return (\r\n            doctor.walletAddress,\r\n            doctor.doctorName,\r\n            doctor.hospitalName,\r\n            doctor.dateOfBirth,\r\n            doctor.gender,\r\n            doctor.email,\r\n            doctor.specialization,\r\n            doctor.department,\r\n            doctor.designation,\r\n            doctor.workExperience\r\n        );\r\n    }\r\n\r\n    function validatePassword(string memory _hhNumber, string memory _password) external view returns (bool) {\r\n        require(doctorAddresses[_hhNumber] != address(0), \"Doctor not registered\");\r\n        return keccak256(abi.encodePacked(_password)) == keccak256(abi.encodePacked(doctors[_hhNumber].password));\r\n    }\r\n\r\n    function grantPermission(\r\n        string memory _patientNumber,\r\n        string memory _doctorNumber,\r\n        string memory _patientName\r\n    ) external onlyDoctor(_doctorNumber) {\r\n        if (!doctorPermissions[_patientNumber][_doctorNumber]) {\r\n            Dpermission[_doctorNumber].push(PatientList(_patientNumber, _patientName));\r\n            doctorPermissions[_patientNumber][_doctorNumber] = true;\r\n            emit PermissionGranted(_doctorNumber, _patientNumber);\r\n        }\r\n    }\r\n\r\n    function externalGrantFromPatient(\r\n        string memory _patientNumber,\r\n        string memory _doctorNumber,\r\n        string memory _patientName\r\n    ) external onlyPatientContract {\r\n        if (!doctorPermissions[_patientNumber][_doctorNumber]) {\r\n            Dpermission[_doctorNumber].push(PatientList(_patientNumber, _patientName));\r\n            doctorPermissions[_patientNumber][_doctorNumber] = true;\r\n            emit PermissionGranted(_doctorNumber, _patientNumber);\r\n        }\r\n    }\r\n\r\n    function isPermissionGranted(string memory _patientNumber, string memory _doctorNumber) external view returns (bool) {\r\n        return doctorPermissions[_patientNumber][_doctorNumber];\r\n    }\r\n\r\n    function revokePermission(string memory _patientNumber, string memory _doctorNumber) public onlyDoctor(_doctorNumber) {\r\n        require(doctorPermissions[_patientNumber][_doctorNumber], \"Permission not granted\");\r\n        \r\n        doctorPermissions[_patientNumber][_doctorNumber] = false;\r\n\r\n        PatientList[] storage patients = Dpermission[_doctorNumber];\r\n        uint256 length = patients.length;\r\n        \r\n        for (uint256 i = 0; i < length; i++) {\r\n            if (keccak256(bytes(patients[i].patient_number)) == keccak256(bytes(_patientNumber))) {\r\n                if (i < length - 1) {\r\n                    patients[i] = patients[length - 1];\r\n                }\r\n                patients.pop();\r\n                emit PermissionRevoked(_doctorNumber, _patientNumber);\r\n                return;\r\n            }\r\n        }\r\n    }\r\n\r\n    function removePatient(string memory _patientNumber) external {\r\n        string memory doctorNumber = addressToDoctorNumber[msg.sender];\r\n        require(bytes(doctorNumber).length > 0, \"Caller is not a registered doctor\");\r\n        revokePermission(_patientNumber, doctorNumber);\r\n    }\r\n\r\n    function getPatientList(string memory _doctorNumber) public view returns (PatientList[] memory) {\r\n        return Dpermission[_doctorNumber];\r\n    }\r\n\r\n    function getDoctorNumberByAddress(address _addr) external view returns (string memory) {\r\n        return addressToDoctorNumber[_addr];\r\n    }\r\n}",
  "sourcePath": "D:\\Secure-Electronic-Health-Records\\src\\contracts\\DoctorRegistration.sol",
  "compiler": {
    "name": "solc",
    "version": "0.8.19+commit.7dd6d404.Emscripten.clang"
  },
  "schemaVersion": "3.4.16",
  "updatedAt": "2025-05-11T16:21:19.233Z",
  "networkType": "ethereum",
  "devdoc": {
    "kind": "dev",
    "methods": {},
    "version": 1
  },
  "userdoc": {
    "kind": "user",
    "methods": {},
    "version": 1
  }
}