{
  "contractName": "PatientRegistration",
  "abi": [
    {
      "anonymous": false,
      "inputs": [
        {
          "indexed": false,
          "internalType": "string",
          "name": "hhNumber",
          "type": "string"
        },
        {
          "indexed": false,
          "internalType": "string",
          "name": "name",
          "type": "string"
        },
        {
          "indexed": false,
          "internalType": "address",
          "name": "walletAddress",
          "type": "address"
        }
      ],
      "name": "PatientRegistered",
      "type": "event"
    },
    {
      "inputs": [],
      "name": "doctorContractAddress",
      "outputs": [
        {
          "internalType": "address",
          "name": "",
          "type": "address"
        }
      ],
      "stateMutability": "view",
      "type": "function",
      "constant": true
    },
    {
      "inputs": [
        {
          "internalType": "string",
          "name": "",
          "type": "string"
        },
        {
          "internalType": "string",
          "name": "",
          "type": "string"
        }
      ],
      "name": "doctorPermissions",
      "outputs": [
        {
          "internalType": "bool",
          "name": "",
          "type": "bool"
        }
      ],
      "stateMutability": "view",
      "type": "function",
      "constant": true
    },
    {
      "inputs": [
        {
          "internalType": "string",
          "name": "",
          "type": "string"
        }
      ],
      "name": "isPatientRegistered",
      "outputs": [
        {
          "internalType": "bool",
          "name": "",
          "type": "bool"
        }
      ],
      "stateMutability": "view",
      "type": "function",
      "constant": true
    },
    {
      "inputs": [
        {
          "internalType": "string",
          "name": "",
          "type": "string"
        }
      ],
      "name": "patients",
      "outputs": [
        {
          "internalType": "address",
          "name": "walletAddress",
          "type": "address"
        },
        {
          "internalType": "string",
          "name": "name",
          "type": "string"
        },
        {
          "internalType": "string",
          "name": "dateOfBirth",
          "type": "string"
        },
        {
          "internalType": "string",
          "name": "gender",
          "type": "string"
        },
        {
          "internalType": "string",
          "name": "bloodGroup",
          "type": "string"
        },
        {
          "internalType": "string",
          "name": "homeAddress",
          "type": "string"
        },
        {
          "internalType": "string",
          "name": "email",
          "type": "string"
        },
        {
          "internalType": "string",
          "name": "hhNumber",
          "type": "string"
        },
        {
          "internalType": "string",
          "name": "password",
          "type": "string"
        }
      ],
      "stateMutability": "view",
      "type": "function",
      "constant": true
    },
    {
      "inputs": [
        {
          "internalType": "address",
          "name": "_addr",
          "type": "address"
        }
      ],
      "name": "setDoctorContractAddress",
      "outputs": [],
      "stateMutability": "nonpayable",
      "type": "function"
    },
    {
      "inputs": [
        {
          "internalType": "address",
          "name": "_walletAddress",
          "type": "address"
        },
        {
          "internalType": "string",
          "name": "_name",
          "type": "string"
        },
        {
          "internalType": "string",
          "name": "_dateOfBirth",
          "type": "string"
        },
        {
          "internalType": "string",
          "name": "_gender",
          "type": "string"
        },
        {
          "internalType": "string",
          "name": "_bloodGroup",
          "type": "string"
        },
        {
          "internalType": "string",
          "name": "_homeAddress",
          "type": "string"
        },
        {
          "internalType": "string",
          "name": "_email",
          "type": "string"
        },
        {
          "internalType": "string",
          "name": "_hhNumber",
          "type": "string"
        },
        {
          "internalType": "string",
          "name": "_password",
          "type": "string"
        }
      ],
      "name": "registerPatient",
      "outputs": [],
      "stateMutability": "nonpayable",
      "type": "function"
    },
    {
      "inputs": [
        {
          "internalType": "string",
          "name": "_hhNumber",
          "type": "string"
        }
      ],
      "name": "isRegisteredPatient",
      "outputs": [
        {
          "internalType": "bool",
          "name": "",
          "type": "bool"
        }
      ],
      "stateMutability": "view",
      "type": "function",
      "constant": true
    },
    {
      "inputs": [
        {
          "internalType": "string",
          "name": "_hhNumber",
          "type": "string"
        },
        {
          "internalType": "string",
          "name": "_password",
          "type": "string"
        }
      ],
      "name": "validatePassword",
      "outputs": [
        {
          "internalType": "bool",
          "name": "",
          "type": "bool"
        }
      ],
      "stateMutability": "view",
      "type": "function",
      "constant": true
    },
    {
      "inputs": [
        {
          "internalType": "string",
          "name": "_hhNumber",
          "type": "string"
        }
      ],
      "name": "getPatientDetails",
      "outputs": [
        {
          "internalType": "address",
          "name": "walletAddress",
          "type": "address"
        },
        {
          "internalType": "string",
          "name": "name",
          "type": "string"
        },
        {
          "internalType": "string",
          "name": "dateOfBirth",
          "type": "string"
        },
        {
          "internalType": "string",
          "name": "gender",
          "type": "string"
        },
        {
          "internalType": "string",
          "name": "bloodGroup",
          "type": "string"
        },
        {
          "internalType": "string",
          "name": "homeAddress",
          "type": "string"
        },
        {
          "internalType": "string",
          "name": "email",
          "type": "string"
        }
      ],
      "stateMutability": "view",
      "type": "function",
      "constant": true
    },
    {
      "inputs": [
        {
          "internalType": "string",
          "name": "_patientNumber",
          "type": "string"
        },
        {
          "internalType": "string",
          "name": "_doctorNumber",
          "type": "string"
        },
        {
          "internalType": "string",
          "name": "_patientName",
          "type": "string"
        }
      ],
      "name": "grantPermission",
      "outputs": [],
      "stateMutability": "nonpayable",
      "type": "function"
    },
    {
      "inputs": [
        {
          "internalType": "string",
          "name": "_patientNumber",
          "type": "string"
        },
        {
          "internalType": "string",
          "name": "_doctorNumber",
          "type": "string"
        }
      ],
      "name": "isPermissionGranted",
      "outputs": [
        {
          "internalType": "bool",
          "name": "",
          "type": "bool"
        }
      ],
      "stateMutability": "view",
      "type": "function",
      "constant": true
    },
    {
      "inputs": [
        {
          "internalType": "string",
          "name": "_doctorNumber",
          "type": "string"
        }
      ],
      "name": "getPatientList",
      "outputs": [
        {
          "components": [
            {
              "internalType": "string",
              "name": "patient_number",
              "type": "string"
            },
            {
              "internalType": "string",
              "name": "patient_name",
              "type": "string"
            }
          ],
          "internalType": "struct PatientRegistration.PatientList[]",
          "name": "",
          "type": "tuple[]"
        }
      ],
      "stateMutability": "view",
      "type": "function",
      "constant": true
    }
  ],
  "bytecode": "0x608060405234801561001057600080fd5b506125d8806100206000396000f3fe608060405234801561001057600080fd5b50600436106100b45760003560e01c80637babdb26116100715780637babdb261461018b57806391c12f76146101bb578063c6009d84146101eb578063d120c10c14610223578063ea977fc814610253578063f725264114610289576100b4565b80630ac1f2c5146100b957806344334733146100d75780634f10c6c21461010757806357812a08146101375780635df67040146101535780637933ef8b1461016f575b600080fd5b6100c16102b9565b6040516100ce91906116c7565b60405180910390f35b6100f160048036038101906100ec919061183c565b6102df565b6040516100fe91906118cf565b60405180910390f35b610121600480360381019061011c91906118ea565b61033a565b60405161012e91906118cf565b60405180910390f35b610151600480360381019061014c919061195f565b610370565b005b61016d60048036038101906101689190611b09565b6105ce565b005b61018960048036038101906101849190611bb0565b6108ad565b005b6101a560048036038101906101a0919061183c565b6108f1565b6040516101b291906118cf565b60405180910390f35b6101d560048036038101906101d091906118ea565b6109d4565b6040516101e29190611d62565b60405180910390f35b610205600480360381019061020091906118ea565b610b75565b60405161021a99989796959493929190611dce565b60405180910390f35b61023d6004803603810190610238919061183c565b611039565b60405161024a91906118cf565b60405180910390f35b61026d600480360381019061026891906118ea565b61108b565b6040516102809796959493929190611e93565b60405180910390f35b6102a3600480360381019061029e91906118ea565b611652565b6040516102b091906118cf565b60405180910390f35b600460009054906101000a900473ffffffffffffffffffffffffffffffffffffffff1681565b600382805160208101820180518482526020830160208501208183528095505050505050818051602081018201805184825260208301602085012081835280955050505050506000915091509054906101000a900460ff1681565b6000818051602081018201805184825260208301602085012081835280955050505050506000915054906101000a900460ff1681565b6000826040516103809190611f68565b908152602001604051809103902060009054906101000a900460ff16156103dc576040517f08c379a00000000000000000000000000000000000000000000000000000000081526004016103d390611fcb565b60405180910390fd5b60006040518061012001604052808b73ffffffffffffffffffffffffffffffffffffffff1681526020018a8152602001898152602001888152602001878152602001868152602001858152602001848152602001838152509050806001846040516104479190611f68565b908152602001604051809103902060008201518160000160006101000a81548173ffffffffffffffffffffffffffffffffffffffff021916908373ffffffffffffffffffffffffffffffffffffffff16021790555060208201518160010190816104b19190612201565b5060408201518160020190816104c79190612201565b5060608201518160030190816104dd9190612201565b5060808201518160040190816104f39190612201565b5060a08201518160050190816105099190612201565b5060c082015181600601908161051f9190612201565b5060e08201518160070190816105359190612201565b5061010082015181600801908161054c9190612201565b5090505060016000846040516105629190611f68565b908152602001604051809103902060006101000a81548160ff0219169083151502179055507f319ae3a95b9a410d647835a7e64d54ddf28faf35a698f0a2b63999585fa38edc838a8c6040516105ba939291906122d3565b60405180910390a150505050505050505050565b6003836040516105de9190611f68565b9081526020016040518091039020826040516105fa9190611f68565b908152602001604051809103902060009054906101000a900460ff1615610656576040517f08c379a000000000000000000000000000000000000000000000000000000000815260040161064d9061238a565b60405180910390fd5b6000805b60028460405161066a9190611f68565b90815260200160405180910390208054905081101561073257846040516020016106949190611f68565b604051602081830303815290604052805190602001206002856040516106ba9190611f68565b908152602001604051809103902082815481106106da576106d96123aa565b5b90600052602060002090600202016000016040516020016106fb919061245c565b604051602081830303815290604052805190602001200361071f5760019150610732565b808061072a906124a2565b91505061065a565b50806107c3576002836040516107489190611f68565b9081526020016040518091039020604051806040016040528086815260200184815250908060018154018082558091505060019003906000526020600020906002020160009091909190915060008201518160000190816107a99190612201565b5060208201518160010190816107bf9190612201565b5050505b60016003856040516107d59190611f68565b9081526020016040518091039020846040516107f19190611f68565b908152602001604051809103902060006101000a81548160ff021916908315150217905550600460009054906101000a900473ffffffffffffffffffffffffffffffffffffffff1673ffffffffffffffffffffffffffffffffffffffff166383deaac68585856040518463ffffffff1660e01b8152600401610875939291906124ea565b600060405180830381600087803b15801561088f57600080fd5b505af11580156108a3573d6000803e3d6000fd5b5050505050505050565b80600460006101000a81548173ffffffffffffffffffffffffffffffffffffffff021916908373ffffffffffffffffffffffffffffffffffffffff16021790555050565b600080836040516109029190611f68565b908152602001604051809103902060009054906101000a900460ff1661095d576040517f08c379a000000000000000000000000000000000000000000000000000000000815260040161095490612582565b60405180910390fd5b60018360405161096d9190611f68565b908152602001604051809103902060080160405160200161098e919061245c565b60405160208183030381529060405280519060200120826040516020016109b59190611f68565b6040516020818303038152906040528051906020012014905092915050565b60606002826040516109e69190611f68565b9081526020016040518091039020805480602002602001604051908101604052809291908181526020016000905b82821015610b6a5783829060005260206000209060020201604051806040016040529081600082018054610a479061201a565b80601f0160208091040260200160405190810160405280929190818152602001828054610a739061201a565b8015610ac05780601f10610a9557610100808354040283529160200191610ac0565b820191906000526020600020905b815481529060010190602001808311610aa357829003601f168201915b50505050508152602001600182018054610ad99061201a565b80601f0160208091040260200160405190810160405280929190818152602001828054610b059061201a565b8015610b525780601f10610b2757610100808354040283529160200191610b52565b820191906000526020600020905b815481529060010190602001808311610b3557829003601f168201915b50505050508152505081526020019060010190610a14565b505050509050919050565b6001818051602081018201805184825260208301602085012081835280955050505050506000915090508060000160009054906101000a900473ffffffffffffffffffffffffffffffffffffffff1690806001018054610bd49061201a565b80601f0160208091040260200160405190810160405280929190818152602001828054610c009061201a565b8015610c4d5780601f10610c2257610100808354040283529160200191610c4d565b820191906000526020600020905b815481529060010190602001808311610c3057829003601f168201915b505050505090806002018054610c629061201a565b80601f0160208091040260200160405190810160405280929190818152602001828054610c8e9061201a565b8015610cdb5780601f10610cb057610100808354040283529160200191610cdb565b820191906000526020600020905b815481529060010190602001808311610cbe57829003601f168201915b505050505090806003018054610cf09061201a565b80601f0160208091040260200160405190810160405280929190818152602001828054610d1c9061201a565b8015610d695780601f10610d3e57610100808354040283529160200191610d69565b820191906000526020600020905b815481529060010190602001808311610d4c57829003601f168201915b505050505090806004018054610d7e9061201a565b80601f0160208091040260200160405190810160405280929190818152602001828054610daa9061201a565b8015610df75780601f10610dcc57610100808354040283529160200191610df7565b820191906000526020600020905b815481529060010190602001808311610dda57829003601f168201915b505050505090806005018054610e0c9061201a565b80601f0160208091040260200160405190810160405280929190818152602001828054610e389061201a565b8015610e855780601f10610e5a57610100808354040283529160200191610e85565b820191906000526020600020905b815481529060010190602001808311610e6857829003601f168201915b505050505090806006018054610e9a9061201a565b80601f0160208091040260200160405190810160405280929190818152602001828054610ec69061201a565b8015610f135780601f10610ee857610100808354040283529160200191610f13565b820191906000526020600020905b815481529060010190602001808311610ef657829003601f168201915b505050505090806007018054610f289061201a565b80601f0160208091040260200160405190810160405280929190818152602001828054610f549061201a565b8015610fa15780601f10610f7657610100808354040283529160200191610fa1565b820191906000526020600020905b815481529060010190602001808311610f8457829003601f168201915b505050505090806008018054610fb69061201a565b80601f0160208091040260200160405190810160405280929190818152602001828054610fe29061201a565b801561102f5780601f106110045761010080835404028352916020019161102f565b820191906000526020600020905b81548152906001019060200180831161101257829003601f168201915b5050505050905089565b600060038360405161104b9190611f68565b9081526020016040518091039020826040516110679190611f68565b908152602001604051809103902060009054906101000a900460ff16905092915050565b60006060806060806060806000886040516110a69190611f68565b908152602001604051809103902060009054906101000a900460ff16611101576040517f08c379a00000000000000000000000000000000000000000000000000000000081526004016110f890612582565b60405180910390fd5b60006001896040516111139190611f68565b9081526020016040518091039020604051806101200160405290816000820160009054906101000a900473ffffffffffffffffffffffffffffffffffffffff1673ffffffffffffffffffffffffffffffffffffffff1673ffffffffffffffffffffffffffffffffffffffff1681526020016001820180546111939061201a565b80601f01602080910402602001604051908101604052809291908181526020018280546111bf9061201a565b801561120c5780601f106111e15761010080835404028352916020019161120c565b820191906000526020600020905b8154815290600101906020018083116111ef57829003601f168201915b505050505081526020016002820180546112259061201a565b80601f01602080910402602001604051908101604052809291908181526020018280546112519061201a565b801561129e5780601f106112735761010080835404028352916020019161129e565b820191906000526020600020905b81548152906001019060200180831161128157829003601f168201915b505050505081526020016003820180546112b79061201a565b80601f01602080910402602001604051908101604052809291908181526020018280546112e39061201a565b80156113305780601f1061130557610100808354040283529160200191611330565b820191906000526020600020905b81548152906001019060200180831161131357829003601f168201915b505050505081526020016004820180546113499061201a565b80601f01602080910402602001604051908101604052809291908181526020018280546113759061201a565b80156113c25780601f10611397576101008083540402835291602001916113c2565b820191906000526020600020905b8154815290600101906020018083116113a557829003601f168201915b505050505081526020016005820180546113db9061201a565b80601f01602080910402602001604051908101604052809291908181526020018280546114079061201a565b80156114545780601f1061142957610100808354040283529160200191611454565b820191906000526020600020905b81548152906001019060200180831161143757829003601f168201915b5050505050815260200160068201805461146d9061201a565b80601f01602080910402602001604051908101604052809291908181526020018280546114999061201a565b80156114e65780601f106114bb576101008083540402835291602001916114e6565b820191906000526020600020905b8154815290600101906020018083116114c957829003601f168201915b505050505081526020016007820180546114ff9061201a565b80601f016020809104026020016040519081016040528092919081815260200182805461152b9061201a565b80156115785780601f1061154d57610100808354040283529160200191611578565b820191906000526020600020905b81548152906001019060200180831161155b57829003601f168201915b505050505081526020016008820180546115919061201a565b80601f01602080910402602001604051908101604052809291908181526020018280546115bd9061201a565b801561160a5780601f106115df5761010080835404028352916020019161160a565b820191906000526020600020905b8154815290600101906020018083116115ed57829003601f168201915b5050505050815250509050806000015181602001518260400151836060015184608001518560a001518660c00151975097509750975097509750975050919395979092949650565b600080826040516116639190611f68565b908152602001604051809103902060009054906101000a900460ff169050919050565b600073ffffffffffffffffffffffffffffffffffffffff82169050919050565b60006116b182611686565b9050919050565b6116c1816116a6565b82525050565b60006020820190506116dc60008301846116b8565b92915050565b6000604051905090565b600080fd5b600080fd5b600080fd5b600080fd5b6000601f19601f8301169050919050565b7f4e487b7100000000000000000000000000000000000000000000000000000000600052604160045260246000fd5b61174982611700565b810181811067ffffffffffffffff8211171561176857611767611711565b5b80604052505050565b600061177b6116e2565b90506117878282611740565b919050565b600067ffffffffffffffff8211156117a7576117a6611711565b5b6117b082611700565b9050602081019050919050565b82818337600083830152505050565b60006117df6117da8461178c565b611771565b9050828152602081018484840111156117fb576117fa6116fb565b5b6118068482856117bd565b509392505050565b600082601f830112611823576118226116f6565b5b81356118338482602086016117cc565b91505092915050565b60008060408385031215611853576118526116ec565b5b600083013567ffffffffffffffff811115611871576118706116f1565b5b61187d8582860161180e565b925050602083013567ffffffffffffffff81111561189e5761189d6116f1565b5b6118aa8582860161180e565b9150509250929050565b60008115159050919050565b6118c9816118b4565b82525050565b60006020820190506118e460008301846118c0565b92915050565b600060208284031215611900576118ff6116ec565b5b600082013567ffffffffffffffff81111561191e5761191d6116f1565b5b61192a8482850161180e565b91505092915050565b61193c816116a6565b811461194757600080fd5b50565b60008135905061195981611933565b92915050565b60008060008060008060008060006101208a8c031215611982576119816116ec565b5b60006119908c828d0161194a565b99505060208a013567ffffffffffffffff8111156119b1576119b06116f1565b5b6119bd8c828d0161180e565b98505060408a013567ffffffffffffffff8111156119de576119dd6116f1565b5b6119ea8c828d0161180e565b97505060608a013567ffffffffffffffff811115611a0b57611a0a6116f1565b5b611a178c828d0161180e565b96505060808a013567ffffffffffffffff811115611a3857611a376116f1565b5b611a448c828d0161180e565b95505060a08a013567ffffffffffffffff811115611a6557611a646116f1565b5b611a718c828d0161180e565b94505060c08a013567ffffffffffffffff811115611a9257611a916116f1565b5b611a9e8c828d0161180e565b93505060e08a013567ffffffffffffffff811115611abf57611abe6116f1565b5b611acb8c828d0161180e565b9250506101008a013567ffffffffffffffff811115611aed57611aec6116f1565b5b611af98c828d0161180e565b9150509295985092959850929598565b600080600060608486031215611b2257611b216116ec565b5b600084013567ffffffffffffffff811115611b4057611b3f6116f1565b5b611b4c8682870161180e565b935050602084013567ffffffffffffffff811115611b6d57611b6c6116f1565b5b611b798682870161180e565b925050604084013567ffffffffffffffff811115611b9a57611b996116f1565b5b611ba68682870161180e565b9150509250925092565b600060208284031215611bc657611bc56116ec565b5b6000611bd48482850161194a565b91505092915050565b600081519050919050565b600082825260208201905092915050565b6000819050602082019050919050565b600081519050919050565b600082825260208201905092915050565b60005b83811015611c43578082015181840152602081019050611c28565b60008484015250505050565b6000611c5a82611c09565b611c648185611c14565b9350611c74818560208601611c25565b611c7d81611700565b840191505092915050565b60006040830160008301518482036000860152611ca58282611c4f565b91505060208301518482036020860152611cbf8282611c4f565b9150508091505092915050565b6000611cd88383611c88565b905092915050565b6000602082019050919050565b6000611cf882611bdd565b611d028185611be8565b935083602082028501611d1485611bf9565b8060005b85811015611d505784840389528151611d318582611ccc565b9450611d3c83611ce0565b925060208a01995050600181019050611d18565b50829750879550505050505092915050565b60006020820190508181036000830152611d7c8184611ced565b905092915050565b600082825260208201905092915050565b6000611da082611c09565b611daa8185611d84565b9350611dba818560208601611c25565b611dc381611700565b840191505092915050565b600061012082019050611de4600083018c6116b8565b8181036020830152611df6818b611d95565b90508181036040830152611e0a818a611d95565b90508181036060830152611e1e8189611d95565b90508181036080830152611e328188611d95565b905081810360a0830152611e468187611d95565b905081810360c0830152611e5a8186611d95565b905081810360e0830152611e6e8185611d95565b9050818103610100830152611e838184611d95565b90509a9950505050505050505050565b600060e082019050611ea8600083018a6116b8565b8181036020830152611eba8189611d95565b90508181036040830152611ece8188611d95565b90508181036060830152611ee28187611d95565b90508181036080830152611ef68186611d95565b905081810360a0830152611f0a8185611d95565b905081810360c0830152611f1e8184611d95565b905098975050505050505050565b600081905092915050565b6000611f4282611c09565b611f4c8185611f2c565b9350611f5c818560208601611c25565b80840191505092915050565b6000611f748284611f37565b915081905092915050565b7f50617469656e7420616c72656164792072656769737465726564000000000000600082015250565b6000611fb5601a83611d84565b9150611fc082611f7f565b602082019050919050565b60006020820190508181036000830152611fe481611fa8565b9050919050565b7f4e487b7100000000000000000000000000000000000000000000000000000000600052602260045260246000fd5b6000600282049050600182168061203257607f821691505b60208210810361204557612044611feb565b5b50919050565b60008190508160005260206000209050919050565b60006020601f8301049050919050565b600082821b905092915050565b6000600883026120ad7fffffffffffffffffffffffffffffffffffffffffffffffffffffffffffffffff82612070565b6120b78683612070565b95508019841693508086168417925050509392505050565b6000819050919050565b6000819050919050565b60006120fe6120f96120f4846120cf565b6120d9565b6120cf565b9050919050565b6000819050919050565b612118836120e3565b61212c61212482612105565b84845461207d565b825550505050565b600090565b612141612134565b61214c81848461210f565b505050565b5b8181101561217057612165600082612139565b600181019050612152565b5050565b601f8211156121b5576121868161204b565b61218f84612060565b8101602085101561219e578190505b6121b26121aa85612060565b830182612151565b50505b505050565b600082821c905092915050565b60006121d8600019846008026121ba565b1980831691505092915050565b60006121f183836121c7565b9150826002028217905092915050565b61220a82611c09565b67ffffffffffffffff81111561222357612222611711565b5b61222d825461201a565b612238828285612174565b600060209050601f83116001811461226b5760008415612259578287015190505b61226385826121e5565b8655506122cb565b601f1984166122798661204b565b60005b828110156122a15784890151825560018201915060208501945060208101905061227c565b868310156122be57848901516122ba601f8916826121c7565b8355505b6001600288020188555050505b505050505050565b600060608201905081810360008301526122ed8186611d95565b905081810360208301526123018185611d95565b905061231060408301846116b8565b949350505050565b7f566965772041636365737320616c726561647920676976656e20746f2074686560008201527f20446f63746f7221000000000000000000000000000000000000000000000000602082015250565b6000612374602883611d84565b915061237f82612318565b604082019050919050565b600060208201905081810360008301526123a381612367565b9050919050565b7f4e487b7100000000000000000000000000000000000000000000000000000000600052603260045260246000fd5b600081546123e68161201a565b6123f08186611f2c565b9450600182166000811461240b576001811461242057612453565b60ff1983168652811515820286019350612453565b6124298561204b565b60005b8381101561244b5781548189015260018201915060208101905061242c565b838801955050505b50505092915050565b600061246882846123d9565b915081905092915050565b7f4e487b7100000000000000000000000000000000000000000000000000000000600052601160045260246000fd5b60006124ad826120cf565b91507fffffffffffffffffffffffffffffffffffffffffffffffffffffffffffffffff82036124df576124de612473565b5b600182019050919050565b600060608201905081810360008301526125048186611d95565b905081810360208301526125188185611d95565b9050818103604083015261252c8184611d95565b9050949350505050565b7f50617469656e74206e6f74207265676973746572656400000000000000000000600082015250565b600061256c601683611d84565b915061257782612536565b602082019050919050565b6000602082019050818103600083015261259b8161255f565b905091905056fea264697066735822122076e1091f643e24f3909e23143a18ca6a6c4fa7551a0b66be463712f8a066c93764736f6c63430008130033",
  "immutableReferences": {},
  "source": "// SPDX-License-Identifier: MIT\r\npragma solidity ^0.8.19;\r\n\r\ninterface IDoctorRegistration {\r\n    function externalGrantFromPatient(string memory _patientNumber, string memory _doctorNumber, string memory _patientName) external;\r\n}\r\n\r\ncontract PatientRegistration {\r\n    struct Patient {\r\n        address walletAddress;\r\n        string name;\r\n        string dateOfBirth;\r\n        string gender;\r\n        string bloodGroup;\r\n        string homeAddress;\r\n        string email;\r\n        string hhNumber;\r\n        string password;\r\n    }\r\n\r\n    struct PatientList {\r\n        string patient_number;\r\n        string patient_name;\r\n    }\r\n\r\n    mapping(string => bool) public isPatientRegistered;\r\n    mapping(string => Patient) public patients;\r\n    mapping(string => PatientList[]) private Dpermission;\r\n    mapping(string => mapping(string => bool)) public doctorPermissions;\r\n\r\n    address public doctorContractAddress;\r\n\r\n    event PatientRegistered(string hhNumber, string name, address walletAddress);\r\n\r\n    function setDoctorContractAddress(address _addr) external {\r\n        doctorContractAddress = _addr;\r\n    }\r\n\r\n    function registerPatient(\r\n        address _walletAddress,\r\n        string memory _name,\r\n        string memory _dateOfBirth,\r\n        string memory _gender,\r\n        string memory _bloodGroup,\r\n        string memory _homeAddress,\r\n        string memory _email,\r\n        string memory _hhNumber,\r\n        string memory _password\r\n    ) external {\r\n        require(!isPatientRegistered[_hhNumber], \"Patient already registered\");\r\n\r\n        Patient memory newPatient = Patient({\r\n            walletAddress: _walletAddress,\r\n            name: _name,\r\n            dateOfBirth: _dateOfBirth,\r\n            gender: _gender,\r\n            bloodGroup: _bloodGroup,\r\n            homeAddress: _homeAddress,\r\n            email: _email,\r\n            hhNumber: _hhNumber,\r\n            password: _password\r\n        });\r\n\r\n        patients[_hhNumber] = newPatient;\r\n        isPatientRegistered[_hhNumber] = true;\r\n        emit PatientRegistered(_hhNumber, _name, _walletAddress);\r\n    }\r\n\r\n    function isRegisteredPatient(string memory _hhNumber) external view returns (bool) {\r\n        return isPatientRegistered[_hhNumber];\r\n    }\r\n\r\n    function validatePassword(string memory _hhNumber, string memory _password) external view returns (bool) {\r\n        require(isPatientRegistered[_hhNumber], \"Patient not registered\");\r\n        return keccak256(abi.encodePacked(_password)) == keccak256(abi.encodePacked(patients[_hhNumber].password));\r\n    }\r\n\r\n    function getPatientDetails(string memory _hhNumber) external view returns (\r\n        address walletAddress,\r\n        string memory name,\r\n        string memory dateOfBirth,\r\n        string memory gender,\r\n        string memory bloodGroup,\r\n        string memory homeAddress,\r\n        string memory email\r\n    ) {\r\n        require(isPatientRegistered[_hhNumber], \"Patient not registered\");\r\n        Patient memory patient = patients[_hhNumber];\r\n        return (patient.walletAddress, patient.name, patient.dateOfBirth, patient.gender, patient.bloodGroup, patient.homeAddress, patient.email);\r\n    }\r\n\r\n    function grantPermission(\r\n        string memory _patientNumber,\r\n        string memory _doctorNumber,\r\n        string memory _patientName\r\n    ) external {\r\n        require(!doctorPermissions[_patientNumber][_doctorNumber], \"View Access already given to the Doctor!\");\r\n\r\n        bool exists = false;\r\n        for (uint i = 0; i < Dpermission[_doctorNumber].length; i++) {\r\n            if (keccak256(abi.encodePacked(Dpermission[_doctorNumber][i].patient_number)) == keccak256(abi.encodePacked(_patientNumber))) {\r\n                exists = true;\r\n                break;\r\n            }\r\n        }\r\n\r\n        if (!exists) {\r\n            Dpermission[_doctorNumber].push(PatientList(_patientNumber, _patientName));\r\n        }\r\n\r\n        doctorPermissions[_patientNumber][_doctorNumber] = true;\r\n\r\n        // Notify doctor contract\r\n        IDoctorRegistration(doctorContractAddress).externalGrantFromPatient(_patientNumber, _doctorNumber, _patientName);\r\n    }\r\n\r\n    function isPermissionGranted(string memory _patientNumber, string memory _doctorNumber) external view returns (bool) {\r\n        return doctorPermissions[_patientNumber][_doctorNumber];\r\n    }\r\n\r\n    function getPatientList(string memory _doctorNumber) public view returns (PatientList[] memory) {\r\n        return Dpermission[_doctorNumber];\r\n    }\r\n}\r\n",
  "sourcePath": "D:\\Secure-Electronic-Health-Records\\src\\contracts\\PatientRegistration.sol",
  "compiler": {
    "name": "solc",
    "version": "0.8.19+commit.7dd6d404.Emscripten.clang"
  },
  "schemaVersion": "3.4.16",
  "updatedAt": "2025-05-11T16:21:19.244Z",
  "networkType": "ethereum",
  "devdoc": {
    "kind": "dev",
    "methods": {},
    "version": 1
  },
  "userdoc": {
    "kind": "user",
    "methods": {},
    "version": 1
  }
}