{
  "contractName": "PatientRegistration",
  "abi": [
    {
      "inputs": [],
      "stateMutability": "nonpayable",
      "type": "constructor"
    },
    {
      "anonymous": false,
      "inputs": [
        {
          "indexed": true,
          "internalType": "string",
          "name": "hhNumber",
          "type": "string"
        },
        {
          "indexed": false,
          "internalType": "string",
          "name": "name",
          "type": "string"
        },
        {
          "indexed": false,
          "internalType": "address",
          "name": "walletAddress",
          "type": "address"
        }
      ],
      "name": "PatientRegistered",
      "type": "event"
    },
    {
      "anonymous": false,
      "inputs": [
        {
          "indexed": true,
          "internalType": "string",
          "name": "patientNumber",
          "type": "string"
        },
        {
          "indexed": false,
          "internalType": "string",
          "name": "doctorNumber",
          "type": "string"
        }
      ],
      "name": "PermissionGranted",
      "type": "event"
    },
    {
      "anonymous": false,
      "inputs": [
        {
          "indexed": true,
          "internalType": "string",
          "name": "patientNumber",
          "type": "string"
        },
        {
          "indexed": false,
          "internalType": "string",
          "name": "doctorNumber",
          "type": "string"
        }
      ],
      "name": "PermissionRevoked",
      "type": "event"
    },
    {
      "anonymous": false,
      "inputs": [
        {
          "indexed": true,
          "internalType": "string",
          "name": "hhNumber",
          "type": "string"
        },
        {
          "indexed": false,
          "internalType": "string",
          "name": "ipfsHash",
          "type": "string"
        },
        {
          "indexed": false,
          "internalType": "address",
          "name": "uploadedBy",
          "type": "address"
        }
      ],
      "name": "RecordUploaded",
      "type": "event"
    },
    {
      "inputs": [],
      "name": "admin",
      "outputs": [
        {
          "internalType": "address",
          "name": "",
          "type": "address"
        }
      ],
      "stateMutability": "view",
      "type": "function",
      "constant": true
    },
    {
      "inputs": [],
      "name": "doctorContractAddress",
      "outputs": [
        {
          "internalType": "address",
          "name": "",
          "type": "address"
        }
      ],
      "stateMutability": "view",
      "type": "function",
      "constant": true
    },
    {
      "inputs": [
        {
          "internalType": "string",
          "name": "",
          "type": "string"
        },
        {
          "internalType": "string",
          "name": "",
          "type": "string"
        }
      ],
      "name": "doctorPermissions",
      "outputs": [
        {
          "internalType": "bool",
          "name": "",
          "type": "bool"
        }
      ],
      "stateMutability": "view",
      "type": "function",
      "constant": true
    },
    {
      "inputs": [
        {
          "internalType": "string",
          "name": "",
          "type": "string"
        }
      ],
      "name": "isPatientRegistered",
      "outputs": [
        {
          "internalType": "bool",
          "name": "",
          "type": "bool"
        }
      ],
      "stateMutability": "view",
      "type": "function",
      "constant": true
    },
    {
      "inputs": [
        {
          "internalType": "string",
          "name": "",
          "type": "string"
        },
        {
          "internalType": "string",
          "name": "",
          "type": "string"
        }
      ],
      "name": "patientRecords",
      "outputs": [
        {
          "internalType": "bool",
          "name": "",
          "type": "bool"
        }
      ],
      "stateMutability": "view",
      "type": "function",
      "constant": true
    },
    {
      "inputs": [
        {
          "internalType": "string",
          "name": "",
          "type": "string"
        }
      ],
      "name": "patients",
      "outputs": [
        {
          "internalType": "address",
          "name": "walletAddress",
          "type": "address"
        },
        {
          "internalType": "string",
          "name": "name",
          "type": "string"
        },
        {
          "internalType": "string",
          "name": "dateOfBirth",
          "type": "string"
        },
        {
          "internalType": "string",
          "name": "gender",
          "type": "string"
        },
        {
          "internalType": "string",
          "name": "bloodGroup",
          "type": "string"
        },
        {
          "internalType": "string",
          "name": "homeAddress",
          "type": "string"
        },
        {
          "internalType": "string",
          "name": "email",
          "type": "string"
        },
        {
          "internalType": "string",
          "name": "hhNumber",
          "type": "string"
        },
        {
          "internalType": "string",
          "name": "password",
          "type": "string"
        }
      ],
      "stateMutability": "view",
      "type": "function",
      "constant": true
    },
    {
      "inputs": [
        {
          "internalType": "address",
          "name": "_addr",
          "type": "address"
        }
      ],
      "name": "setDoctorContractAddress",
      "outputs": [],
      "stateMutability": "nonpayable",
      "type": "function"
    },
    {
      "inputs": [
        {
          "internalType": "address",
          "name": "_newAdmin",
          "type": "address"
        }
      ],
      "name": "transferAdmin",
      "outputs": [],
      "stateMutability": "nonpayable",
      "type": "function"
    },
    {
      "inputs": [],
      "name": "getAllPatients",
      "outputs": [
        {
          "internalType": "string[]",
          "name": "",
          "type": "string[]"
        }
      ],
      "stateMutability": "view",
      "type": "function",
      "constant": true
    },
    {
      "inputs": [
        {
          "internalType": "address",
          "name": "_walletAddress",
          "type": "address"
        },
        {
          "internalType": "string",
          "name": "_name",
          "type": "string"
        },
        {
          "internalType": "string",
          "name": "_dateOfBirth",
          "type": "string"
        },
        {
          "internalType": "string",
          "name": "_gender",
          "type": "string"
        },
        {
          "internalType": "string",
          "name": "_bloodGroup",
          "type": "string"
        },
        {
          "internalType": "string",
          "name": "_homeAddress",
          "type": "string"
        },
        {
          "internalType": "string",
          "name": "_email",
          "type": "string"
        },
        {
          "internalType": "string",
          "name": "_hhNumber",
          "type": "string"
        },
        {
          "internalType": "string",
          "name": "_password",
          "type": "string"
        }
      ],
      "name": "registerPatient",
      "outputs": [],
      "stateMutability": "nonpayable",
      "type": "function"
    },
    {
      "inputs": [
        {
          "internalType": "string",
          "name": "_hhNumber",
          "type": "string"
        },
        {
          "internalType": "string",
          "name": "_ipfsHash",
          "type": "string"
        }
      ],
      "name": "uploadPatientRecord",
      "outputs": [],
      "stateMutability": "nonpayable",
      "type": "function"
    },
    {
      "inputs": [
        {
          "internalType": "string",
          "name": "_patientNumber",
          "type": "string"
        },
        {
          "internalType": "string",
          "name": "_doctorNumber",
          "type": "string"
        },
        {
          "internalType": "string",
          "name": "_patientName",
          "type": "string"
        }
      ],
      "name": "grantPermission",
      "outputs": [],
      "stateMutability": "nonpayable",
      "type": "function"
    },
    {
      "inputs": [
        {
          "internalType": "string",
          "name": "_doctorNumber",
          "type": "string"
        }
      ],
      "name": "revokePermission",
      "outputs": [],
      "stateMutability": "nonpayable",
      "type": "function"
    },
    {
      "inputs": [
        {
          "internalType": "string",
          "name": "_hhNumber",
          "type": "string"
        }
      ],
      "name": "getPatientRecords",
      "outputs": [
        {
          "internalType": "string[]",
          "name": "",
          "type": "string[]"
        }
      ],
      "stateMutability": "view",
      "type": "function",
      "constant": true
    },
    {
      "inputs": [
        {
          "internalType": "string",
          "name": "_hhNumber",
          "type": "string"
        }
      ],
      "name": "getPatientDetails",
      "outputs": [
        {
          "internalType": "address",
          "name": "walletAddress",
          "type": "address"
        },
        {
          "internalType": "string",
          "name": "name",
          "type": "string"
        },
        {
          "internalType": "string",
          "name": "dateOfBirth",
          "type": "string"
        },
        {
          "internalType": "string",
          "name": "gender",
          "type": "string"
        },
        {
          "internalType": "string",
          "name": "bloodGroup",
          "type": "string"
        },
        {
          "internalType": "string",
          "name": "homeAddress",
          "type": "string"
        },
        {
          "internalType": "string",
          "name": "email",
          "type": "string"
        },
        {
          "internalType": "string[]",
          "name": "records",
          "type": "string[]"
        }
      ],
      "stateMutability": "view",
      "type": "function",
      "constant": true
    },
    {
      "inputs": [
        {
          "internalType": "string",
          "name": "_doctorNumber",
          "type": "string"
        }
      ],
      "name": "getPatientList",
      "outputs": [
        {
          "components": [
            {
              "internalType": "string",
              "name": "patientNumber",
              "type": "string"
            },
            {
              "internalType": "string",
              "name": "patientName",
              "type": "string"
            }
          ],
          "internalType": "struct PatientRegistration.PatientList[]",
          "name": "",
          "type": "tuple[]"
        }
      ],
      "stateMutability": "view",
      "type": "function",
      "constant": true
    },
    {
      "inputs": [
        {
          "internalType": "string",
          "name": "_patientNumber",
          "type": "string"
        },
        {
          "internalType": "string",
          "name": "_doctorNumber",
          "type": "string"
        }
      ],
      "name": "isPermissionGranted",
      "outputs": [
        {
          "internalType": "bool",
          "name": "",
          "type": "bool"
        }
      ],
      "stateMutability": "view",
      "type": "function",
      "constant": true
    },
    {
      "inputs": [
        {
          "internalType": "string",
          "name": "_hhNumber",
          "type": "string"
        }
      ],
      "name": "isRegisteredPatient",
      "outputs": [
        {
          "internalType": "bool",
          "name": "",
          "type": "bool"
        }
      ],
      "stateMutability": "view",
      "type": "function",
      "constant": true
    },
    {
      "inputs": [
        {
          "internalType": "string",
          "name": "_hhNumber",
          "type": "string"
        },
        {
          "internalType": "string",
          "name": "_password",
          "type": "string"
        }
      ],
      "name": "validatePassword",
      "outputs": [
        {
          "internalType": "bool",
          "name": "",
          "type": "bool"
        }
      ],
      "stateMutability": "view",
      "type": "function",
      "constant": true
    }
  ],
  "bytecode": "0x608060405234801561001057600080fd5b50336000806101000a81548173ffffffffffffffffffffffffffffffffffffffff021916908373ffffffffffffffffffffffffffffffffffffffff160217905550613cce806100606000396000f3fe608060405234801561001057600080fd5b50600436106101215760003560e01c80637933ef8b116100ad578063d120c10c11610071578063d120c10c14610332578063d75e93f614610362578063ea977fc814610392578063f7252641146103c9578063f851a440146103f957610121565b80637933ef8b146102625780637babdb261461027e57806391c12f76146102ae578063c6009d84146102de578063cdac63641461031657610121565b80634f10c6c2116100f45780634f10c6c2146101ae57806357812a08146101de5780635cd40af5146101fa5780635df670401461022a57806375829def1461024657610121565b806302f9888e146101265780630ac1f2c51461014257806318a231a914610160578063443347331461017e575b600080fd5b610140600480360381019061013b91906128e6565b610417565b005b61014a610781565b6040516101579190612970565b60405180910390f35b6101686107a7565b6040516101759190612acc565b60405180910390f35b61019860048036038101906101939190612aee565b61090e565b6040516101a59190612b81565b60405180910390f35b6101c860048036038101906101c391906128e6565b610969565b6040516101d59190612b81565b60405180910390f35b6101f860048036038101906101f39190612bc8565b61099f565b005b610214600480360381019061020f91906128e6565b610db8565b6040516102219190612acc565b60405180910390f35b610244600480360381019061023f9190612d72565b610f1d565b005b610260600480360381019061025b9190612e19565b611335565b005b61027c60048036038101906102779190612e19565b611406565b005b61029860048036038101906102939190612aee565b6114d8565b6040516102a59190612b81565b60405180910390f35b6102c860048036038101906102c391906128e6565b6115bc565b6040516102d59190612f4c565b60405180910390f35b6102f860048036038101906102f391906128e6565b61175d565b60405161030d99989796959493929190612fb8565b60405180910390f35b610330600480360381019061032b9190612aee565b611c21565b005b61034c60048036038101906103479190612aee565b611f03565b6040516103599190612b81565b60405180910390f35b61037c60048036038101906103779190612aee565b611f55565b6040516103899190612b81565b60405180910390f35b6103ac60048036038101906103a791906128e6565b611fb0565b6040516103c098979695949392919061307d565b60405180910390f35b6103e360048036038101906103de91906128e6565b612659565b6040516103f09190612b81565b60405180910390f35b61040161268e565b60405161040e9190612970565b60405180910390f35b6000600760003373ffffffffffffffffffffffffffffffffffffffff1673ffffffffffffffffffffffffffffffffffffffff16815260200190815260200160002080546104639061315b565b80601f016020809104026020016040519081016040528092919081815260200182805461048f9061315b565b80156104dc5780601f106104b1576101008083540402835291602001916104dc565b820191906000526020600020905b8154815290600101906020018083116104bf57829003601f168201915b505050505090506005816040516104f391906131c8565b90815260200160405180910390208260405161050f91906131c8565b908152602001604051809103902060009054906101000a900460ff1661056a576040517f08c379a00000000000000000000000000000000000000000000000000000000081526004016105619061322b565b60405180910390fd5b600060058260405161057c91906131c8565b90815260200160405180910390208360405161059891906131c8565b908152602001604051809103902060006101000a81548160ff02191690831515021790555060006004836040516105cf91906131c8565b9081526020016040518091039020905060005b818054905081101561072e5782805190602001208282815481106106095761060861324b565b5b9060005260206000209060020201600001604051610627919061331d565b60405180910390200361071b5760018280549050610645919061336d565b8110156106cc57816001838054905061065e919061336d565b8154811061066f5761066e61324b565b5b90600052602060002090600202018282815481106106905761068f61324b565b5b9060005260206000209060020201600082018160000190816106b29190613563565b50600182018160010190816106c79190613563565b509050505b818054806106dd576106dc61364b565b5b60019003818190600052602060002090600202016000808201600061070291906126b2565b60018201600061071291906126b2565b5050905561072e565b80806107269061367a565b9150506105e2565b508160405161073d91906131c8565b60405180910390207f213e0e506c4dc293f81607cd7c386e8054c30488dec51469ff3fddcc5f3ad70c8460405161077491906136c2565b60405180910390a2505050565b600860009054906101000a900473ffffffffffffffffffffffffffffffffffffffff1681565b606060008054906101000a900473ffffffffffffffffffffffffffffffffffffffff1673ffffffffffffffffffffffffffffffffffffffff163373ffffffffffffffffffffffffffffffffffffffff1614610837576040517f08c379a000000000000000000000000000000000000000000000000000000000815260040161082e90613730565b60405180910390fd5b6001805480602002602001604051908101604052809291908181526020016000905b828210156109055783829060005260206000200180546108789061315b565b80601f01602080910402602001604051908101604052809291908181526020018280546108a49061315b565b80156108f15780601f106108c6576101008083540402835291602001916108f1565b820191906000526020600020905b8154815290600101906020018083116108d457829003601f168201915b505050505081526020019060010190610859565b50505050905090565b600582805160208101820180518482526020830160208501208183528095505050505050818051602081018201805184825260208301602085012081835280955050505050506000915091509054906101000a900460ff1681565b6002818051602081018201805184825260208301602085012081835280955050505050506000915054906101000a900460ff1681565b6002826040516109af91906131c8565b908152602001604051809103902060009054906101000a900460ff1615610a0b576040517f08c379a0000000000000000000000000000000000000000000000000000000008152600401610a029061379c565b60405180910390fd5b6000825111610a4f576040517f08c379a0000000000000000000000000000000000000000000000000000000008152600401610a4690613808565b60405180910390fd5b600073ffffffffffffffffffffffffffffffffffffffff168973ffffffffffffffffffffffffffffffffffffffff1603610abe576040517f08c379a0000000000000000000000000000000000000000000000000000000008152600401610ab590613874565b60405180910390fd5b6000604051806101400160405280600067ffffffffffffffff811115610ae757610ae66127bb565b5b604051908082528060200260200182016040528015610b1a57816020015b6060815260200190600190039081610b055790505b5081526020018b73ffffffffffffffffffffffffffffffffffffffff1681526020018a8152602001898152602001888152602001878152602001868152602001858152602001848152602001838152509050600183908060018154018082558091505060019003906000526020600020016000909190919091509081610ba09190613894565b5080600384604051610bb291906131c8565b90815260200160405180910390206000820151816000019080519060200190610bdc9291906126f2565b5060208201518160010160006101000a81548173ffffffffffffffffffffffffffffffffffffffff021916908373ffffffffffffffffffffffffffffffffffffffff1602179055506040820151816002019081610c399190613894565b506060820151816003019081610c4f9190613894565b506080820151816004019081610c659190613894565b5060a0820151816005019081610c7b9190613894565b5060c0820151816006019081610c919190613894565b5060e0820151816007019081610ca79190613894565b50610100820151816008019081610cbe9190613894565b50610120820151816009019081610cd59190613894565b509050506001600284604051610ceb91906131c8565b908152602001604051809103902060006101000a81548160ff02191690831515021790555082600760008c73ffffffffffffffffffffffffffffffffffffffff1673ffffffffffffffffffffffffffffffffffffffff1681526020019081526020016000209081610d5c9190613894565b5082604051610d6b91906131c8565b60405180910390207f319ae3a95b9a410d647835a7e64d54ddf28faf35a698f0a2b63999585fa38edc8a8c604051610da4929190613966565b60405180910390a250505050505050505050565b6060600282604051610dca91906131c8565b908152602001604051809103902060009054906101000a900460ff16610e25576040517f08c379a0000000000000000000000000000000000000000000000000000000008152600401610e1c906139e2565b60405180910390fd5b600382604051610e3591906131c8565b9081526020016040518091039020600001805480602002602001604051908101604052809291908181526020016000905b82821015610f12578382906000526020600020018054610e859061315b565b80601f0160208091040260200160405190810160405280929190818152602001828054610eb19061315b565b8015610efe5780601f10610ed357610100808354040283529160200191610efe565b820191906000526020600020905b815481529060010190602001808311610ee157829003601f168201915b505050505081526020019060010190610e66565b505050509050919050565b82600281604051610f2e91906131c8565b908152602001604051809103902060009054906101000a900460ff16610f89576040517f08c379a0000000000000000000000000000000000000000000000000000000008152600401610f80906139e2565b60405180910390fd5b600381604051610f9991906131c8565b908152602001604051809103902060010160009054906101000a900473ffffffffffffffffffffffffffffffffffffffff1673ffffffffffffffffffffffffffffffffffffffff163373ffffffffffffffffffffffffffffffffffffffff1614611038576040517f08c379a000000000000000000000000000000000000000000000000000000000815260040161102f90613a4e565b60405180910390fd5b60058460405161104891906131c8565b90815260200160405180910390208360405161106491906131c8565b908152602001604051809103902060009054906101000a900460ff16156110c0576040517f08c379a00000000000000000000000000000000000000000000000000000000081526004016110b790613aba565b60405180910390fd5b6000805b6004856040516110d491906131c8565b90815260200160405180910390208054905081101561116c57858051906020012060048660405161110591906131c8565b908152602001604051809103902082815481106111255761112461324b565b5b9060005260206000209060020201600001604051611143919061331d565b604051809103902003611159576001915061116c565b80806111649061367a565b9150506110c4565b50806111fd5760048460405161118291906131c8565b9081526020016040518091039020604051806040016040528087815260200185815250908060018154018082558091505060019003906000526020600020906002020160009091909190915060008201518160000190816111e39190613894565b5060208201518160010190816111f99190613894565b5050505b600160058660405161120f91906131c8565b90815260200160405180910390208560405161122b91906131c8565b908152602001604051809103902060006101000a81548160ff021916908315150217905550600860009054906101000a900473ffffffffffffffffffffffffffffffffffffffff1673ffffffffffffffffffffffffffffffffffffffff166383deaac68686866040518463ffffffff1660e01b81526004016112af93929190613ada565b600060405180830381600087803b1580156112c957600080fd5b505af11580156112dd573d6000803e3d6000fd5b50505050846040516112ef91906131c8565b60405180910390207f995f2970a2ea0d66cc2150b5c93e3c413df023b5b88534d66259c9c3c6dac86a8560405161132691906136c2565b60405180910390a25050505050565b60008054906101000a900473ffffffffffffffffffffffffffffffffffffffff1673ffffffffffffffffffffffffffffffffffffffff163373ffffffffffffffffffffffffffffffffffffffff16146113c3576040517f08c379a00000000000000000000000000000000000000000000000000000000081526004016113ba90613730565b60405180910390fd5b806000806101000a81548173ffffffffffffffffffffffffffffffffffffffff021916908373ffffffffffffffffffffffffffffffffffffffff16021790555050565b60008054906101000a900473ffffffffffffffffffffffffffffffffffffffff1673ffffffffffffffffffffffffffffffffffffffff163373ffffffffffffffffffffffffffffffffffffffff1614611494576040517f08c379a000000000000000000000000000000000000000000000000000000000815260040161148b90613730565b60405180910390fd5b80600860006101000a81548173ffffffffffffffffffffffffffffffffffffffff021916908373ffffffffffffffffffffffffffffffffffffffff16021790555050565b60006002836040516114ea91906131c8565b908152602001604051809103902060009054906101000a900460ff16611545576040517f08c379a000000000000000000000000000000000000000000000000000000000815260040161153c906139e2565b60405180910390fd5b60038360405161155591906131c8565b90815260200160405180910390206009016040516020016115769190613ba9565b604051602081830303815290604052805190602001208260405160200161159d91906131c8565b6040516020818303038152906040528051906020012014905092915050565b60606004826040516115ce91906131c8565b9081526020016040518091039020805480602002602001604051908101604052809291908181526020016000905b82821015611752578382906000526020600020906002020160405180604001604052908160008201805461162f9061315b565b80601f016020809104026020016040519081016040528092919081815260200182805461165b9061315b565b80156116a85780601f1061167d576101008083540402835291602001916116a8565b820191906000526020600020905b81548152906001019060200180831161168b57829003601f168201915b505050505081526020016001820180546116c19061315b565b80601f01602080910402602001604051908101604052809291908181526020018280546116ed9061315b565b801561173a5780601f1061170f5761010080835404028352916020019161173a565b820191906000526020600020905b81548152906001019060200180831161171d57829003601f168201915b505050505081525050815260200190600101906115fc565b505050509050919050565b6003818051602081018201805184825260208301602085012081835280955050505050506000915090508060010160009054906101000a900473ffffffffffffffffffffffffffffffffffffffff16908060020180546117bc9061315b565b80601f01602080910402602001604051908101604052809291908181526020018280546117e89061315b565b80156118355780601f1061180a57610100808354040283529160200191611835565b820191906000526020600020905b81548152906001019060200180831161181857829003601f168201915b50505050509080600301805461184a9061315b565b80601f01602080910402602001604051908101604052809291908181526020018280546118769061315b565b80156118c35780601f10611898576101008083540402835291602001916118c3565b820191906000526020600020905b8154815290600101906020018083116118a657829003601f168201915b5050505050908060040180546118d89061315b565b80601f01602080910402602001604051908101604052809291908181526020018280546119049061315b565b80156119515780601f1061192657610100808354040283529160200191611951565b820191906000526020600020905b81548152906001019060200180831161193457829003601f168201915b5050505050908060050180546119669061315b565b80601f01602080910402602001604051908101604052809291908181526020018280546119929061315b565b80156119df5780601f106119b4576101008083540402835291602001916119df565b820191906000526020600020905b8154815290600101906020018083116119c257829003601f168201915b5050505050908060060180546119f49061315b565b80601f0160208091040260200160405190810160405280929190818152602001828054611a209061315b565b8015611a6d5780601f10611a4257610100808354040283529160200191611a6d565b820191906000526020600020905b815481529060010190602001808311611a5057829003601f168201915b505050505090806007018054611a829061315b565b80601f0160208091040260200160405190810160405280929190818152602001828054611aae9061315b565b8015611afb5780601f10611ad057610100808354040283529160200191611afb565b820191906000526020600020905b815481529060010190602001808311611ade57829003601f168201915b505050505090806008018054611b109061315b565b80601f0160208091040260200160405190810160405280929190818152602001828054611b3c9061315b565b8015611b895780601f10611b5e57610100808354040283529160200191611b89565b820191906000526020600020905b815481529060010190602001808311611b6c57829003601f168201915b505050505090806009018054611b9e9061315b565b80601f0160208091040260200160405190810160405280929190818152602001828054611bca9061315b565b8015611c175780601f10611bec57610100808354040283529160200191611c17565b820191906000526020600020905b815481529060010190602001808311611bfa57829003601f168201915b5050505050905089565b81600281604051611c3291906131c8565b908152602001604051809103902060009054906101000a900460ff16611c8d576040517f08c379a0000000000000000000000000000000000000000000000000000000008152600401611c84906139e2565b60405180910390fd5b600381604051611c9d91906131c8565b908152602001604051809103902060010160009054906101000a900473ffffffffffffffffffffffffffffffffffffffff1673ffffffffffffffffffffffffffffffffffffffff163373ffffffffffffffffffffffffffffffffffffffff1614611d3c576040517f08c379a0000000000000000000000000000000000000000000000000000000008152600401611d3390613a4e565b60405180910390fd5b6000825111611d80576040517f08c379a0000000000000000000000000000000000000000000000000000000008152600401611d7790613c0c565b60405180910390fd5b600683604051611d9091906131c8565b908152602001604051809103902082604051611dac91906131c8565b908152602001604051809103902060009054906101000a900460ff1615611e08576040517f08c379a0000000000000000000000000000000000000000000000000000000008152600401611dff90613c78565b60405180910390fd5b600383604051611e1891906131c8565b908152602001604051809103902060000182908060018154018082558091505060019003906000526020600020016000909190919091509081611e5b9190613894565b506001600684604051611e6e91906131c8565b908152602001604051809103902083604051611e8a91906131c8565b908152602001604051809103902060006101000a81548160ff02191690831515021790555082604051611ebd91906131c8565b60405180910390207f4ec27daef4802ec2ff852b43aef96e1fa67c88996609fe0b688e8ee531c418e78333604051611ef6929190613966565b60405180910390a2505050565b6000600583604051611f1591906131c8565b908152602001604051809103902082604051611f3191906131c8565b908152602001604051809103902060009054906101000a900460ff16905092915050565b600682805160208101820180518482526020830160208501208183528095505050505050818051602081018201805184825260208301602085012081835280955050505050506000915091509054906101000a900460ff1681565b60006060806060806060806060600289604051611fcd91906131c8565b908152602001604051809103902060009054906101000a900460ff16612028576040517f08c379a000000000000000000000000000000000000000000000000000000000815260040161201f906139e2565b60405180910390fd5b600060038a60405161203a91906131c8565b90815260200160405180910390206040518061014001604052908160008201805480602002602001604051908101604052809291908181526020016000905b828210156121255783829060005260206000200180546120989061315b565b80601f01602080910402602001604051908101604052809291908181526020018280546120c49061315b565b80156121115780601f106120e657610100808354040283529160200191612111565b820191906000526020600020905b8154815290600101906020018083116120f457829003601f168201915b505050505081526020019060010190612079565b5050505081526020016001820160009054906101000a900473ffffffffffffffffffffffffffffffffffffffff1673ffffffffffffffffffffffffffffffffffffffff1673ffffffffffffffffffffffffffffffffffffffff1681526020016002820180546121939061315b565b80601f01602080910402602001604051908101604052809291908181526020018280546121bf9061315b565b801561220c5780601f106121e15761010080835404028352916020019161220c565b820191906000526020600020905b8154815290600101906020018083116121ef57829003601f168201915b505050505081526020016003820180546122259061315b565b80601f01602080910402602001604051908101604052809291908181526020018280546122519061315b565b801561229e5780601f106122735761010080835404028352916020019161229e565b820191906000526020600020905b81548152906001019060200180831161228157829003601f168201915b505050505081526020016004820180546122b79061315b565b80601f01602080910402602001604051908101604052809291908181526020018280546122e39061315b565b80156123305780601f1061230557610100808354040283529160200191612330565b820191906000526020600020905b81548152906001019060200180831161231357829003601f168201915b505050505081526020016005820180546123499061315b565b80601f01602080910402602001604051908101604052809291908181526020018280546123759061315b565b80156123c25780601f10612397576101008083540402835291602001916123c2565b820191906000526020600020905b8154815290600101906020018083116123a557829003601f168201915b505050505081526020016006820180546123db9061315b565b80601f01602080910402602001604051908101604052809291908181526020018280546124079061315b565b80156124545780601f1061242957610100808354040283529160200191612454565b820191906000526020600020905b81548152906001019060200180831161243757829003601f168201915b5050505050815260200160078201805461246d9061315b565b80601f01602080910402602001604051908101604052809291908181526020018280546124999061315b565b80156124e65780601f106124bb576101008083540402835291602001916124e6565b820191906000526020600020905b8154815290600101906020018083116124c957829003601f168201915b505050505081526020016008820180546124ff9061315b565b80601f016020809104026020016040519081016040528092919081815260200182805461252b9061315b565b80156125785780601f1061254d57610100808354040283529160200191612578565b820191906000526020600020905b81548152906001019060200180831161255b57829003601f168201915b505050505081526020016009820180546125919061315b565b80601f01602080910402602001604051908101604052809291908181526020018280546125bd9061315b565b801561260a5780601f106125df5761010080835404028352916020019161260a565b820191906000526020600020905b8154815290600101906020018083116125ed57829003601f168201915b505050505081525050905080602001518160400151826060015183608001518460a001518560c001518660e0015187600001519850985098509850985098509850985050919395975091939597565b600060028260405161266b91906131c8565b908152602001604051809103902060009054906101000a900460ff169050919050565b60008054906101000a900473ffffffffffffffffffffffffffffffffffffffff1681565b5080546126be9061315b565b6000825580601f106126d057506126ef565b601f0160209004906000526020600020908101906126ee919061274b565b5b50565b82805482825590600052602060002090810192821561273a579160200282015b828111156127395782518290816127299190613894565b5091602001919060010190612712565b5b5090506127479190612768565b5090565b5b8082111561276457600081600090555060010161274c565b5090565b5b80821115612788576000818161277f91906126b2565b50600101612769565b5090565b6000604051905090565b600080fd5b600080fd5b600080fd5b600080fd5b6000601f19601f8301169050919050565b7f4e487b7100000000000000000000000000000000000000000000000000000000600052604160045260246000fd5b6127f3826127aa565b810181811067ffffffffffffffff82111715612812576128116127bb565b5b80604052505050565b600061282561278c565b905061283182826127ea565b919050565b600067ffffffffffffffff821115612851576128506127bb565b5b61285a826127aa565b9050602081019050919050565b82818337600083830152505050565b600061288961288484612836565b61281b565b9050828152602081018484840111156128a5576128a46127a5565b5b6128b0848285612867565b509392505050565b600082601f8301126128cd576128cc6127a0565b5b81356128dd848260208601612876565b91505092915050565b6000602082840312156128fc576128fb612796565b5b600082013567ffffffffffffffff81111561291a5761291961279b565b5b612926848285016128b8565b91505092915050565b600073ffffffffffffffffffffffffffffffffffffffff82169050919050565b600061295a8261292f565b9050919050565b61296a8161294f565b82525050565b60006020820190506129856000830184612961565b92915050565b600081519050919050565b600082825260208201905092915050565b6000819050602082019050919050565b600081519050919050565b600082825260208201905092915050565b60005b838110156129f15780820151818401526020810190506129d6565b60008484015250505050565b6000612a08826129b7565b612a1281856129c2565b9350612a228185602086016129d3565b612a2b816127aa565b840191505092915050565b6000612a4283836129fd565b905092915050565b6000602082019050919050565b6000612a628261298b565b612a6c8185612996565b935083602082028501612a7e856129a7565b8060005b85811015612aba5784840389528151612a9b8582612a36565b9450612aa683612a4a565b925060208a01995050600181019050612a82565b50829750879550505050505092915050565b60006020820190508181036000830152612ae68184612a57565b905092915050565b60008060408385031215612b0557612b04612796565b5b600083013567ffffffffffffffff811115612b2357612b2261279b565b5b612b2f858286016128b8565b925050602083013567ffffffffffffffff811115612b5057612b4f61279b565b5b612b5c858286016128b8565b9150509250929050565b60008115159050919050565b612b7b81612b66565b82525050565b6000602082019050612b966000830184612b72565b92915050565b612ba58161294f565b8114612bb057600080fd5b50565b600081359050612bc281612b9c565b92915050565b60008060008060008060008060006101208a8c031215612beb57612bea612796565b5b6000612bf98c828d01612bb3565b99505060208a013567ffffffffffffffff811115612c1a57612c1961279b565b5b612c268c828d016128b8565b98505060408a013567ffffffffffffffff811115612c4757612c4661279b565b5b612c538c828d016128b8565b97505060608a013567ffffffffffffffff811115612c7457612c7361279b565b5b612c808c828d016128b8565b96505060808a013567ffffffffffffffff811115612ca157612ca061279b565b5b612cad8c828d016128b8565b95505060a08a013567ffffffffffffffff811115612cce57612ccd61279b565b5b612cda8c828d016128b8565b94505060c08a013567ffffffffffffffff811115612cfb57612cfa61279b565b5b612d078c828d016128b8565b93505060e08a013567ffffffffffffffff811115612d2857612d2761279b565b5b612d348c828d016128b8565b9250506101008a013567ffffffffffffffff811115612d5657612d5561279b565b5b612d628c828d016128b8565b9150509295985092959850929598565b600080600060608486031215612d8b57612d8a612796565b5b600084013567ffffffffffffffff811115612da957612da861279b565b5b612db5868287016128b8565b935050602084013567ffffffffffffffff811115612dd657612dd561279b565b5b612de2868287016128b8565b925050604084013567ffffffffffffffff811115612e0357612e0261279b565b5b612e0f868287016128b8565b9150509250925092565b600060208284031215612e2f57612e2e612796565b5b6000612e3d84828501612bb3565b91505092915050565b600081519050919050565b600082825260208201905092915050565b6000819050602082019050919050565b60006040830160008301518482036000860152612e8f82826129fd565b91505060208301518482036020860152612ea982826129fd565b9150508091505092915050565b6000612ec28383612e72565b905092915050565b6000602082019050919050565b6000612ee282612e46565b612eec8185612e51565b935083602082028501612efe85612e62565b8060005b85811015612f3a5784840389528151612f1b8582612eb6565b9450612f2683612eca565b925060208a01995050600181019050612f02565b50829750879550505050505092915050565b60006020820190508181036000830152612f668184612ed7565b905092915050565b600082825260208201905092915050565b6000612f8a826129b7565b612f948185612f6e565b9350612fa48185602086016129d3565b612fad816127aa565b840191505092915050565b600061012082019050612fce600083018c612961565b8181036020830152612fe0818b612f7f565b90508181036040830152612ff4818a612f7f565b905081810360608301526130088189612f7f565b9050818103608083015261301c8188612f7f565b905081810360a08301526130308187612f7f565b905081810360c08301526130448186612f7f565b905081810360e08301526130588185612f7f565b905081810361010083015261306d8184612f7f565b90509a9950505050505050505050565b600061010082019050613093600083018b612961565b81810360208301526130a5818a612f7f565b905081810360408301526130b98189612f7f565b905081810360608301526130cd8188612f7f565b905081810360808301526130e18187612f7f565b905081810360a08301526130f58186612f7f565b905081810360c08301526131098185612f7f565b905081810360e083015261311d8184612a57565b90509998505050505050505050565b7f4e487b7100000000000000000000000000000000000000000000000000000000600052602260045260246000fd5b6000600282049050600182168061317357607f821691505b6020821081036131865761318561312c565b5b50919050565b600081905092915050565b60006131a2826129b7565b6131ac818561318c565b93506131bc8185602086016129d3565b80840191505092915050565b60006131d48284613197565b915081905092915050565b7f5065726d697373696f6e206e6f74206772616e74656400000000000000000000600082015250565b6000613215601683612f6e565b9150613220826131df565b602082019050919050565b6000602082019050818103600083015261324481613208565b9050919050565b7f4e487b7100000000000000000000000000000000000000000000000000000000600052603260045260246000fd5b600081905092915050565b60008190508160005260206000209050919050565b600081546132a78161315b565b6132b1818661327a565b945060018216600081146132cc57600181146132e157613314565b60ff1983168652811515820286019350613314565b6132ea85613285565b60005b8381101561330c578154818901526001820191506020810190506132ed565b838801955050505b50505092915050565b6000613329828461329a565b915081905092915050565b6000819050919050565b7f4e487b7100000000000000000000000000000000000000000000000000000000600052601160045260246000fd5b600061337882613334565b915061338383613334565b925082820390508181111561339b5761339a61333e565b5b92915050565b6000815490506133b08161315b565b9050919050565b60008190508160005260206000209050919050565b60006020601f8301049050919050565b600082821b905092915050565b6000600883026134197fffffffffffffffffffffffffffffffffffffffffffffffffffffffffffffffff826133dc565b61342386836133dc565b95508019841693508086168417925050509392505050565b6000819050919050565b600061346061345b61345684613334565b61343b565b613334565b9050919050565b6000819050919050565b61347a83613445565b61348e61348682613467565b8484546133e9565b825550505050565b600090565b6134a3613496565b6134ae818484613471565b505050565b5b818110156134d2576134c760008261349b565b6001810190506134b4565b5050565b601f821115613517576134e8816133b7565b6134f1846133cc565b81016020851015613500578190505b61351461350c856133cc565b8301826134b3565b50505b505050565b600082821c905092915050565b600061353a6000198460080261351c565b1980831691505092915050565b60006135538383613529565b9150826002028217905092915050565b818103613571575050613649565b61357a826133a1565b67ffffffffffffffff811115613593576135926127bb565b5b61359d825461315b565b6135a88282856134d6565b6000601f8311600181146135d757600084156135c5578287015490505b6135cf8582613547565b865550613642565b601f1984166135e5876133b7565b96506135f0866133b7565b60005b82811015613618578489015482556001820191506001850194506020810190506135f3565b868310156136355784890154613631601f891682613529565b8355505b6001600288020188555050505b5050505050505b565b7f4e487b7100000000000000000000000000000000000000000000000000000000600052603160045260246000fd5b600061368582613334565b91507fffffffffffffffffffffffffffffffffffffffffffffffffffffffffffffffff82036136b7576136b661333e565b5b600182019050919050565b600060208201905081810360008301526136dc8184612f7f565b905092915050565b7f4f6e6c792061646d696e2063616e2063616c6c20746869730000000000000000600082015250565b600061371a601883612f6e565b9150613725826136e4565b602082019050919050565b600060208201905081810360008301526137498161370d565b9050919050565b7f50617469656e7420616c72656164792072656769737465726564000000000000600082015250565b6000613786601a83612f6e565b915061379182613750565b602082019050919050565b600060208201905081810360008301526137b581613779565b9050919050565b7f4848204e756d6265722063616e6e6f7420626520656d70747900000000000000600082015250565b60006137f2601983612f6e565b91506137fd826137bc565b602082019050919050565b60006020820190508181036000830152613821816137e5565b9050919050565b7f496e76616c69642077616c6c6574206164647265737300000000000000000000600082015250565b600061385e601683612f6e565b915061386982613828565b602082019050919050565b6000602082019050818103600083015261388d81613851565b9050919050565b61389d826129b7565b67ffffffffffffffff8111156138b6576138b56127bb565b5b6138c0825461315b565b6138cb8282856134d6565b600060209050601f8311600181146138fe57600084156138ec578287015190505b6138f68582613547565b86555061395e565b601f19841661390c866133b7565b60005b828110156139345784890151825560018201915060208501945060208101905061390f565b86831015613951578489015161394d601f891682613529565b8355505b6001600288020188555050505b505050505050565b600060408201905081810360008301526139808185612f7f565b905061398f6020830184612961565b9392505050565b7f50617469656e74206e6f74207265676973746572656400000000000000000000600082015250565b60006139cc601683612f6e565b91506139d782613996565b602082019050919050565b600060208201905081810360008301526139fb816139bf565b9050919050565b7f556e617574686f72697a65640000000000000000000000000000000000000000600082015250565b6000613a38600c83612f6e565b9150613a4382613a02565b602082019050919050565b60006020820190508181036000830152613a6781613a2b565b9050919050565b7f5065726d697373696f6e20616c7265616479206772616e746564000000000000600082015250565b6000613aa4601a83612f6e565b9150613aaf82613a6e565b602082019050919050565b60006020820190508181036000830152613ad381613a97565b9050919050565b60006060820190508181036000830152613af48186612f7f565b90508181036020830152613b088185612f7f565b90508181036040830152613b1c8184612f7f565b9050949350505050565b60008154613b338161315b565b613b3d818661318c565b94506001821660008114613b585760018114613b6d57613ba0565b60ff1983168652811515820286019350613ba0565b613b76856133b7565b60005b83811015613b9857815481890152600182019150602081019050613b79565b838801955050505b50505092915050565b6000613bb58284613b26565b915081905092915050565b7f496e76616c696420495046532068617368000000000000000000000000000000600082015250565b6000613bf6601183612f6e565b9150613c0182613bc0565b602082019050919050565b60006020820190508181036000830152613c2581613be9565b9050919050565b7f5265636f726420616c7265616479206578697374730000000000000000000000600082015250565b6000613c62601583612f6e565b9150613c6d82613c2c565b602082019050919050565b60006020820190508181036000830152613c9181613c55565b905091905056fea2646970667358221220bb5b96577da60fabcb21eff044a1648fea33bb4b648e901a81bac86fa279ddc764736f6c63430008130033",
  "immutableReferences": {},
  "source": "//PatientRegistration.sol\r\n// SPDX-License-Identifier: MIT\r\npragma solidity ^0.8.19;\r\n\r\ninterface IDoctorRegistration {\r\n    function externalGrantFromPatient(\r\n        string memory _patientNumber, \r\n        string memory _doctorNumber, \r\n        string memory _patientName\r\n    ) external;\r\n}\r\n\r\ncontract PatientRegistration {\r\n    struct Patient {\r\n        string[] ipfsHashes;\r\n        address walletAddress;\r\n        string name;\r\n        string dateOfBirth;\r\n        string gender;\r\n        string bloodGroup;\r\n        string homeAddress;\r\n        string email;\r\n        string hhNumber;\r\n        string password;\r\n    }\r\n\r\n    struct PatientList {\r\n        string patientNumber;\r\n        string patientName;\r\n    }\r\n    \r\n    address public admin;\r\n    string[] private patientList;\r\n    \r\n    mapping(string => bool) public isPatientRegistered;\r\n    mapping(string => Patient) public patients;\r\n    mapping(string => PatientList[]) private doctorToPatients;\r\n    mapping(string => mapping(string => bool)) public doctorPermissions;\r\n    mapping(string => mapping(string => bool)) public patientRecords;\r\n    mapping(address => string) private addressToHhNumber;\r\n\r\n    address public doctorContractAddress;\r\n\r\n    event PatientRegistered(string indexed hhNumber, string name, address walletAddress);\r\n    event RecordUploaded(string indexed hhNumber, string ipfsHash, address uploadedBy);\r\n    event PermissionGranted(string indexed patientNumber, string doctorNumber);\r\n    event PermissionRevoked(string indexed patientNumber, string doctorNumber);\r\n\r\n    modifier onlyAdmin() {\r\n        require(msg.sender == admin, \"Only admin can call this\");\r\n        _;\r\n    }\r\n\r\n    modifier onlyRegisteredPatient(string memory _hhNumber) {\r\n        require(isPatientRegistered[_hhNumber], \"Patient not registered\");\r\n        require(msg.sender == patients[_hhNumber].walletAddress, \"Unauthorized\");\r\n        _;\r\n    }\r\n\r\n    constructor() {\r\n        admin = msg.sender;\r\n    }\r\n\r\n    function setDoctorContractAddress(address _addr) external onlyAdmin {\r\n        doctorContractAddress = _addr;\r\n    }\r\n\r\n    function transferAdmin(address _newAdmin) external onlyAdmin {\r\n        admin = _newAdmin;\r\n    }\r\n\r\n    function getAllPatients() external view onlyAdmin returns (string[] memory) {\r\n        return patientList;\r\n    }\r\n\r\n    function registerPatient(\r\n        address _walletAddress,\r\n        string memory _name,\r\n        string memory _dateOfBirth,\r\n        string memory _gender,\r\n        string memory _bloodGroup,\r\n        string memory _homeAddress,\r\n        string memory _email,\r\n        string memory _hhNumber,\r\n        string memory _password\r\n    ) external {\r\n        require(!isPatientRegistered[_hhNumber], \"Patient already registered\");\r\n        require(bytes(_hhNumber).length > 0, \"HH Number cannot be empty\");\r\n        require(_walletAddress != address(0), \"Invalid wallet address\");\r\n\r\n        Patient memory newPatient = Patient({\r\n            walletAddress: _walletAddress,\r\n            name: _name,\r\n            dateOfBirth: _dateOfBirth,\r\n            gender: _gender,\r\n            bloodGroup: _bloodGroup,\r\n            homeAddress: _homeAddress,\r\n            email: _email,\r\n            hhNumber: _hhNumber,\r\n            password: _password,\r\n            ipfsHashes: new string[](0)\r\n        });\r\n        \r\n        patientList.push(_hhNumber);\r\n        patients[_hhNumber] = newPatient;\r\n        isPatientRegistered[_hhNumber] = true;\r\n        addressToHhNumber[_walletAddress] = _hhNumber;\r\n        \r\n        emit PatientRegistered(_hhNumber, _name, _walletAddress);\r\n    }\r\n\r\n    function uploadPatientRecord(\r\n        string memory _hhNumber, \r\n        string memory _ipfsHash\r\n    ) external onlyRegisteredPatient(_hhNumber) {\r\n        require(bytes(_ipfsHash).length > 0, \"Invalid IPFS hash\");\r\n        require(!patientRecords[_hhNumber][_ipfsHash], \"Record already exists\");\r\n        \r\n        patients[_hhNumber].ipfsHashes.push(_ipfsHash);\r\n        patientRecords[_hhNumber][_ipfsHash] = true;\r\n        \r\n        emit RecordUploaded(_hhNumber, _ipfsHash, msg.sender);\r\n    }\r\n\r\n    function grantPermission(\r\n        string memory _patientNumber,\r\n        string memory _doctorNumber,\r\n        string memory _patientName\r\n    ) external onlyRegisteredPatient(_patientNumber) {\r\n        require(!doctorPermissions[_patientNumber][_doctorNumber], \"Permission already granted\");\r\n        \r\n        bool exists = false;\r\n        for (uint i = 0; i < doctorToPatients[_doctorNumber].length; i++) {\r\n            if (keccak256(bytes(doctorToPatients[_doctorNumber][i].patientNumber)) == \r\n                keccak256(bytes(_patientNumber))) {\r\n                exists = true;\r\n                break;\r\n            }\r\n        }\r\n\r\n        if (!exists) {\r\n            doctorToPatients[_doctorNumber].push(PatientList(_patientNumber, _patientName));\r\n        }\r\n\r\n        doctorPermissions[_patientNumber][_doctorNumber] = true;\r\n        IDoctorRegistration(doctorContractAddress).externalGrantFromPatient(\r\n            _patientNumber, \r\n            _doctorNumber, \r\n            _patientName\r\n        );\r\n        \r\n        emit PermissionGranted(_patientNumber, _doctorNumber);\r\n    }\r\n\r\n    function revokePermission(string memory _doctorNumber) external {\r\n        string memory _patientNumber = addressToHhNumber[msg.sender];\r\n        require(doctorPermissions[_patientNumber][_doctorNumber], \"Permission not granted\");\r\n        \r\n        doctorPermissions[_patientNumber][_doctorNumber] = false;\r\n        \r\n        PatientList[] storage patientsList = doctorToPatients[_doctorNumber];\r\n        for (uint i = 0; i < patientsList.length; i++) {\r\n            if (keccak256(bytes(patientsList[i].patientNumber)) == keccak256(bytes(_patientNumber))) {\r\n                if (i < patientsList.length - 1) {\r\n                    patientsList[i] = patientsList[patientsList.length - 1];\r\n                }\r\n                patientsList.pop();\r\n                break;\r\n            }\r\n        }\r\n        \r\n        emit PermissionRevoked(_patientNumber, _doctorNumber);\r\n    }\r\n\r\n    function getPatientRecords(string memory _hhNumber) external view returns (string[] memory) {\r\n        require(isPatientRegistered[_hhNumber], \"Patient not registered\");\r\n        return patients[_hhNumber].ipfsHashes;\r\n    }\r\n\r\n    function getPatientDetails(string memory _hhNumber) external view returns (\r\n        address walletAddress,\r\n        string memory name,\r\n        string memory dateOfBirth,\r\n        string memory gender,\r\n        string memory bloodGroup,\r\n        string memory homeAddress,\r\n        string memory email,\r\n        string[] memory records\r\n    ) {\r\n        require(isPatientRegistered[_hhNumber], \"Patient not registered\");\r\n        Patient memory patient = patients[_hhNumber];\r\n        return (\r\n            patient.walletAddress,\r\n            patient.name,\r\n            patient.dateOfBirth,\r\n            patient.gender,\r\n            patient.bloodGroup,\r\n            patient.homeAddress,\r\n            patient.email,\r\n            patient.ipfsHashes\r\n        );\r\n    }\r\n\r\n    function getPatientList(string memory _doctorNumber) public view returns (PatientList[] memory) {\r\n        return doctorToPatients[_doctorNumber];\r\n    }\r\n\r\n    function isPermissionGranted(\r\n        string memory _patientNumber, \r\n        string memory _doctorNumber\r\n    ) external view returns (bool) {\r\n        return doctorPermissions[_patientNumber][_doctorNumber];\r\n    }\r\n\r\n    function isRegisteredPatient(string memory _hhNumber) external view returns (bool) {\r\n        return isPatientRegistered[_hhNumber];\r\n    }\r\n\r\n    function validatePassword(\r\n        string memory _hhNumber, \r\n        string memory _password\r\n    ) external view returns (bool) {\r\n        require(isPatientRegistered[_hhNumber], \"Patient not registered\");\r\n        return keccak256(abi.encodePacked(_password)) == \r\n               keccak256(abi.encodePacked(patients[_hhNumber].password));\r\n    }\r\n}",
  "sourcePath": "C:\\Users\\Asus\\Medical_Management_Blockchain_6th\\src\\contracts\\PatientRegistration.sol",
  "compiler": {
    "name": "solc",
    "version": "0.8.19+commit.7dd6d404.Emscripten.clang"
  },
  "schemaVersion": "3.4.16",
  "updatedAt": "2025-05-19T19:17:44.911Z",
  "networkType": "ethereum",
  "devdoc": {
    "kind": "dev",
    "methods": {},
    "version": 1
  },
  "userdoc": {
    "kind": "user",
    "methods": {},
    "version": 1
  }
}